8=FIX.4.4|9=79|35=A|34=1|49=CLIENT|52=20241003-17:35:24.281|56=MARKET_MAKER|98=0|108=90|141=Y|10=136|