20241002-13:17:41.381052000 : 8=FIX.4.4|9=73|35=A|34=1|49=CLIENT1|52=20241002-13:17:41.372|56=MARKETMAKER|98=0|108=30|10=028|
