20241002-14:05:50.274697000 : 8=FIX.4.4|9=129|35=A|34=1|49=CLIENT1        # Unique ID for the client|52=20241002-14:05:50.164|56=MARKETMAKER    # Target server ID|98=0|108=30|10=167|
20241002-14:14:55.369764000 : 8=FIX.4.4|9=129|35=A|34=2|49=CLIENT1        # Unique ID for the client|52=20241002-14:14:55.319|56=MARKETMAKER    # Target server ID|98=0|108=30|10=175|
20241002-14:15:55.299704000 : 8=FIX.4.4|9=129|35=A|34=3|49=CLIENT1        # Unique ID for the client|52=20241002-14:15:55.234|56=MARKETMAKER    # Target server ID|98=0|108=30|10=173|
