20241017-07:24:21.799436000 : 8=FIX.4.4|9=73|35=A|34=1|49=CLIENT|52=20241017-07:24:21.774|56=SERVER|98=0|108=30|141=Y|10=198|
20241017-07:24:21.845133000 : 8=FIX.4.4|9=73|35=A|34=1|49=SERVER|52=20241017-07:24:21.844|56=CLIENT|98=0|108=30|141=Y|10=196|
20241017-07:24:51.716426000 : 8=FIX.4.4|9=55|35=0|34=2|49=CLIENT|52=20241017-07:24:51.710|56=SERVER|10=105|
20241017-07:24:51.718959000 : 8=FIX.4.4|9=55|35=0|34=2|49=SERVER|52=20241017-07:24:51.716|56=CLIENT|10=111|
20241017-07:34:41.399316000 : 8=FIX.4.4|9=67|35=A|34=2|49=CLIENT|52=20241017-07:34:41.396|56=SERVER|98=0|108=15|10=163|
20241017-07:34:41.409285000 : 8=FIX.4.4|9=104|35=5|34=3|49=SERVER|52=20241017-07:34:41.403|56=CLIENT|58=MsgSeqNum too low, expecting 3 but received 2|10=050|
20241017-07:34:41.694237000 : 8=FIX.4.4|9=67|35=A|34=5|49=CLIENT|52=20241017-07:34:41.692|56=SERVER|98=0|108=15|10=165|
20241017-07:34:41.695844000 : 8=FIX.4.4|9=67|35=A|34=4|49=SERVER|52=20241017-07:34:41.694|56=CLIENT|98=0|108=15|10=166|
20241017-07:34:41.698570000 : 8=FIX.4.4|9=64|35=2|34=5|49=SERVER|52=20241017-07:34:41.696|56=CLIENT|7=3|16=0|10=248|
20241017-07:34:41.699490000 : 8=FIX.4.4|9=64|35=2|34=6|49=CLIENT|52=20241017-07:34:41.696|56=SERVER|7=2|16=0|10=248|
20241017-07:34:41.700755000 : 8=FIX.4.4|9=97|35=4|34=2|43=Y|49=SERVER|52=20241017-07:34:41.700|56=CLIENT|122=20241017-07:34:41.700|36=6|123=Y|10=119|
20241017-07:34:41.701910000 : 8=FIX.4.4|9=97|35=4|34=3|43=Y|49=CLIENT|52=20241017-07:34:41.699|56=SERVER|122=20241017-07:34:41.699|36=7|123=Y|10=155|
20241017-07:34:56.346827000 : 8=FIX.4.4|9=55|35=0|34=7|49=CLIENT|52=20241017-07:34:56.343|56=SERVER|10=118|
20241017-07:34:56.349920000 : 8=FIX.4.4|9=55|35=0|34=6|49=SERVER|52=20241017-07:34:56.348|56=CLIENT|10=122|
20241017-07:34:59.714454000 : 8=FIX.4.4|9=96|35=V|34=8|49=CLIENT|52=20241017-07:34:59.707|56=SERVER|262=1|263=1|264=1|267=1|55=EUR/USD|269=0|10=147|
20241017-07:34:59.722446000 : 8=FIX.4.4|9=104|35=3|34=7|49=SERVER|52=20241017-07:34:59.717|56=CLIENT|45=8|58=Required tag missing|371=146|372=V|373=1|10=157|
20241017-07:35:14.351099000 : 8=FIX.4.4|9=64|35=1|34=8|49=SERVER|52=20241017-07:35:14.328|56=CLIENT|112=TEST|10=136|
20241017-07:35:14.353030000 : 8=FIX.4.4|9=64|35=0|34=9|49=CLIENT|52=20241017-07:35:14.351|56=SERVER|112=TEST|10=132|
20241017-07:35:21.212238000 : 8=FIX.4.4|9=97|35=V|34=10|49=CLIENT|52=20241017-07:35:21.210|56=SERVER|262=1|263=2|264=1|267=1|55=EUR/USD|269=0|10=169|
20241017-07:35:21.221197000 : 8=FIX.4.4|9=105|35=3|34=9|49=SERVER|52=20241017-07:35:21.219|56=CLIENT|45=10|58=Required tag missing|371=146|372=V|373=1|10=188|
20241017-07:35:22.445599000 : 8=FIX.4.4|9=97|35=V|34=11|49=CLIENT|52=20241017-07:35:22.439|56=SERVER|262=1|263=2|264=1|267=1|55=EUR/USD|269=0|10=184|
20241017-07:35:22.469633000 : 8=FIX.4.4|9=106|35=3|34=10|49=SERVER|52=20241017-07:35:22.467|56=CLIENT|45=11|58=Required tag missing|371=146|372=V|373=1|10=236|
20241017-07:35:32.267227000 : 8=FIX.4.4|9=65|35=1|34=11|49=SERVER|52=20241017-07:35:32.265|56=CLIENT|112=TEST|10=179|
20241017-07:35:32.298243000 : 8=FIX.4.4|9=65|35=0|34=12|49=CLIENT|52=20241017-07:35:32.267|56=SERVER|112=TEST|10=181|
20241017-07:35:33.065866000 : 8=FIX.4.4|9=56|35=5|34=13|49=CLIENT|52=20241017-07:35:33.061|56=SERVER|10=162|
20241017-07:35:33.068640000 : 8=FIX.4.4|9=56|35=5|34=12|49=SERVER|52=20241017-07:35:33.066|56=CLIENT|10=166|
20241017-07:35:41.502218000 : 8=FIX.4.4|9=67|35=A|34=6|49=CLIENT|52=20241017-07:35:41.498|56=SERVER|98=0|108=15|10=171|
20241017-07:35:41.511241000 : 8=FIX.4.4|9=106|35=5|34=13|49=SERVER|52=20241017-07:35:41.502|56=CLIENT|58=MsgSeqNum too low, expecting 14 but received 6|10=156|
20241017-08:22:22.535104000 : 8=FIX.4.4|9=67|35=A|34=7|49=CLIENT|52=20241017-08:22:22.532|56=SERVER|98=0|108=15|10=157|
20241017-08:22:22.537842000 : 8=FIX.4.4|9=106|35=5|34=14|49=SERVER|52=20241017-08:22:22.535|56=CLIENT|58=MsgSeqNum too low, expecting 14 but received 7|10=160|
20241017-08:22:22.859016000 : 8=FIX.4.4|9=68|35=A|34=10|49=CLIENT|52=20241017-08:22:22.854|56=SERVER|98=0|108=15|10=207|
20241017-08:22:22.862678000 : 8=FIX.4.4|9=107|35=5|34=15|49=SERVER|52=20241017-08:22:22.859|56=CLIENT|58=MsgSeqNum too low, expecting 14 but received 10|10=213|
20241017-08:22:52.033349000 : 8=FIX.4.4|9=68|35=A|34=13|49=CLIENT|52=20241017-08:22:52.031|56=SERVER|98=0|108=15|10=200|
20241017-08:22:52.036055000 : 8=FIX.4.4|9=107|35=5|34=16|49=SERVER|52=20241017-08:22:52.033|56=CLIENT|58=MsgSeqNum too low, expecting 14 but received 13|10=204|
20241017-08:22:52.399631000 : 8=FIX.4.4|9=68|35=A|34=10|49=CLIENT|52=20241017-08:22:52.394|56=SERVER|98=0|108=15|10=209|
20241017-08:22:52.404253000 : 8=FIX.4.4|9=107|35=5|34=17|49=SERVER|52=20241017-08:22:52.400|56=CLIENT|58=MsgSeqNum too low, expecting 14 but received 10|10=200|
20241017-08:23:22.026347000 : 8=FIX.4.4|9=68|35=A|34=16|49=CLIENT|52=20241017-08:23:22.021|56=SERVER|98=0|108=15|10=200|
20241017-08:23:22.032241000 : 8=FIX.4.4|9=68|35=A|34=18|49=SERVER|52=20241017-08:23:22.027|56=CLIENT|98=0|108=15|10=208|
20241017-08:23:22.037449000 : 8=FIX.4.4|9=66|35=2|34=19|49=SERVER|52=20241017-08:23:22.033|56=CLIENT|7=14|16=0|10=080|
20241017-08:23:22.039376000 : 8=FIX.4.4|9=65|35=2|34=17|49=CLIENT|52=20241017-08:23:22.033|56=SERVER|7=5|16=0|10=029|
20241017-08:23:22.042103000 : 8=FIX.4.4|9=98|35=4|34=5|43=Y|49=SERVER|52=20241017-08:23:22.042|56=CLIENT|122=20241017-08:23:22.042|36=20|123=Y|10=161|
20241017-08:23:22.043688000 : 8=FIX.4.4|9=99|35=4|34=14|43=Y|49=CLIENT|52=20241017-08:23:22.039|56=SERVER|122=20241017-08:23:22.039|36=18|123=Y|10=229|
20241017-08:23:37.324160000 : 8=FIX.4.4|9=56|35=0|34=18|49=CLIENT|52=20241017-08:23:37.276|56=SERVER|10=172|
20241017-08:23:37.326956000 : 8=FIX.4.4|9=56|35=0|34=20|49=SERVER|52=20241017-08:23:37.325|56=CLIENT|10=160|
20241017-08:23:45.229167000 : 8=FIX.4.4|9=97|35=V|34=19|49=CLIENT|52=20241017-08:23:45.227|56=SERVER|262=1|263=1|264=1|267=1|55=EUR/USD|269=0|10=189|
20241017-08:23:45.240282000 : 8=FIX.4.4|9=106|35=3|34=21|49=SERVER|52=20241017-08:23:45.230|56=CLIENT|45=19|58=Required tag missing|371=146|372=V|373=1|10=237|
20241017-08:23:55.367383000 : 8=FIX.4.4|9=65|35=1|34=22|49=SERVER|52=20241017-08:23:55.366|56=CLIENT|112=TEST|10=186|
20241017-08:23:55.380379000 : 8=FIX.4.4|9=65|35=0|34=20|49=CLIENT|52=20241017-08:23:55.378|56=SERVER|112=TEST|10=186|
20241017-08:24:10.091500000 : 8=FIX.4.4|9=56|35=0|34=21|49=CLIENT|52=20241017-08:24:10.089|56=SERVER|10=160|
20241017-08:24:10.093166000 : 8=FIX.4.4|9=56|35=0|34=23|49=SERVER|52=20241017-08:24:10.092|56=CLIENT|10=156|
20241017-08:24:25.433905000 : 8=FIX.4.4|9=56|35=0|34=22|49=CLIENT|52=20241017-08:24:25.430|56=SERVER|10=157|
20241017-08:24:25.438182000 : 8=FIX.4.4|9=56|35=0|34=24|49=SERVER|52=20241017-08:24:25.434|56=CLIENT|10=163|
20241017-08:24:40.032773000 : 8=FIX.4.4|9=56|35=0|34=23|49=CLIENT|52=20241017-08:24:40.029|56=SERVER|10=159|
20241017-08:24:40.036386000 : 8=FIX.4.4|9=56|35=0|34=25|49=SERVER|52=20241017-08:24:40.033|56=CLIENT|10=156|
20241017-08:24:40.974081000 : 8=FIX.4.4|9=97|35=V|34=24|49=CLIENT|52=20241017-08:24:40.971|56=SERVER|262=1|263=2|264=1|267=1|55=EUR/USD|269=0|10=188|
20241017-08:24:40.986846000 : 8=FIX.4.4|9=106|35=3|34=26|49=SERVER|52=20241017-08:24:40.985|56=CLIENT|45=24|58=Required tag missing|371=146|372=V|373=1|10=251|
20241017-08:24:42.481794000 : 8=FIX.4.4|9=97|35=V|34=25|49=CLIENT|52=20241017-08:24:42.476|56=SERVER|262=1|263=2|264=1|267=1|55=EUR/USD|269=0|10=191|
20241017-08:24:42.493047000 : 8=FIX.4.4|9=106|35=3|34=27|49=SERVER|52=20241017-08:24:42.489|56=CLIENT|45=25|58=Required tag missing|371=146|372=V|373=1|10=254|
20241017-08:24:54.640470000 : 8=FIX.4.4|9=56|35=5|34=26|49=CLIENT|52=20241017-08:24:54.638|56=SERVER|10=178|
20241017-08:24:54.642511000 : 8=FIX.4.4|9=56|35=5|34=28|49=SERVER|52=20241017-08:24:54.641|56=CLIENT|10=174|
20241017-08:30:23.783222000 : 8=FIX.4.4|9=68|35=A|34=27|49=CLIENT|52=20241017-08:30:23.781|56=SERVER|98=0|108=15|10=214|
20241017-08:30:23.786542000 : 8=FIX.4.4|9=68|35=A|34=29|49=SERVER|52=20241017-08:30:23.783|56=CLIENT|98=0|108=15|10=218|
20241017-08:30:38.771673000 : 8=FIX.4.4|9=56|35=0|34=28|49=CLIENT|52=20241017-08:30:38.767|56=SERVER|10=177|
20241017-08:30:38.775048000 : 8=FIX.4.4|9=56|35=0|34=30|49=SERVER|52=20241017-08:30:38.772|56=CLIENT|10=166|
20241017-08:30:53.486403000 : 8=FIX.4.4|9=56|35=0|34=31|49=SERVER|52=20241017-08:30:53.485|56=CLIENT|10=165|
20241017-08:30:53.510855000 : 8=FIX.4.4|9=56|35=0|34=29|49=CLIENT|52=20241017-08:30:53.503|56=SERVER|10=163|
20241017-08:31:08.307539000 : 8=FIX.4.4|9=56|35=0|34=30|49=CLIENT|52=20241017-08:31:08.304|56=SERVER|10=155|
20241017-08:31:08.310615000 : 8=FIX.4.4|9=56|35=0|34=32|49=SERVER|52=20241017-08:31:08.308|56=CLIENT|10=161|
20241017-08:31:23.075033000 : 8=FIX.4.4|9=56|35=0|34=31|49=CLIENT|52=20241017-08:31:23.073|56=SERVER|10=156|
20241017-08:31:23.076620000 : 8=FIX.4.4|9=56|35=0|34=33|49=SERVER|52=20241017-08:31:23.075|56=CLIENT|10=160|
20241017-08:31:31.929100000 : 8=FIX.4.4|9=56|35=5|34=32|49=CLIENT|52=20241017-08:31:31.926|56=SERVER|10=168|
20241017-08:31:31.931199000 : 8=FIX.4.4|9=56|35=5|34=34|49=SERVER|52=20241017-08:31:31.929|56=CLIENT|10=173|
20241017-08:57:36.507782000 : 8=FIX.4.4|9=68|35=A|34=33|49=CLIENT|52=20241017-08:57:36.504|56=SERVER|98=0|108=15|10=217|
20241017-08:57:36.511902000 : 8=FIX.4.4|9=68|35=A|34=35|49=SERVER|52=20241017-08:57:36.508|56=CLIENT|98=0|108=15|10=223|
20241017-08:57:51.504149000 : 8=FIX.4.4|9=56|35=0|34=34|49=CLIENT|52=20241017-08:57:51.502|56=SERVER|10=165|
20241017-08:57:51.508736000 : 8=FIX.4.4|9=56|35=0|34=36|49=SERVER|52=20241017-08:57:51.506|56=CLIENT|10=171|
20241017-08:58:06.483584000 : 8=FIX.4.4|9=56|35=0|34=35|49=CLIENT|52=20241017-08:58:06.481|56=SERVER|10=173|
20241017-08:58:06.485706000 : 8=FIX.4.4|9=56|35=0|34=37|49=SERVER|52=20241017-08:58:06.483|56=CLIENT|10=177|
20241017-08:58:21.481976000 : 8=FIX.4.4|9=56|35=0|34=38|49=SERVER|52=20241017-08:58:21.368|56=CLIENT|10=177|
20241017-08:58:21.483485000 : 8=FIX.4.4|9=56|35=0|34=36|49=CLIENT|52=20241017-08:58:21.442|56=SERVER|10=168|
20241017-08:58:29.486958000 : 8=FIX.4.4|9=56|35=5|34=37|49=CLIENT|52=20241017-08:58:29.485|56=SERVER|10=189|
20241017-08:58:29.487875000 : 8=FIX.4.4|9=56|35=5|34=39|49=SERVER|52=20241017-08:58:29.487|56=CLIENT|10=193|
20241017-10:04:51.400934000 : 8=FIX.4.4|9=68|35=A|34=38|49=CLIENT|52=20241017-10:04:51.398|56=SERVER|98=0|108=25|10=216|
20241017-10:04:51.407067000 : 8=FIX.4.4|9=68|35=A|34=40|49=SERVER|52=20241017-10:04:51.401|56=CLIENT|98=0|108=25|10=194|
20241017-10:05:16.414492000 : 8=FIX.4.4|9=56|35=0|34=39|49=CLIENT|52=20241017-10:05:16.372|56=SERVER|10=162|
20241017-10:05:16.463472000 : 8=FIX.4.4|9=56|35=0|34=41|49=SERVER|52=20241017-10:05:16.460|56=CLIENT|10=153|
20241017-10:05:41.268130000 : 8=FIX.4.4|9=56|35=0|34=42|49=SERVER|52=20241017-10:05:41.267|56=CLIENT|10=157|
20241017-10:05:41.269579000 : 8=FIX.4.4|9=56|35=0|34=40|49=CLIENT|52=20241017-10:05:41.268|56=SERVER|10=156|
20241017-10:05:49.222385000 : 8=FIX.4.4|9=56|35=5|34=41|49=CLIENT|52=20241017-10:05:49.219|56=SERVER|10=166|
20241017-10:05:49.224737000 : 8=FIX.4.4|9=56|35=5|34=43|49=SERVER|52=20241017-10:05:49.223|56=CLIENT|10=163|
20241017-10:05:51.630425000 : 8=FIX.4.4|9=68|35=A|34=41|49=CLIENT|52=20241017-10:05:51.628|56=SERVER|98=0|108=25|10=207|
20241017-10:05:51.631548000 : 8=FIX.4.4|9=107|35=5|34=44|49=SERVER|52=20241017-10:05:51.630|56=CLIENT|58=MsgSeqNum too low, expecting 42 but received 41|10=203|
