20241008-08:08:32.979385000 : 8=FIX.4.4|9=79|35=A|34=1|49=CLIENT|52=20241008-08:08:32.953|56=MARKET_MAKER|98=0|108=90|141=Y|10=146|
20241008-08:08:33.009907000 : 8=FIX.4.4|9=79|35=A|34=1|49=MARKET_MAKER|52=20241008-08:08:33.007|56=CLIENT|98=0|108=90|141=Y|10=137|
20241008-08:09:41.385443000 : 8=FIX.4.4|9=79|35=A|34=1|49=CLIENT|52=20241008-08:09:41.361|56=MARKET_MAKER|98=0|108=90|141=Y|10=140|
20241008-08:09:41.476186000 : 8=FIX.4.4|9=79|35=A|34=1|49=MARKET_MAKER|52=20241008-08:09:41.473|56=CLIENT|98=0|108=90|141=Y|10=144|
20241008-08:14:06.928562000 : 8=FIX.4.4|9=79|35=A|34=1|49=CLIENT|52=20241008-08:14:06.875|56=MARKET_MAKER|98=0|108=90|141=Y|10=147|
20241008-08:14:06.951352000 : 8=FIX.4.4|9=79|35=A|34=1|49=MARKET_MAKER|52=20241008-08:14:06.949|56=CLIENT|98=0|108=90|141=Y|10=149|
20241008-08:15:44.828717000 : 8=FIX.4.4|9=79|35=A|34=1|49=CLIENT|52=20241008-08:15:44.809|56=MARKET_MAKER|98=0|108=90|141=Y|10=147|
20241008-08:15:44.853901000 : 8=FIX.4.4|9=79|35=A|34=1|49=MARKET_MAKER|52=20241008-08:15:44.852|56=CLIENT|98=0|108=90|141=Y|10=145|
20241008-08:45:53.671322000 : 8=FIX.4.4|9=79|35=A|34=1|49=CLIENT|52=20241008-08:45:53.645|56=MARKET_MAKER|98=0|108=90|141=Y|10=148|
20241008-08:45:53.704250000 : 8=FIX.4.4|9=79|35=A|34=1|49=MARKET_MAKER|52=20241008-08:45:53.701|56=CLIENT|98=0|108=90|141=Y|10=141|
20241008-08:46:03.682865000 : 8=FIX.4.4|9=61|35=5|34=2|49=CLIENT|52=20241008-08:46:03.679|56=MARKET_MAKER|10=055|
20241008-08:46:03.685396000 : 8=FIX.4.4|9=61|35=5|34=2|49=MARKET_MAKER|52=20241008-08:46:03.683|56=CLIENT|10=050|
20241008-08:56:58.896155000 : 8=FIX.4.4|9=79|35=A|34=1|49=CLIENT|52=20241008-08:56:58.869|56=MARKET_MAKER|98=0|108=90|141=Y|10=163|
20241008-08:56:58.924831000 : 8=FIX.4.4|9=79|35=A|34=1|49=MARKET_MAKER|52=20241008-08:56:58.923|56=CLIENT|98=0|108=90|141=Y|10=154|
20241008-08:57:15.310147000 : 8=FIX.4.4|9=79|35=A|34=1|49=CLIENT|52=20241008-08:57:15.259|56=MARKET_MAKER|98=0|108=90|141=Y|10=150|
20241008-08:57:15.356629000 : 8=FIX.4.4|9=79|35=A|34=1|49=MARKET_MAKER|52=20241008-08:57:15.354|56=CLIENT|98=0|108=90|141=Y|10=146|
20241008-08:58:35.319060000 : 8=FIX.4.4|9=79|35=A|34=1|49=CLIENT|52=20241008-08:58:35.286|56=MARKET_MAKER|98=0|108=90|141=Y|10=153|
20241008-08:58:35.341127000 : 8=FIX.4.4|9=79|35=A|34=1|49=MARKET_MAKER|52=20241008-08:58:35.338|56=CLIENT|98=0|108=90|141=Y|10=151|
20241008-08:59:05.428338000 : 8=FIX.4.4|9=79|35=A|34=1|49=CLIENT|52=20241008-08:59:05.398|56=MARKET_MAKER|98=0|108=90|141=Y|10=155|
20241008-08:59:05.447771000 : 8=FIX.4.4|9=79|35=A|34=1|49=MARKET_MAKER|52=20241008-08:59:05.446|56=CLIENT|98=0|108=90|141=Y|10=149|
20241008-09:00:30.236550000 : 8=FIX.4.4|9=79|35=A|34=1|49=CLIENT|52=20241008-09:00:30.221|56=MARKET_MAKER|98=0|108=90|141=Y|10=125|
20241008-09:00:30.270941000 : 8=FIX.4.4|9=79|35=A|34=1|49=MARKET_MAKER|52=20241008-09:00:30.268|56=CLIENT|98=0|108=90|141=Y|10=136|
20241008-09:00:44.310138000 : 8=FIX.4.4|9=79|35=A|34=1|49=CLIENT|52=20241008-09:00:44.265|56=MARKET_MAKER|98=0|108=90|141=Y|10=138|
20241008-09:00:44.361225000 : 8=FIX.4.4|9=79|35=A|34=1|49=MARKET_MAKER|52=20241008-09:00:44.358|56=CLIENT|98=0|108=90|141=Y|10=141|
20241008-09:08:13.171496000 : 8=FIX.4.4|9=79|35=A|34=1|49=CLIENT|52=20241008-09:08:13.099|56=MARKET_MAKER|98=0|108=90|141=Y|10=147|
20241008-09:08:13.200793000 : 8=FIX.4.4|9=79|35=A|34=1|49=MARKET_MAKER|52=20241008-09:08:13.198|56=CLIENT|98=0|108=90|141=Y|10=147|
20241008-09:14:33.801410000 : 8=FIX.4.4|9=79|35=A|34=1|49=CLIENT|52=20241008-09:14:33.722|56=MARKET_MAKER|98=0|108=90|141=Y|10=139|
20241008-09:14:33.823925000 : 8=FIX.4.4|9=79|35=A|34=1|49=MARKET_MAKER|52=20241008-09:14:33.822|56=CLIENT|98=0|108=90|141=Y|10=140|
20241008-09:15:11.001179000 : 8=FIX.4.4|9=79|35=A|34=1|49=CLIENT|52=20241008-09:15:10.974|56=MARKET_MAKER|98=0|108=90|141=Y|10=144|
20241008-09:15:11.031509000 : 8=FIX.4.4|9=79|35=A|34=1|49=MARKET_MAKER|52=20241008-09:15:11.029|56=CLIENT|98=0|108=90|141=Y|10=136|
20241008-09:15:59.735920000 : 8=FIX.4.4|9=79|35=A|34=1|49=CLIENT|52=20241008-09:15:59.706|56=MARKET_MAKER|98=0|108=90|141=Y|10=150|
20241008-09:15:59.760724000 : 8=FIX.4.4|9=79|35=A|34=1|49=MARKET_MAKER|52=20241008-09:15:59.759|56=CLIENT|98=0|108=90|141=Y|10=158|
20241008-09:16:35.725058000 : 8=FIX.4.4|9=79|35=A|34=1|49=CLIENT|52=20241008-09:16:35.677|56=MARKET_MAKER|98=0|108=90|141=Y|10=152|
20241008-09:16:35.782308000 : 8=FIX.4.4|9=79|35=A|34=1|49=MARKET_MAKER|52=20241008-09:16:35.778|56=CLIENT|98=0|108=90|141=Y|10=154|
20241008-09:17:08.382634000 : 8=FIX.4.4|9=79|35=A|34=1|49=CLIENT|52=20241008-09:17:08.357|56=MARKET_MAKER|98=0|108=90|141=Y|10=148|
20241008-09:17:08.404496000 : 8=FIX.4.4|9=79|35=A|34=1|49=MARKET_MAKER|52=20241008-09:17:08.403|56=CLIENT|98=0|108=90|141=Y|10=140|
20241008-09:21:39.087801000 : 8=FIX.4.4|9=79|35=A|34=1|49=CLIENT|52=20241008-09:21:39.061|56=MARKET_MAKER|98=0|108=90|141=Y|10=139|
20241008-09:21:39.109089000 : 8=FIX.4.4|9=79|35=A|34=1|49=MARKET_MAKER|52=20241008-09:21:39.108|56=CLIENT|98=0|108=90|141=Y|10=141|
20241008-09:22:31.121351000 : 8=FIX.4.4|9=79|35=A|34=1|49=CLIENT|52=20241008-09:22:31.100|56=MARKET_MAKER|98=0|108=90|141=Y|10=126|
20241008-09:22:31.142955000 : 8=FIX.4.4|9=79|35=A|34=1|49=MARKET_MAKER|52=20241008-09:22:31.141|56=CLIENT|98=0|108=90|141=Y|10=131|
20241008-09:23:37.265871000 : 8=FIX.4.4|9=79|35=A|34=1|49=CLIENT|52=20241008-09:23:37.216|56=MARKET_MAKER|98=0|108=90|141=Y|10=141|
20241008-09:23:37.287540000 : 8=FIX.4.4|9=79|35=A|34=1|49=MARKET_MAKER|52=20241008-09:23:37.286|56=CLIENT|98=0|108=90|141=Y|10=148|
20241008-09:25:37.731521000 : 8=FIX.4.4|9=79|35=A|34=1|49=CLIENT|52=20241008-09:25:37.694|56=MARKET_MAKER|98=0|108=90|141=Y|10=153|
20241008-09:25:37.763581000 : 8=FIX.4.4|9=79|35=A|34=1|49=MARKET_MAKER|52=20241008-09:25:37.761|56=CLIENT|98=0|108=90|141=Y|10=148|
20241008-09:26:33.500581000 : 8=FIX.4.4|9=79|35=A|34=1|49=CLIENT|52=20241008-09:26:33.458|56=MARKET_MAKER|98=0|108=90|141=Y|10=148|
20241008-09:26:33.535996000 : 8=FIX.4.4|9=79|35=A|34=1|49=MARKET_MAKER|52=20241008-09:26:33.532|56=CLIENT|98=0|108=90|141=Y|10=141|
20241008-09:28:12.329688000 : 8=FIX.4.4|9=79|35=A|34=1|49=CLIENT|52=20241008-09:28:12.303|56=MARKET_MAKER|98=0|108=90|141=Y|10=136|
20241008-09:28:12.353094000 : 8=FIX.4.4|9=79|35=A|34=1|49=MARKET_MAKER|52=20241008-09:28:12.351|56=CLIENT|98=0|108=90|141=Y|10=139|
20241008-09:29:12.720684000 : 8=FIX.4.4|9=79|35=A|34=1|49=CLIENT|52=20241008-09:29:12.688|56=MARKET_MAKER|98=0|108=90|141=Y|10=153|
20241008-09:29:12.751041000 : 8=FIX.4.4|9=79|35=A|34=1|49=MARKET_MAKER|52=20241008-09:29:12.749|56=CLIENT|98=0|108=90|141=Y|10=151|
20241008-09:29:13.757033000 : 8=FIX.4.4|9=61|35=5|34=2|49=CLIENT|52=20241008-09:29:13.752|56=MARKET_MAKER|10=050|
20241008-09:29:13.763298000 : 8=FIX.4.4|9=61|35=5|34=2|49=MARKET_MAKER|52=20241008-09:29:13.758|56=CLIENT|10=056|
20241008-09:31:08.979436000 : 8=FIX.4.4|9=79|35=A|34=1|49=CLIENT|52=20241008-09:31:08.934|56=MARKET_MAKER|98=0|108=90|141=Y|10=145|
20241008-09:31:09.024161000 : 8=FIX.4.4|9=79|35=A|34=1|49=MARKET_MAKER|52=20241008-09:31:09.021|56=CLIENT|98=0|108=90|141=Y|10=133|
20241008-09:31:12.022381000 : 8=FIX.4.4|9=61|35=5|34=2|49=CLIENT|52=20241008-09:31:12.017|56=MARKET_MAKER|10=036|
20241008-09:31:12.029900000 : 8=FIX.4.4|9=61|35=5|34=2|49=MARKET_MAKER|52=20241008-09:31:12.023|56=CLIENT|10=033|
20241008-13:37:57.773793000 : 8=FIX.4.4|9=79|35=A|34=1|49=CLIENT|52=20241008-13:37:57.725|56=MARKET_MAKER|98=0|108=90|141=Y|10=148|
20241008-13:37:57.832293000 : 8=FIX.4.4|9=79|35=A|34=1|49=MARKET_MAKER|52=20241008-13:37:57.829|56=CLIENT|98=0|108=90|141=Y|10=153|
20241008-13:38:00.826844000 : 8=FIX.4.4|9=61|35=5|34=2|49=CLIENT|52=20241008-13:38:00.823|56=MARKET_MAKER|10=040|
20241008-13:38:00.829802000 : 8=FIX.4.4|9=61|35=5|34=2|49=MARKET_MAKER|52=20241008-13:38:00.827|56=CLIENT|10=044|
20241008-13:39:39.478986000 : 8=FIX.4.4|9=79|35=A|34=1|49=CLIENT|52=20241008-13:39:39.432|56=MARKET_MAKER|98=0|108=90|141=Y|10=145|
20241008-13:39:39.506565000 : 8=FIX.4.4|9=79|35=A|34=1|49=MARKET_MAKER|52=20241008-13:39:39.504|56=CLIENT|98=0|108=90|141=Y|10=145|
20241008-13:39:42.527742000 : 8=FIX.4.4|9=61|35=5|34=2|49=CLIENT|52=20241008-13:39:42.501|56=MARKET_MAKER|10=040|
20241008-13:39:42.537271000 : 8=FIX.4.4|9=61|35=5|34=2|49=MARKET_MAKER|52=20241008-13:39:42.529|56=CLIENT|10=050|
20241008-13:42:02.991073000 : 8=FIX.4.4|9=79|35=A|34=1|49=CLIENT|52=20241008-13:42:02.937|56=MARKET_MAKER|98=0|108=90|141=Y|10=139|
20241008-13:42:03.026970000 : 8=FIX.4.4|9=79|35=A|34=1|49=MARKET_MAKER|52=20241008-13:42:03.025|56=CLIENT|98=0|108=90|141=Y|10=128|
20241008-13:42:05.926236000 : 8=FIX.4.4|9=126|35=D|34=2|49=CLIENT|52=20241008-13:42:05.919|56=MARKET_MAKER|11=12345|38=100|40=||44=150|54=||55=USD/BRL|60=20241008-13:42:05|10=119|
20241008-13:43:33.204006000 : 8=FIX.4.4|9=61|35=0|34=2|49=MARKET_MAKER|52=20241008-13:43:33.199|56=CLIENT|10=043|
20241008-13:43:35.131725000 : 8=FIX.4.4|9=61|35=0|34=3|49=CLIENT|52=20241008-13:43:35.126|56=MARKET_MAKER|10=036|
20241008-13:43:35.141139000 : 8=FIX.4.4|9=70|35=2|34=3|49=MARKET_MAKER|52=20241008-13:43:35.133|56=CLIENT|7=2|16=0|10=160|
20241008-13:43:51.527331000 : 8=FIX.4.4|9=70|35=1|34=4|49=MARKET_MAKER|52=20241008-13:43:51.526|56=CLIENT|112=TEST|10=058|
20241008-13:43:51.529123000 : 8=FIX.4.4|9=70|35=2|34=4|49=CLIENT|52=20241008-13:43:51.527|56=MARKET_MAKER|7=3|16=0|10=167|
20241008-13:43:51.529962000 : 8=FIX.4.4|9=103|35=4|34=3|43=Y|49=MARKET_MAKER|52=20241008-13:43:51.529|56=CLIENT|122=20241008-13:43:51.529|36=5|123=Y|10=101|
20241008-13:45:21.413214000 : 8=FIX.4.4|9=61|35=0|34=5|49=CLIENT|52=20241008-13:45:21.410|56=MARKET_MAKER|10=031|
20241008-13:45:21.417560000 : 8=FIX.4.4|9=61|35=0|34=5|49=MARKET_MAKER|52=20241008-13:45:21.414|56=CLIENT|10=035|
20241008-13:45:39.520172000 : 8=FIX.4.4|9=70|35=1|34=6|49=MARKET_MAKER|52=20241008-13:45:39.518|56=CLIENT|112=TEST|10=069|
20241008-13:45:39.521833000 : 8=FIX.4.4|9=70|35=0|34=6|49=CLIENT|52=20241008-13:45:39.520|56=MARKET_MAKER|112=TEST|10=061|
20241008-13:47:09.336886000 : 8=FIX.4.4|9=61|35=0|34=7|49=CLIENT|52=20241008-13:47:09.313|56=MARKET_MAKER|10=043|
20241008-13:48:02.762185000 : 8=FIX.4.4|9=79|35=A|34=1|49=CLIENT|52=20241008-13:48:02.749|56=MARKET_MAKER|98=0|108=90|141=Y|10=146|
20241008-13:48:02.773716000 : 8=FIX.4.4|9=79|35=A|34=1|49=MARKET_MAKER|52=20241008-13:48:02.772|56=CLIENT|98=0|108=90|141=Y|10=142|
20241008-13:49:32.187354000 : 8=FIX.4.4|9=61|35=0|34=2|49=CLIENT|52=20241008-13:49:32.156|56=MARKET_MAKER|10=041|
20241008-13:49:32.189768000 : 8=FIX.4.4|9=61|35=0|34=2|49=MARKET_MAKER|52=20241008-13:49:32.188|56=CLIENT|10=046|
20241008-13:51:02.257036000 : 8=FIX.4.4|9=61|35=0|34=3|49=MARKET_MAKER|52=20241008-13:51:02.254|56=CLIENT|10=031|
20241008-13:51:02.263285000 : 8=FIX.4.4|9=61|35=0|34=3|49=CLIENT|52=20241008-13:51:02.258|56=MARKET_MAKER|10=035|
20241008-13:51:14.274390000 : 8=FIX.4.4|9=61|35=5|34=4|49=MARKET_MAKER|52=20241008-13:51:14.270|56=CLIENT|10=038|
20241008-13:51:14.285744000 : 8=FIX.4.4|9=61|35=5|34=4|49=CLIENT|52=20241008-13:51:14.278|56=MARKET_MAKER|10=046|
20241008-13:51:52.150472000 : 8=FIX.4.4|9=79|35=A|34=1|49=CLIENT|52=20241008-13:51:52.119|56=MARKET_MAKER|98=0|108=90|141=Y|10=136|
20241008-13:51:52.183250000 : 8=FIX.4.4|9=79|35=A|34=1|49=MARKET_MAKER|52=20241008-13:51:52.181|56=CLIENT|98=0|108=90|141=Y|10=135|
20241008-13:51:55.098807000 : 8=FIX.4.4|9=126|35=D|34=2|49=CLIENT|52=20241008-13:51:55.095|56=MARKET_MAKER|11=12345|38=100|40=2|44=150|54=||55=USD/BRL|60=20241008-13:51:55|10=173|
20241008-13:53:22.581073000 : 8=FIX.4.4|9=61|35=0|34=2|49=MARKET_MAKER|52=20241008-13:53:22.575|56=CLIENT|10=040|
20241008-13:53:25.549337000 : 8=FIX.4.4|9=61|35=0|34=3|49=CLIENT|52=20241008-13:53:25.542|56=MARKET_MAKER|10=038|
20241008-13:53:25.559380000 : 8=FIX.4.4|9=70|35=2|34=3|49=MARKET_MAKER|52=20241008-13:53:25.550|56=CLIENT|7=2|16=0|10=163|
20241008-13:53:40.367377000 : 8=FIX.4.4|9=70|35=1|34=4|49=MARKET_MAKER|52=20241008-13:53:40.365|56=CLIENT|112=TEST|10=058|
20241008-13:53:40.369408000 : 8=FIX.4.4|9=70|35=2|34=4|49=CLIENT|52=20241008-13:53:40.368|56=MARKET_MAKER|7=3|16=0|10=169|
20241008-13:53:40.370313000 : 8=FIX.4.4|9=103|35=4|34=3|43=Y|49=MARKET_MAKER|52=20241008-13:53:40.370|56=CLIENT|122=20241008-13:53:40.370|36=5|123=Y|10=087|
20241008-13:54:39.376718000 : 8=FIX.4.4|9=61|35=5|34=5|49=MARKET_MAKER|52=20241008-13:54:39.374|56=CLIENT|10=054|
20241008-13:54:39.379365000 : 8=FIX.4.4|9=61|35=5|34=5|49=CLIENT|52=20241008-13:54:39.377|56=MARKET_MAKER|10=057|
20241008-13:55:09.676809000 : 8=FIX.4.4|9=79|35=A|34=1|49=CLIENT|52=20241008-13:55:09.662|56=MARKET_MAKER|98=0|108=90|141=Y|10=145|
20241008-13:55:09.693968000 : 8=FIX.4.4|9=79|35=A|34=1|49=MARKET_MAKER|52=20241008-13:55:09.692|56=CLIENT|98=0|108=90|141=Y|10=148|
20241008-13:55:12.643063000 : 8=FIX.4.4|9=126|35=D|34=2|49=CLIENT|52=20241008-13:55:12.629|56=MARKET_MAKER|11=12345|38=100|40=2|44=150|54=||55=USD/BRL|60=20241008-13:55:12|10=170|
20241008-13:56:39.230917000 : 8=FIX.4.4|9=61|35=0|34=2|49=MARKET_MAKER|52=20241008-13:56:39.229|56=CLIENT|10=047|
20241008-13:56:42.138583000 : 8=FIX.4.4|9=61|35=0|34=3|49=CLIENT|52=20241008-13:56:42.136|56=MARKET_MAKER|10=039|
20241008-13:56:42.139804000 : 8=FIX.4.4|9=70|35=2|34=3|49=MARKET_MAKER|52=20241008-13:56:42.138|56=CLIENT|7=2|16=0|10=167|
20241008-13:56:57.003563000 : 8=FIX.4.4|9=70|35=1|34=4|49=MARKET_MAKER|52=20241008-13:56:57.001|56=CLIENT|112=TEST|10=056|
20241008-13:56:57.008929000 : 8=FIX.4.4|9=70|35=2|34=4|49=CLIENT|52=20241008-13:56:57.006|56=MARKET_MAKER|7=3|16=0|10=169|
20241008-13:56:57.010417000 : 8=FIX.4.4|9=103|35=4|34=3|43=Y|49=MARKET_MAKER|52=20241008-13:56:57.010|56=CLIENT|122=20241008-13:56:57.010|36=5|123=Y|10=091|
20241008-13:57:10.864207000 : 8=FIX.4.4|9=61|35=5|34=5|49=MARKET_MAKER|52=20241008-13:57:10.859|56=CLIENT|10=054|
20241008-13:57:10.883556000 : 8=FIX.4.4|9=61|35=5|34=5|49=CLIENT|52=20241008-13:57:10.872|56=MARKET_MAKER|10=049|
20241008-13:57:26.905778000 : 8=FIX.4.4|9=79|35=A|34=1|49=CLIENT|52=20241008-13:57:26.854|56=MARKET_MAKER|98=0|108=90|141=Y|10=149|
20241008-13:57:26.955285000 : 8=FIX.4.4|9=79|35=A|34=1|49=MARKET_MAKER|52=20241008-13:57:26.952|56=CLIENT|98=0|108=90|141=Y|10=148|
20241008-13:57:29.820442000 : 8=FIX.4.4|9=126|35=D|34=2|49=CLIENT|52=20241008-13:57:29.816|56=MARKET_MAKER|11=12345|38=100|40=||44=150|54=||55=USD/BRL|60=20241008-13:57:29|10=139|
20241008-13:58:56.372815000 : 8=FIX.4.4|9=61|35=0|34=2|49=MARKET_MAKER|52=20241008-13:58:56.371|56=CLIENT|10=046|
20241008-13:58:59.342955000 : 8=FIX.4.4|9=61|35=0|34=3|49=CLIENT|52=20241008-13:58:59.337|56=MARKET_MAKER|10=052|
20241008-13:58:59.348011000 : 8=FIX.4.4|9=70|35=2|34=3|49=MARKET_MAKER|52=20241008-13:58:59.343|56=CLIENT|7=2|16=0|10=175|
20241008-13:59:14.810083000 : 8=FIX.4.4|9=70|35=1|34=4|49=MARKET_MAKER|52=20241008-13:59:14.803|56=CLIENT|112=TEST|10=062|
20241008-13:59:14.826672000 : 8=FIX.4.4|9=70|35=2|34=4|49=CLIENT|52=20241008-13:59:14.812|56=MARKET_MAKER|7=3|16=0|10=170|
20241008-13:59:14.828508000 : 8=FIX.4.4|9=103|35=4|34=3|43=Y|49=MARKET_MAKER|52=20241008-13:59:14.828|56=CLIENT|122=20241008-13:59:14.828|36=5|123=Y|10=117|
20241008-13:59:32.173366000 : 8=FIX.4.4|9=61|35=5|34=5|49=MARKET_MAKER|52=20241008-13:59:32.171|56=CLIENT|10=047|
20241008-13:59:32.181658000 : 8=FIX.4.4|9=61|35=5|34=5|49=CLIENT|52=20241008-13:59:32.174|56=MARKET_MAKER|10=050|
20241008-14:14:21.598450000 : 8=FIX.4.4|9=79|35=A|34=1|49=CLIENT|52=20241008-14:14:21.556|56=MARKET_MAKER|98=0|108=90|141=Y|10=137|
20241008-14:14:21.641555000 : 8=FIX.4.4|9=79|35=A|34=1|49=MARKET_MAKER|52=20241008-14:14:21.638|56=CLIENT|98=0|108=90|141=Y|10=138|
20241008-14:14:24.515384000 : 8=FIX.4.4|9=126|35=D|34=2|49=CLIENT|52=20241008-14:14:24.512|56=MARKET_MAKER|11=12345|38=100|40=||44=150|54=||55=USD/BRL|60=20241008-14:14:24|10=110|
20241008-14:15:51.846061000 : 8=FIX.4.4|9=61|35=0|34=2|49=MARKET_MAKER|52=20241008-14:15:51.839|56=CLIENT|10=044|
20241008-14:15:54.811191000 : 8=FIX.4.4|9=61|35=0|34=3|49=CLIENT|52=20241008-14:15:54.803|56=MARKET_MAKER|10=039|
20241008-14:15:54.822099000 : 8=FIX.4.4|9=70|35=2|34=3|49=MARKET_MAKER|52=20241008-14:15:54.811|56=CLIENT|7=2|16=0|10=164|
20241008-14:16:09.617965000 : 8=FIX.4.4|9=70|35=1|34=4|49=MARKET_MAKER|52=20241008-14:16:09.616|56=CLIENT|112=TEST|10=062|
20241008-14:16:09.620259000 : 8=FIX.4.4|9=70|35=2|34=4|49=CLIENT|52=20241008-14:16:09.618|56=MARKET_MAKER|7=3|16=0|10=172|
20241008-14:16:09.621151000 : 8=FIX.4.4|9=103|35=4|34=3|43=Y|49=MARKET_MAKER|52=20241008-14:16:09.620|56=CLIENT|122=20241008-14:16:09.620|36=5|123=Y|10=093|
20241008-14:17:39.711271000 : 8=FIX.4.4|9=61|35=0|34=5|49=CLIENT|52=20241008-14:17:39.706|56=MARKET_MAKER|10=048|
20241008-14:17:39.717444000 : 8=FIX.4.4|9=61|35=0|34=5|49=MARKET_MAKER|52=20241008-14:17:39.713|56=CLIENT|10=046|
20241008-14:17:57.393762000 : 8=FIX.4.4|9=70|35=1|34=6|49=MARKET_MAKER|52=20241008-14:17:57.308|56=CLIENT|112=TEST|10=066|
20241008-14:17:57.405525000 : 8=FIX.4.4|9=70|35=0|34=6|49=CLIENT|52=20241008-14:17:57.394|56=MARKET_MAKER|112=TEST|10=070|
20241008-14:18:46.085713000 : 8=FIX.4.4|9=61|35=5|34=7|49=MARKET_MAKER|52=20241008-14:18:46.080|56=CLIENT|10=049|
20241008-14:18:46.091738000 : 8=FIX.4.4|9=61|35=5|34=7|49=CLIENT|52=20241008-14:18:46.087|56=MARKET_MAKER|10=056|
20241008-14:19:00.806182000 : 8=FIX.4.4|9=79|35=A|34=1|49=CLIENT|52=20241008-14:19:00.766|56=MARKET_MAKER|98=0|108=90|141=Y|10=142|
20241008-14:19:00.831169000 : 8=FIX.4.4|9=79|35=A|34=1|49=MARKET_MAKER|52=20241008-14:19:00.829|56=CLIENT|98=0|108=90|141=Y|10=142|
20241008-14:19:03.740777000 : 8=FIX.4.4|9=126|35=D|34=2|49=CLIENT|52=20241008-14:19:03.734|56=MARKET_MAKER|11=12345|38=100|40=||44=150|54=||55=USD/BRL|60=20241008-14:19:03|10=120|
20241008-14:20:30.339156000 : 8=FIX.4.4|9=61|35=0|34=2|49=MARKET_MAKER|52=20241008-14:20:30.335|56=CLIENT|10=028|
20241008-14:20:33.324224000 : 8=FIX.4.4|9=61|35=0|34=3|49=CLIENT|52=20241008-14:20:33.292|56=MARKET_MAKER|10=034|
20241008-14:20:33.326461000 : 8=FIX.4.4|9=70|35=2|34=3|49=MARKET_MAKER|52=20241008-14:20:33.324|56=CLIENT|7=2|16=0|10=156|
20241008-14:20:48.164315000 : 8=FIX.4.4|9=70|35=1|34=4|49=MARKET_MAKER|52=20241008-14:20:48.159|56=CLIENT|112=TEST|10=062|
20241008-14:20:48.169670000 : 8=FIX.4.4|9=70|35=2|34=4|49=CLIENT|52=20241008-14:20:48.166|56=MARKET_MAKER|7=3|16=0|10=168|
20241008-14:20:48.170716000 : 8=FIX.4.4|9=103|35=4|34=3|43=Y|49=MARKET_MAKER|52=20241008-14:20:48.170|56=CLIENT|122=20241008-14:20:48.170|36=5|123=Y|10=089|
20241008-14:21:57.127184000 : 8=FIX.4.4|9=61|35=5|34=5|49=MARKET_MAKER|52=20241008-14:21:57.124|56=CLIENT|10=042|
20241008-14:21:57.130461000 : 8=FIX.4.4|9=61|35=5|34=5|49=CLIENT|52=20241008-14:21:57.128|56=MARKET_MAKER|10=046|
20241008-14:22:15.145632000 : 8=FIX.4.4|9=79|35=A|34=1|49=CLIENT|52=20241008-14:22:15.097|56=MARKET_MAKER|98=0|108=90|141=Y|10=139|
20241008-14:22:15.190102000 : 8=FIX.4.4|9=79|35=A|34=1|49=MARKET_MAKER|52=20241008-14:22:15.186|56=CLIENT|98=0|108=90|141=Y|10=138|
20241008-14:22:18.087661000 : 8=FIX.4.4|9=126|35=D|34=2|49=CLIENT|52=20241008-14:22:18.076|56=MARKET_MAKER|11=12345|38=100|40=||44=150|54=||55=USD/BRL|60=20241008-14:22:18|10=119|
20241008-14:23:45.594621000 : 8=FIX.4.4|9=61|35=0|34=2|49=MARKET_MAKER|52=20241008-14:23:45.590|56=CLIENT|10=040|
20241008-14:23:48.553301000 : 8=FIX.4.4|9=61|35=0|34=3|49=CLIENT|52=20241008-14:23:48.528|56=MARKET_MAKER|10=045|
20241008-14:23:48.556502000 : 8=FIX.4.4|9=70|35=2|34=3|49=MARKET_MAKER|52=20241008-14:23:48.554|56=CLIENT|7=2|16=0|10=170|
20241008-14:24:03.397860000 : 8=FIX.4.4|9=70|35=1|34=4|49=MARKET_MAKER|52=20241008-14:24:03.395|56=CLIENT|112=TEST|10=059|
20241008-14:24:03.425971000 : 8=FIX.4.4|9=70|35=2|34=4|49=CLIENT|52=20241008-14:24:03.399|56=MARKET_MAKER|7=3|16=0|10=171|
20241008-14:24:03.437936000 : 8=FIX.4.4|9=103|35=4|34=3|43=Y|49=MARKET_MAKER|52=20241008-14:24:03.437|56=CLIENT|122=20241008-14:24:03.437|36=5|123=Y|10=091|
20241008-14:25:33.637747000 : 8=FIX.4.4|9=61|35=0|34=5|49=CLIENT|52=20241008-14:25:33.630|56=MARKET_MAKER|10=037|
20241008-14:25:33.646924000 : 8=FIX.4.4|9=61|35=0|34=5|49=MARKET_MAKER|52=20241008-14:25:33.639|56=CLIENT|10=046|
20241008-14:25:51.274372000 : 8=FIX.4.4|9=70|35=1|34=6|49=MARKET_MAKER|52=20241008-14:25:51.271|56=CLIENT|112=TEST|10=058|
20241008-14:25:51.279143000 : 8=FIX.4.4|9=70|35=0|34=6|49=CLIENT|52=20241008-14:25:51.275|56=MARKET_MAKER|112=TEST|10=061|
20241008-14:27:02.514472000 : 8=FIX.4.4|9=61|35=5|34=7|49=MARKET_MAKER|52=20241008-14:27:02.508|56=CLIENT|10=046|
20241008-14:27:02.535165000 : 8=FIX.4.4|9=61|35=5|34=7|49=CLIENT|52=20241008-14:27:02.517|56=MARKET_MAKER|10=046|
20241008-14:32:07.982663000 : 8=FIX.4.4|9=79|35=A|34=1|49=CLIENT|52=20241008-14:32:07.926|56=MARKET_MAKER|98=0|108=90|141=Y|10=142|
20241008-14:32:08.009390000 : 8=FIX.4.4|9=79|35=A|34=1|49=MARKET_MAKER|52=20241008-14:32:08.007|56=CLIENT|98=0|108=90|141=Y|10=133|
20241008-14:33:24.811825000 : 8=FIX.4.4|9=79|35=A|34=1|49=CLIENT|52=20241008-14:33:24.766|56=MARKET_MAKER|98=0|108=90|141=Y|10=144|
20241008-14:33:24.842089000 : 8=FIX.4.4|9=79|35=A|34=1|49=MARKET_MAKER|52=20241008-14:33:24.840|56=CLIENT|98=0|108=90|141=Y|10=137|
20241008-14:34:28.525847000 : 8=FIX.4.4|9=79|35=A|34=1|49=CLIENT|52=20241008-14:34:28.489|56=MARKET_MAKER|98=0|108=90|141=Y|10=151|
20241008-14:34:28.560671000 : 8=FIX.4.4|9=79|35=A|34=1|49=MARKET_MAKER|52=20241008-14:34:28.559|56=CLIENT|98=0|108=90|141=Y|10=149|
20241008-14:35:30.572659000 : 8=FIX.4.4|9=79|35=A|34=1|49=CLIENT|52=20241008-14:35:30.500|56=MARKET_MAKER|98=0|108=90|141=Y|10=129|
20241008-14:35:30.613923000 : 8=FIX.4.4|9=79|35=A|34=1|49=MARKET_MAKER|52=20241008-14:35:30.611|56=CLIENT|98=0|108=90|141=Y|10=132|
20241008-14:37:31.780294000 : 8=FIX.4.4|9=79|35=A|34=1|49=CLIENT|52=20241008-14:37:31.646|56=MARKET_MAKER|98=0|108=90|141=Y|10=143|
20241008-14:37:31.848087000 : 8=FIX.4.4|9=79|35=A|34=1|49=MARKET_MAKER|52=20241008-14:37:31.846|56=CLIENT|98=0|108=90|141=Y|10=145|
20241008-14:37:31.858015000 : 8=FIX.4.4|9=129|35=D|34=2|49=CLIENT|52=20241008-14:37:31.854|56=MARKET_MAKER|11=12345|38=100|40=2|44=150.25|54=1|55=USD/BRL|60=20241008-14:37:31|10=118|
20241008-14:37:51.793331000 : 8=FIX.4.4|9=61|35=5|34=2|49=MARKET_MAKER|52=20241008-14:37:51.787|56=CLIENT|10=055|
20241008-14:37:51.802626000 : 8=FIX.4.4|9=61|35=5|34=3|49=CLIENT|52=20241008-14:37:51.796|56=MARKET_MAKER|10=056|
20241008-14:45:49.284993000 : 8=FIX.4.4|9=79|35=A|34=1|49=CLIENT|52=20241008-14:45:49.253|56=MARKET_MAKER|98=0|108=90|141=Y|10=145|
20241008-14:45:49.315550000 : 8=FIX.4.4|9=79|35=A|34=1|49=MARKET_MAKER|52=20241008-14:45:49.313|56=CLIENT|98=0|108=90|141=Y|10=142|
20241008-14:45:49.321754000 : 8=FIX.4.4|9=129|35=D|34=2|49=CLIENT|52=20241008-14:45:49.318|56=MARKET_MAKER|11=12345|38=100|40=2|44=150.25|54=1|55=USD/BRL|60=20241008-14:45:49|10=129|
20241008-14:45:49.325036000 : 8=FIX.4.4|9=139|35=8|34=2|49=MARKET_MAKER|52=20241008-14:45:49.322|56=CLIENT|6=150.25|14=100|17=54321|31=150.25|32=100|37=12345|39=2|54=1|55=USD/BRL|150=2|10=228|
20241008-14:45:49.332389000 : 8=FIX.4.4|9=110|35=3|34=3|49=CLIENT|52=20241008-14:45:49.329|56=MARKET_MAKER|45=2|58=Required tag missing|371=151|372=8|373=1|10=040|
20241008-14:47:19.081724000 : 8=FIX.4.4|9=61|35=0|34=4|49=CLIENT|52=20241008-14:47:19.080|56=MARKET_MAKER|10=043|
20241008-14:47:19.084995000 : 8=FIX.4.4|9=61|35=0|34=3|49=MARKET_MAKER|52=20241008-14:47:19.082|56=CLIENT|10=044|
20241008-14:48:49.415907000 : 8=FIX.4.4|9=61|35=0|34=5|49=CLIENT|52=20241008-14:48:49.413|56=MARKET_MAKER|10=048|
20241008-14:48:49.418230000 : 8=FIX.4.4|9=61|35=0|34=4|49=MARKET_MAKER|52=20241008-14:48:49.416|56=CLIENT|10=050|
20241008-14:50:19.729189000 : 8=FIX.4.4|9=61|35=0|34=5|49=MARKET_MAKER|52=20241008-14:50:19.545|56=CLIENT|10=044|
20241008-14:50:19.729656000 : 8=FIX.4.4|9=61|35=0|34=6|49=CLIENT|52=20241008-14:50:19.347|56=MARKET_MAKER|10=045|
20241008-14:51:49.266537000 : 8=FIX.4.4|9=61|35=0|34=7|49=CLIENT|52=20241008-14:51:49.264|56=MARKET_MAKER|10=048|
20241008-14:51:49.268898000 : 8=FIX.4.4|9=61|35=0|34=6|49=MARKET_MAKER|52=20241008-14:51:49.267|56=CLIENT|10=050|
20241008-14:53:19.356129000 : 8=FIX.4.4|9=61|35=0|34=8|49=CLIENT|52=20241008-14:53:19.353|56=MARKET_MAKER|10=047|
20241008-14:53:19.359238000 : 8=FIX.4.4|9=61|35=0|34=7|49=MARKET_MAKER|52=20241008-14:53:19.356|56=CLIENT|10=049|
20241008-14:54:49.023145000 : 8=FIX.4.4|9=61|35=0|34=9|49=CLIENT|52=20241008-14:54:49.019|56=MARKET_MAKER|10=051|
20241008-14:54:49.026605000 : 8=FIX.4.4|9=61|35=0|34=8|49=MARKET_MAKER|52=20241008-14:54:49.024|56=CLIENT|10=046|
20241008-14:56:19.226699000 : 8=FIX.4.4|9=62|35=0|34=10|49=CLIENT|52=20241008-14:56:19.221|56=MARKET_MAKER|10=086|
20241008-14:56:19.231964000 : 8=FIX.4.4|9=61|35=0|34=9|49=MARKET_MAKER|52=20241008-14:56:19.228|56=CLIENT|10=052|
20241008-14:57:50.219307000 : 8=FIX.4.4|9=62|35=0|34=10|49=MARKET_MAKER|52=20241008-14:57:49.900|56=CLIENT|10=094|
20241008-14:57:50.219598000 : 8=FIX.4.4|9=62|35=0|34=11|49=CLIENT|52=20241008-14:57:49.931|56=MARKET_MAKER|10=099|
20241008-14:59:19.473594000 : 8=FIX.4.4|9=62|35=0|34=11|49=MARKET_MAKER|52=20241008-14:59:19.465|56=CLIENT|10=100|
20241008-14:59:19.477656000 : 8=FIX.4.4|9=62|35=0|34=12|49=CLIENT|52=20241008-14:59:19.474|56=MARKET_MAKER|10=101|
20241008-15:00:49.549016000 : 8=FIX.4.4|9=62|35=0|34=13|49=CLIENT|52=20241008-15:00:49.285|56=MARKET_MAKER|10=092|
20241008-15:00:49.690172000 : 8=FIX.4.4|9=62|35=0|34=12|49=MARKET_MAKER|52=20241008-15:00:49.554|56=CLIENT|10=090|
20241008-15:02:19.031278000 : 8=FIX.4.4|9=62|35=0|34=14|49=CLIENT|52=20241008-15:02:19.028|56=MARKET_MAKER|10=087|
20241008-15:02:19.036562000 : 8=FIX.4.4|9=62|35=0|34=13|49=MARKET_MAKER|52=20241008-15:02:19.032|56=CLIENT|10=081|
20241008-15:03:49.402661000 : 8=FIX.4.4|9=62|35=0|34=15|49=CLIENT|52=20241008-15:03:49.161|56=MARKET_MAKER|10=090|
20241008-15:03:49.416856000 : 8=FIX.4.4|9=62|35=0|34=14|49=MARKET_MAKER|52=20241008-15:03:49.405|56=CLIENT|10=090|
20241008-15:05:19.581998000 : 8=FIX.4.4|9=62|35=0|34=15|49=MARKET_MAKER|52=20241008-15:05:19.578|56=CLIENT|10=101|
20241008-15:05:19.589236000 : 8=FIX.4.4|9=62|35=0|34=16|49=CLIENT|52=20241008-15:05:19.583|56=MARKET_MAKER|10=098|
20241008-15:06:49.370774000 : 8=FIX.4.4|9=62|35=0|34=16|49=MARKET_MAKER|52=20241008-15:06:49.253|56=CLIENT|10=096|
20241008-15:06:49.371067000 : 8=FIX.4.4|9=62|35=0|34=17|49=CLIENT|52=20241008-15:06:49.312|56=MARKET_MAKER|10=093|
20241008-15:08:19.418662000 : 8=FIX.4.4|9=62|35=0|34=17|49=MARKET_MAKER|52=20241008-15:08:19.415|56=CLIENT|10=096|
20241008-15:08:19.422631000 : 8=FIX.4.4|9=62|35=0|34=18|49=CLIENT|52=20241008-15:08:19.419|56=MARKET_MAKER|10=101|
20241008-15:09:49.114785000 : 8=FIX.4.4|9=62|35=0|34=19|49=CLIENT|52=20241008-15:09:49.112|56=MARKET_MAKER|10=096|
20241008-15:09:49.119480000 : 8=FIX.4.4|9=62|35=0|34=18|49=MARKET_MAKER|52=20241008-15:09:49.115|56=CLIENT|10=098|
20241008-15:11:19.414073000 : 8=FIX.4.4|9=62|35=0|34=19|49=MARKET_MAKER|52=20241008-15:11:19.109|56=CLIENT|10=092|
20241008-15:11:19.415451000 : 8=FIX.4.4|9=62|35=0|34=20|49=CLIENT|52=20241008-15:11:19.196|56=MARKET_MAKER|10=090|
20241008-15:12:49.747853000 : 8=FIX.4.4|9=62|35=0|34=20|49=MARKET_MAKER|52=20241008-15:12:49.744|56=CLIENT|10=093|
20241008-15:12:49.755384000 : 8=FIX.4.4|9=62|35=0|34=21|49=CLIENT|52=20241008-15:12:49.751|56=MARKET_MAKER|10=092|
20241008-15:14:19.476398000 : 8=FIX.4.4|9=62|35=0|34=21|49=MARKET_MAKER|52=20241008-15:14:19.472|56=CLIENT|10=091|
20241008-15:14:19.483216000 : 8=FIX.4.4|9=62|35=0|34=22|49=CLIENT|52=20241008-15:14:19.478|56=MARKET_MAKER|10=098|
20241008-15:15:49.407444000 : 8=FIX.4.4|9=62|35=0|34=22|49=MARKET_MAKER|52=20241008-15:15:49.404|56=CLIENT|10=091|
20241008-15:15:49.412181000 : 8=FIX.4.4|9=62|35=0|34=23|49=CLIENT|52=20241008-15:15:49.408|56=MARKET_MAKER|10=096|
20241008-15:17:19.034025000 : 8=FIX.4.4|9=62|35=0|34=24|49=CLIENT|52=20241008-15:17:19.029|56=MARKET_MAKER|10=095|
20241008-15:17:19.039826000 : 8=FIX.4.4|9=62|35=0|34=23|49=MARKET_MAKER|52=20241008-15:17:19.035|56=CLIENT|10=091|
20241008-15:18:49.129822000 : 8=FIX.4.4|9=62|35=0|34=25|49=CLIENT|52=20241008-15:18:49.124|56=MARKET_MAKER|10=096|
20241008-15:18:49.134430000 : 8=FIX.4.4|9=62|35=0|34=24|49=MARKET_MAKER|52=20241008-15:18:49.130|56=CLIENT|10=092|
20241008-15:20:19.307353000 : 8=FIX.4.4|9=62|35=0|34=26|49=CLIENT|52=20241008-15:20:19.296|56=MARKET_MAKER|10=097|
20241008-15:20:19.318439000 : 8=FIX.4.4|9=62|35=0|34=25|49=MARKET_MAKER|52=20241008-15:20:19.310|56=CLIENT|10=083|
20241008-15:21:49.324285000 : 8=FIX.4.4|9=62|35=0|34=26|49=MARKET_MAKER|52=20241008-15:21:49.320|56=CLIENT|10=089|
20241008-15:21:49.330103000 : 8=FIX.4.4|9=62|35=0|34=27|49=CLIENT|52=20241008-15:21:49.326|56=MARKET_MAKER|10=096|
20241008-15:23:19.185001000 : 8=FIX.4.4|9=62|35=0|34=28|49=CLIENT|52=20241008-15:23:19.180|56=MARKET_MAKER|10=094|
20241008-15:23:19.187684000 : 8=FIX.4.4|9=62|35=0|34=27|49=MARKET_MAKER|52=20241008-15:23:19.185|56=CLIENT|10=098|
20241008-15:24:49.089434000 : 8=FIX.4.4|9=62|35=0|34=29|49=CLIENT|52=20241008-15:24:49.085|56=MARKET_MAKER|10=103|
20241008-15:24:49.094795000 : 8=FIX.4.4|9=62|35=0|34=28|49=MARKET_MAKER|52=20241008-15:24:49.090|56=CLIENT|10=098|
20241008-15:26:19.259916000 : 8=FIX.4.4|9=62|35=0|34=30|49=CLIENT|52=20241008-15:26:19.212|56=MARKET_MAKER|10=086|
20241008-15:26:19.793050000 : 8=FIX.4.4|9=62|35=0|34=29|49=MARKET_MAKER|52=20241008-15:26:19.387|56=CLIENT|10=107|
20241008-15:27:49.403715000 : 8=FIX.4.4|9=62|35=0|34=31|49=CLIENT|52=20241008-15:27:49.384|56=MARKET_MAKER|10=101|
20241008-15:27:49.409305000 : 8=FIX.4.4|9=62|35=0|34=30|49=MARKET_MAKER|52=20241008-15:27:49.405|56=CLIENT|10=094|
20241008-18:18:30.655159000 : 8=FIX.4.4|9=79|35=A|34=1|49=CLIENT|52=20241008-18:18:29.502|56=MARKET_MAKER|98=0|108=90|141=Y|10=144|
20241008-18:18:31.008212000 : 8=FIX.4.4|9=79|35=A|34=1|49=MARKET_MAKER|52=20241008-18:18:30.981|56=CLIENT|98=0|108=90|141=Y|10=147|
20241008-18:18:31.150857000 : 8=FIX.4.4|9=129|35=D|34=2|49=CLIENT|52=20241008-18:18:31.080|56=MARKET_MAKER|11=12345|38=100|40=2|44=150.25|54=1|55=USD/BRL|60=20241008-18:18:31|10=115|
20241008-18:18:31.279534000 : 8=FIX.4.4|9=139|35=8|34=2|49=MARKET_MAKER|52=20241008-18:18:31.191|56=CLIENT|6=150.25|14=100|17=54321|31=150.25|32=100|37=12345|39=2|54=1|55=USD/BRL|150=2|10=227|
20241008-18:18:31.354308000 : 8=FIX.4.4|9=110|35=3|34=3|49=CLIENT|52=20241008-18:18:31.303|56=MARKET_MAKER|45=2|58=Required tag missing|371=151|372=8|373=1|10=027|
20241008-18:20:01.101965000 : 8=FIX.4.4|9=61|35=0|34=4|49=CLIENT|52=20241008-18:20:01.076|56=MARKET_MAKER|10=034|
20241008-18:20:01.105527000 : 8=FIX.4.4|9=61|35=0|34=3|49=MARKET_MAKER|52=20241008-18:20:01.103|56=CLIENT|10=024|
20241008-18:21:31.048003000 : 8=FIX.4.4|9=61|35=0|34=4|49=MARKET_MAKER|52=20241008-18:21:31.044|56=CLIENT|10=033|
20241008-18:21:31.051547000 : 8=FIX.4.4|9=61|35=0|34=5|49=CLIENT|52=20241008-18:21:31.049|56=MARKET_MAKER|10=039|
20241008-18:23:01.190268000 : 8=FIX.4.4|9=61|35=0|34=6|49=CLIENT|52=20241008-18:23:01.184|56=MARKET_MAKER|10=039|
20241008-18:23:01.196271000 : 8=FIX.4.4|9=61|35=0|34=5|49=MARKET_MAKER|52=20241008-18:23:01.191|56=CLIENT|10=036|
20241008-18:24:31.080054000 : 8=FIX.4.4|9=61|35=0|34=7|49=CLIENT|52=20241008-18:24:31.047|56=MARKET_MAKER|10=042|
20241008-18:24:31.087943000 : 8=FIX.4.4|9=61|35=0|34=6|49=MARKET_MAKER|52=20241008-18:24:31.081|56=CLIENT|10=039|
20241008-18:26:01.293037000 : 8=FIX.4.4|9=61|35=0|34=8|49=CLIENT|52=20241008-18:26:01.282|56=MARKET_MAKER|10=043|
20241008-18:26:01.313104000 : 8=FIX.4.4|9=61|35=0|34=7|49=MARKET_MAKER|52=20241008-18:26:01.293|56=CLIENT|10=044|
20241008-18:33:41.331858000 : 8=FIX.4.4|9=79|35=A|34=1|49=CLIENT|52=20241008-18:33:41.302|56=MARKET_MAKER|98=0|108=90|141=Y|10=133|
20241008-18:33:41.360672000 : 8=FIX.4.4|9=79|35=A|34=1|49=MARKET_MAKER|52=20241008-18:33:41.358|56=CLIENT|98=0|108=90|141=Y|10=144|
20241008-18:33:41.367040000 : 8=FIX.4.4|9=129|35=D|34=2|49=CLIENT|52=20241008-18:33:41.364|56=MARKET_MAKER|11=12345|38=100|40=2|44=150.25|54=1|55=USD/BRL|60=20241008-18:33:41|10=116|
20241008-18:33:41.388667000 : 8=FIX.4.4|9=139|35=8|34=2|49=MARKET_MAKER|52=20241008-18:33:41.371|56=CLIENT|6=150.25|14=100|17=54321|31=150.25|32=100|37=12345|39=2|54=1|55=USD/BRL|150=2|10=225|
20241008-18:33:41.395505000 : 8=FIX.4.4|9=110|35=3|34=3|49=CLIENT|52=20241008-18:33:41.389|56=MARKET_MAKER|45=2|58=Required tag missing|371=151|372=8|373=1|10=039|
20241008-18:35:11.142653000 : 8=FIX.4.4|9=61|35=0|34=4|49=CLIENT|52=20241008-18:35:11.134|56=MARKET_MAKER|10=036|
20241008-18:35:11.148609000 : 8=FIX.4.4|9=61|35=0|34=3|49=MARKET_MAKER|52=20241008-18:35:11.144|56=CLIENT|10=036|
20241008-18:36:41.089921000 : 8=FIX.4.4|9=61|35=0|34=5|49=CLIENT|52=20241008-18:36:41.087|56=MARKET_MAKER|10=048|
20241008-18:36:41.093411000 : 8=FIX.4.4|9=61|35=0|34=4|49=MARKET_MAKER|52=20241008-18:36:41.091|56=CLIENT|10=042|
20241008-18:36:43.876404000 : 8=FIX.4.4|9=61|35=5|34=5|49=MARKET_MAKER|52=20241008-18:36:43.873|56=CLIENT|10=058|
20241008-18:36:43.881140000 : 8=FIX.4.4|9=61|35=5|34=6|49=CLIENT|52=20241008-18:36:43.877|56=MARKET_MAKER|10=063|
20241008-18:36:57.556054000 : 8=FIX.4.4|9=79|35=A|34=1|49=CLIENT|52=20241008-18:36:57.516|56=MARKET_MAKER|98=0|108=90|141=Y|10=150|
20241008-18:36:57.582267000 : 8=FIX.4.4|9=79|35=A|34=1|49=MARKET_MAKER|52=20241008-18:36:57.580|56=CLIENT|98=0|108=90|141=Y|10=151|
20241008-18:43:07.216480000 : 8=FIX.4.4|9=79|35=A|34=1|49=CLIENT|52=20241008-18:43:07.158|56=MARKET_MAKER|98=0|108=90|141=Y|10=145|
20241008-18:43:07.242686000 : 8=FIX.4.4|9=79|35=A|34=1|49=MARKET_MAKER|52=20241008-18:43:07.241|56=CLIENT|98=0|108=90|141=Y|10=138|
20241008-18:50:54.064663000 : 8=FIX.4.4|9=79|35=A|34=1|49=CLIENT|52=20241008-18:50:54.040|56=MARKET_MAKER|98=0|108=90|141=Y|10=135|
20241008-18:50:54.089688000 : 8=FIX.4.4|9=79|35=A|34=1|49=MARKET_MAKER|52=20241008-18:50:54.088|56=CLIENT|98=0|108=90|141=Y|10=147|
20241008-19:10:35.845588000 : 8=FIX.4.4|9=79|35=A|34=1|49=CLIENT|52=20241008-19:10:35.833|56=MARKET_MAKER|98=0|108=90|141=Y|10=141|
20241008-19:10:35.869983000 : 8=FIX.4.4|9=79|35=A|34=1|49=MARKET_MAKER|52=20241008-19:10:35.867|56=CLIENT|98=0|108=90|141=Y|10=148|
20241008-19:11:54.565965000 : 8=FIX.4.4|9=79|35=A|34=1|49=CLIENT|52=20241008-19:11:54.506|56=MARKET_MAKER|98=0|108=90|141=Y|10=140|
20241008-19:11:54.618010000 : 8=FIX.4.4|9=79|35=A|34=1|49=MARKET_MAKER|52=20241008-19:11:54.612|56=CLIENT|98=0|108=90|141=Y|10=138|
20241008-19:12:52.420356000 : 8=FIX.4.4|9=79|35=A|34=1|49=CLIENT|52=20241008-19:12:52.398|56=MARKET_MAKER|98=0|108=90|141=Y|10=148|
20241008-19:12:52.451891000 : 8=FIX.4.4|9=79|35=A|34=1|49=MARKET_MAKER|52=20241008-19:12:52.450|56=CLIENT|98=0|108=90|141=Y|10=137|
20241008-19:13:52.568768000 : 8=FIX.4.4|9=79|35=A|34=1|49=CLIENT|52=20241008-19:13:52.509|56=MARKET_MAKER|98=0|108=90|141=Y|10=143|
20241008-19:13:52.633489000 : 8=FIX.4.4|9=79|35=A|34=1|49=MARKET_MAKER|52=20241008-19:13:52.630|56=CLIENT|98=0|108=90|141=Y|10=138|
20241008-19:15:05.537247000 : 8=FIX.4.4|9=79|35=A|34=1|49=CLIENT|52=20241008-19:15:05.516|56=MARKET_MAKER|98=0|108=90|141=Y|10=141|
20241008-19:15:05.559436000 : 8=FIX.4.4|9=79|35=A|34=1|49=MARKET_MAKER|52=20241008-19:15:05.557|56=CLIENT|98=0|108=90|141=Y|10=146|
20241008-19:16:16.696101000 : 8=FIX.4.4|9=79|35=A|34=1|49=CLIENT|52=20241008-19:16:16.673|56=MARKET_MAKER|98=0|108=90|141=Y|10=148|
20241008-19:16:16.710401000 : 8=FIX.4.4|9=79|35=A|34=1|49=MARKET_MAKER|52=20241008-19:16:16.706|56=CLIENT|98=0|108=90|141=Y|10=145|
20241008-19:17:38.535069000 : 8=FIX.4.4|9=79|35=A|34=1|49=CLIENT|52=20241008-19:17:38.506|56=MARKET_MAKER|98=0|108=90|141=Y|10=148|
20241008-19:17:38.563274000 : 8=FIX.4.4|9=79|35=A|34=1|49=MARKET_MAKER|52=20241008-19:17:38.561|56=CLIENT|98=0|108=90|141=Y|10=149|
20241009-11:10:44.443117000 : 8=FIX.4.4|9=79|35=A|34=1|49=CLIENT|52=20241009-11:10:44.405|56=MARKET_MAKER|98=0|108=90|141=Y|10=129|
20241009-11:10:44.474439000 : 8=FIX.4.4|9=79|35=A|34=1|49=MARKET_MAKER|52=20241009-11:10:44.472|56=CLIENT|98=0|108=90|141=Y|10=133|
20241009-11:12:42.719316000 : 8=FIX.4.4|9=79|35=A|34=1|49=CLIENT|52=20241009-11:12:42.685|56=MARKET_MAKER|98=0|108=90|141=Y|10=139|
20241009-11:12:42.754454000 : 8=FIX.4.4|9=79|35=A|34=1|49=MARKET_MAKER|52=20241009-11:12:42.753|56=CLIENT|98=0|108=90|141=Y|10=135|
20241009-11:14:11.835408000 : 8=FIX.4.4|9=79|35=A|34=1|49=CLIENT|52=20241009-11:14:11.796|56=MARKET_MAKER|98=0|108=90|141=Y|10=140|
20241009-11:14:11.873410000 : 8=FIX.4.4|9=79|35=A|34=1|49=MARKET_MAKER|52=20241009-11:14:11.871|56=CLIENT|98=0|108=90|141=Y|10=134|
20241009-11:15:41.698515000 : 8=FIX.4.4|9=79|35=A|34=1|49=CLIENT|52=20241009-11:15:41.675|56=MARKET_MAKER|98=0|108=90|141=Y|10=140|
20241009-11:15:41.719338000 : 8=FIX.4.4|9=79|35=A|34=1|49=MARKET_MAKER|52=20241009-11:15:41.717|56=CLIENT|98=0|108=90|141=Y|10=137|
20241009-11:30:36.182087000 : 8=FIX.4.4|9=79|35=A|34=1|49=CLIENT|52=20241009-11:30:36.161|56=MARKET_MAKER|98=0|108=90|141=Y|10=131|
20241009-11:30:36.206151000 : 8=FIX.4.4|9=79|35=A|34=1|49=MARKET_MAKER|52=20241009-11:30:36.204|56=CLIENT|98=0|108=90|141=Y|10=129|
20241009-11:31:48.213384000 : 8=FIX.4.4|9=79|35=A|34=1|49=CLIENT|52=20241009-11:31:48.177|56=MARKET_MAKER|98=0|108=90|141=Y|10=142|
20241009-11:31:48.252672000 : 8=FIX.4.4|9=79|35=A|34=1|49=MARKET_MAKER|52=20241009-11:31:48.248|56=CLIENT|98=0|108=90|141=Y|10=141|
20241009-11:32:59.889733000 : 8=FIX.4.4|9=79|35=A|34=1|49=CLIENT|52=20241009-11:32:59.872|56=MARKET_MAKER|98=0|108=90|141=Y|10=147|
20241009-11:32:59.922507000 : 8=FIX.4.4|9=79|35=A|34=1|49=MARKET_MAKER|52=20241009-11:32:59.920|56=CLIENT|98=0|108=90|141=Y|10=141|
20241009-11:34:24.488590000 : 8=FIX.4.4|9=79|35=A|34=1|49=CLIENT|52=20241009-11:34:24.466|56=MARKET_MAKER|98=0|108=90|141=Y|10=140|
20241009-11:34:24.509933000 : 8=FIX.4.4|9=79|35=A|34=1|49=MARKET_MAKER|52=20241009-11:34:24.506|56=CLIENT|98=0|108=90|141=Y|10=135|
20241009-11:37:45.677442000 : 8=FIX.4.4|9=79|35=A|34=1|49=CLIENT|52=20241009-11:37:45.644|56=MARKET_MAKER|98=0|108=90|141=Y|10=144|
20241009-11:37:45.698053000 : 8=FIX.4.4|9=79|35=A|34=1|49=MARKET_MAKER|52=20241009-11:37:45.697|56=CLIENT|98=0|108=90|141=Y|10=152|
20241009-11:45:37.610662000 : 8=FIX.4.4|9=79|35=A|34=1|49=CLIENT|52=20241009-11:45:37.573|56=MARKET_MAKER|98=0|108=90|141=Y|10=145|
20241009-11:45:37.646300000 : 8=FIX.4.4|9=79|35=A|34=1|49=MARKET_MAKER|52=20241009-11:45:37.641|56=CLIENT|98=0|108=90|141=Y|10=141|
20241009-11:50:34.241755000 : 8=FIX.4.4|9=79|35=A|34=1|49=CLIENT|52=20241009-11:50:34.209|56=MARKET_MAKER|98=0|108=90|141=Y|10=134|
20241009-11:50:34.266826000 : 8=FIX.4.4|9=79|35=A|34=1|49=MARKET_MAKER|52=20241009-11:50:34.265|56=CLIENT|98=0|108=90|141=Y|10=136|
20241009-11:52:20.962720000 : 8=FIX.4.4|9=79|35=A|34=1|49=CLIENT|52=20241009-11:52:20.938|56=MARKET_MAKER|98=0|108=90|141=Y|10=140|
20241009-11:52:21.000212000 : 8=FIX.4.4|9=79|35=A|34=1|49=MARKET_MAKER|52=20241009-11:52:20.997|56=CLIENT|98=0|108=90|141=Y|10=145|
20241009-11:55:08.744745000 : 8=FIX.4.4|9=79|35=A|34=1|49=CLIENT|52=20241009-11:55:08.715|56=MARKET_MAKER|98=0|108=90|141=Y|10=142|
20241009-11:55:08.762011000 : 8=FIX.4.4|9=79|35=A|34=1|49=MARKET_MAKER|52=20241009-11:55:08.760|56=CLIENT|98=0|108=90|141=Y|10=142|
20241009-11:56:44.280749000 : 8=FIX.4.4|9=79|35=A|34=1|49=CLIENT|52=20241009-11:56:44.247|56=MARKET_MAKER|98=0|108=90|141=Y|10=143|
20241009-11:56:44.306563000 : 8=FIX.4.4|9=79|35=A|34=1|49=MARKET_MAKER|52=20241009-11:56:44.305|56=CLIENT|98=0|108=90|141=Y|10=138|
20241009-12:02:32.944532000 : 8=FIX.4.4|9=79|35=A|34=1|49=CLIENT|52=20241009-12:02:32.899|56=MARKET_MAKER|98=0|108=90|141=Y|10=145|
20241009-12:02:32.970708000 : 8=FIX.4.4|9=79|35=A|34=1|49=MARKET_MAKER|52=20241009-12:02:32.969|56=CLIENT|98=0|108=90|141=Y|10=143|
20241009-12:06:05.934420000 : 8=FIX.4.4|9=79|35=A|34=1|49=CLIENT|52=20241009-12:06:05.800|56=MARKET_MAKER|98=0|108=90|141=Y|10=131|
20241009-12:06:05.945862000 : 8=FIX.4.4|9=79|35=A|34=1|49=MARKET_MAKER|52=20241009-12:06:05.945|56=CLIENT|98=0|108=90|141=Y|10=141|
20241009-12:09:08.450351000 : 8=FIX.4.4|9=79|35=A|34=1|49=CLIENT|52=20241009-12:09:08.422|56=MARKET_MAKER|98=0|108=90|141=Y|10=137|
20241009-12:09:08.470303000 : 8=FIX.4.4|9=79|35=A|34=1|49=MARKET_MAKER|52=20241009-12:09:08.468|56=CLIENT|98=0|108=90|141=Y|10=147|
20241009-12:10:46.258104000 : 8=FIX.4.4|9=79|35=A|34=1|49=CLIENT|52=20241009-12:10:46.223|56=MARKET_MAKER|98=0|108=90|141=Y|10=130|
20241009-12:10:46.292918000 : 8=FIX.4.4|9=79|35=A|34=1|49=MARKET_MAKER|52=20241009-12:10:46.291|56=CLIENT|98=0|108=90|141=Y|10=135|
20241009-12:12:21.140196000 : 8=FIX.4.4|9=79|35=A|34=1|49=CLIENT|52=20241009-12:12:21.114|56=MARKET_MAKER|98=0|108=90|141=Y|10=124|
20241009-12:12:21.163539000 : 8=FIX.4.4|9=79|35=A|34=1|49=MARKET_MAKER|52=20241009-12:12:21.162|56=CLIENT|98=0|108=90|141=Y|10=127|
20241009-12:14:14.152803000 : 8=FIX.4.4|9=79|35=A|34=1|49=CLIENT|52=20241009-12:14:14.117|56=MARKET_MAKER|98=0|108=90|141=Y|10=131|
20241009-12:14:14.185489000 : 8=FIX.4.4|9=79|35=A|34=1|49=MARKET_MAKER|52=20241009-12:14:14.183|56=CLIENT|98=0|108=90|141=Y|10=134|
20241009-12:18:36.092266000 : 8=FIX.4.4|9=79|35=A|34=1|49=CLIENT|52=20241009-12:18:36.038|56=MARKET_MAKER|98=0|108=90|141=Y|10=141|
20241009-12:18:36.114400000 : 8=FIX.4.4|9=79|35=A|34=1|49=MARKET_MAKER|52=20241009-12:18:36.112|56=CLIENT|98=0|108=90|141=Y|10=134|
20241009-12:21:09.068253000 : 8=FIX.4.4|9=79|35=A|34=1|49=CLIENT|52=20241009-12:21:09.044|56=MARKET_MAKER|98=0|108=90|141=Y|10=132|
20241009-12:21:09.172698000 : 8=FIX.4.4|9=79|35=A|34=1|49=MARKET_MAKER|52=20241009-12:21:09.170|56=CLIENT|98=0|108=90|141=Y|10=132|
20241009-12:23:26.406956000 : 8=FIX.4.4|9=79|35=A|34=1|49=CLIENT|52=20241009-12:23:26.373|56=MARKET_MAKER|98=0|108=90|141=Y|10=138|
20241009-12:23:26.443793000 : 8=FIX.4.4|9=79|35=A|34=1|49=MARKET_MAKER|52=20241009-12:23:26.438|56=CLIENT|98=0|108=90|141=Y|10=140|
20241009-12:25:33.112506000 : 8=FIX.4.4|9=79|35=A|34=1|49=CLIENT|52=20241009-12:25:33.070|56=MARKET_MAKER|98=0|108=90|141=Y|10=132|
20241009-12:25:33.146895000 : 8=FIX.4.4|9=79|35=A|34=1|49=MARKET_MAKER|52=20241009-12:25:33.144|56=CLIENT|98=0|108=90|141=Y|10=134|
20241009-12:27:23.242594000 : 8=FIX.4.4|9=79|35=A|34=1|49=CLIENT|52=20241009-12:27:23.200|56=MARKET_MAKER|98=0|108=90|141=Y|10=128|
20241009-12:27:23.280360000 : 8=FIX.4.4|9=79|35=A|34=1|49=MARKET_MAKER|52=20241009-12:27:23.278|56=CLIENT|98=0|108=90|141=Y|10=143|
20241009-12:31:09.361385000 : 8=FIX.4.4|9=79|35=A|34=1|49=CLIENT|52=20241009-12:31:09.318|56=MARKET_MAKER|98=0|108=90|141=Y|10=137|
20241009-12:31:09.418103000 : 8=FIX.4.4|9=79|35=A|34=1|49=MARKET_MAKER|52=20241009-12:31:09.414|56=CLIENT|98=0|108=90|141=Y|10=134|
20241009-12:32:56.166200000 : 8=FIX.4.4|9=79|35=A|34=1|49=CLIENT|52=20241009-12:32:56.081|56=MARKET_MAKER|98=0|108=90|141=Y|10=137|
20241009-12:32:56.191826000 : 8=FIX.4.4|9=79|35=A|34=1|49=MARKET_MAKER|52=20241009-12:32:56.190|56=CLIENT|98=0|108=90|141=Y|10=138|
20241009-12:35:30.451710000 : 8=FIX.4.4|9=79|35=A|34=1|49=CLIENT|52=20241009-12:35:30.429|56=MARKET_MAKER|98=0|108=90|141=Y|10=138|
20241009-12:35:30.473190000 : 8=FIX.4.4|9=79|35=A|34=1|49=MARKET_MAKER|52=20241009-12:35:30.472|56=CLIENT|98=0|108=90|141=Y|10=136|
20241009-12:41:48.429440000 : 8=FIX.4.4|9=79|35=A|34=1|49=CLIENT|52=20241009-12:41:48.408|56=MARKET_MAKER|98=0|108=90|141=Y|10=141|
20241009-12:41:48.491139000 : 8=FIX.4.4|9=79|35=A|34=1|49=MARKET_MAKER|52=20241009-12:41:48.487|56=CLIENT|98=0|108=90|141=Y|10=148|
20241009-12:43:29.898943000 : 8=FIX.4.4|9=79|35=A|34=1|49=CLIENT|52=20241009-12:43:29.849|56=MARKET_MAKER|98=0|108=90|141=Y|10=151|
20241009-12:43:29.944696000 : 8=FIX.4.4|9=79|35=A|34=1|49=MARKET_MAKER|52=20241009-12:43:29.941|56=CLIENT|98=0|108=90|141=Y|10=144|
20241009-13:09:42.267998000 : 8=FIX.4.4|9=79|35=A|34=1|49=CLIENT|52=20241009-13:09:42.235|56=MARKET_MAKER|98=0|108=90|141=Y|10=138|
20241009-13:09:42.357624000 : 8=FIX.4.4|9=79|35=A|34=1|49=MARKET_MAKER|52=20241009-13:09:42.356|56=CLIENT|98=0|108=90|141=Y|10=142|
20241009-13:17:39.942060000 : 8=FIX.4.4|9=79|35=A|34=1|49=CLIENT|52=20241009-13:17:39.857|56=MARKET_MAKER|98=0|108=90|141=Y|10=153|
20241009-13:17:39.997872000 : 8=FIX.4.4|9=79|35=A|34=1|49=MARKET_MAKER|52=20241009-13:17:39.996|56=CLIENT|98=0|108=90|141=Y|10=157|
20241009-13:19:26.979428000 : 8=FIX.4.4|9=79|35=A|34=1|49=CLIENT|52=20241009-13:19:26.943|56=MARKET_MAKER|98=0|108=90|141=Y|10=147|
20241009-13:19:27.006215000 : 8=FIX.4.4|9=79|35=A|34=1|49=MARKET_MAKER|52=20241009-13:19:27.005|56=CLIENT|98=0|108=90|141=Y|10=137|
20241009-13:21:18.976903000 : 8=FIX.4.4|9=79|35=A|34=1|49=CLIENT|52=20241009-13:21:18.861|56=MARKET_MAKER|98=0|108=90|141=Y|10=140|
20241009-13:21:18.992050000 : 8=FIX.4.4|9=79|35=A|34=1|49=MARKET_MAKER|52=20241009-13:21:18.991|56=CLIENT|98=0|108=90|141=Y|10=144|
20241009-13:23:34.664651000 : 8=FIX.4.4|9=79|35=A|34=1|49=CLIENT|52=20241009-13:23:34.620|56=MARKET_MAKER|98=0|108=90|141=Y|10=133|
20241009-13:23:34.724293000 : 8=FIX.4.4|9=79|35=A|34=1|49=MARKET_MAKER|52=20241009-13:23:34.718|56=CLIENT|98=0|108=90|141=Y|10=141|
20241009-13:27:14.377831000 : 8=FIX.4.4|9=79|35=A|34=1|49=CLIENT|52=20241009-13:27:14.344|56=MARKET_MAKER|98=0|108=90|141=Y|10=138|
20241009-13:27:14.428671000 : 8=FIX.4.4|9=79|35=A|34=1|49=MARKET_MAKER|52=20241009-13:27:14.425|56=CLIENT|98=0|108=90|141=Y|10=138|
20241009-13:31:20.791149000 : 8=FIX.4.4|9=79|35=A|34=1|49=CLIENT|52=20241009-13:31:20.756|56=MARKET_MAKER|98=0|108=90|141=Y|10=137|
20241009-13:31:20.828981000 : 8=FIX.4.4|9=79|35=A|34=1|49=MARKET_MAKER|52=20241009-13:31:20.825|56=CLIENT|98=0|108=90|141=Y|10=134|
20241009-13:34:22.702644000 : 8=FIX.4.4|9=79|35=A|34=1|49=CLIENT|52=20241009-13:34:22.678|56=MARKET_MAKER|98=0|108=90|141=Y|10=145|
20241009-13:34:22.738250000 : 8=FIX.4.4|9=79|35=A|34=1|49=MARKET_MAKER|52=20241009-13:34:22.735|56=CLIENT|98=0|108=90|141=Y|10=139|
20241009-13:36:15.426419000 : 8=FIX.4.4|9=79|35=A|34=1|49=CLIENT|52=20241009-13:36:15.380|56=MARKET_MAKER|98=0|108=90|141=Y|10=139|
20241009-13:36:15.479204000 : 8=FIX.4.4|9=79|35=A|34=1|49=MARKET_MAKER|52=20241009-13:36:15.475|56=CLIENT|98=0|108=90|141=Y|10=144|
20241009-13:41:00.868923000 : 8=FIX.4.4|9=79|35=A|34=1|49=CLIENT|52=20241009-13:41:00.821|56=MARKET_MAKER|98=0|108=90|141=Y|10=129|
20241009-13:41:00.908395000 : 8=FIX.4.4|9=79|35=A|34=1|49=MARKET_MAKER|52=20241009-13:41:00.905|56=CLIENT|98=0|108=90|141=Y|10=132|
20241009-13:43:02.333638000 : 8=FIX.4.4|9=79|35=A|34=1|49=CLIENT|52=20241009-13:43:02.286|56=MARKET_MAKER|98=0|108=90|141=Y|10=138|
20241009-13:43:02.371918000 : 8=FIX.4.4|9=79|35=A|34=1|49=MARKET_MAKER|52=20241009-13:43:02.368|56=CLIENT|98=0|108=90|141=Y|10=139|
20241009-13:44:51.234653000 : 8=FIX.4.4|9=79|35=A|34=1|49=CLIENT|52=20241009-13:44:51.199|56=MARKET_MAKER|98=0|108=90|141=Y|10=146|
20241009-13:44:51.283805000 : 8=FIX.4.4|9=79|35=A|34=1|49=MARKET_MAKER|52=20241009-13:44:51.280|56=CLIENT|98=0|108=90|141=Y|10=137|
20241009-14:30:46.259838000 : 8=FIX.4.4|9=79|35=A|34=1|49=CLIENT|52=20241009-14:30:46.215|56=MARKET_MAKER|98=0|108=90|141=Y|10=135|
20241009-14:30:46.299943000 : 8=FIX.4.4|9=79|35=A|34=1|49=MARKET_MAKER|52=20241009-14:30:46.297|56=CLIENT|98=0|108=90|141=Y|10=145|
20241009-14:32:16.439089000 : 8=FIX.4.4|9=61|35=0|34=2|49=CLIENT|52=20241009-14:32:16.434|56=MARKET_MAKER|10=036|
20241009-14:32:16.442797000 : 8=FIX.4.4|9=61|35=0|34=2|49=MARKET_MAKER|52=20241009-14:32:16.439|56=CLIENT|10=041|
20241009-14:33:46.557826000 : 8=FIX.4.4|9=61|35=0|34=3|49=MARKET_MAKER|52=20241009-14:33:46.554|56=CLIENT|10=044|
20241009-14:33:46.560770000 : 8=FIX.4.4|9=61|35=0|34=3|49=CLIENT|52=20241009-14:33:46.559|56=MARKET_MAKER|10=049|
20241009-14:35:16.180412000 : 8=FIX.4.4|9=61|35=0|34=4|49=MARKET_MAKER|52=20241009-14:35:16.177|56=CLIENT|10=045|
20241009-14:35:16.182157000 : 8=FIX.4.4|9=61|35=0|34=4|49=CLIENT|52=20241009-14:35:16.180|56=MARKET_MAKER|10=039|
20241009-14:36:46.181357000 : 8=FIX.4.4|9=61|35=0|34=5|49=MARKET_MAKER|52=20241009-14:36:46.179|56=CLIENT|10=052|
20241009-14:36:46.183569000 : 8=FIX.4.4|9=61|35=0|34=5|49=CLIENT|52=20241009-14:36:46.182|56=MARKET_MAKER|10=046|
20241009-14:38:16.852939000 : 8=FIX.4.4|9=61|35=0|34=6|49=MARKET_MAKER|52=20241009-14:38:16.681|56=CLIENT|10=050|
20241009-14:38:16.853272000 : 8=FIX.4.4|9=61|35=0|34=6|49=CLIENT|52=20241009-14:38:16.277|56=MARKET_MAKER|10=051|
20241009-14:39:46.455327000 : 8=FIX.4.4|9=61|35=0|34=7|49=CLIENT|52=20241009-14:39:46.451|56=MARKET_MAKER|10=050|
20241009-14:39:46.459750000 : 8=FIX.4.4|9=61|35=0|34=7|49=MARKET_MAKER|52=20241009-14:39:46.456|56=CLIENT|10=055|
20241009-14:41:16.582625000 : 8=FIX.4.4|9=61|35=0|34=8|49=CLIENT|52=20241009-14:41:16.574|56=MARKET_MAKER|10=047|
20241009-14:41:16.586881000 : 8=FIX.4.4|9=61|35=0|34=8|49=MARKET_MAKER|52=20241009-14:41:16.583|56=CLIENT|10=047|
20241009-14:42:46.149335000 : 8=FIX.4.4|9=61|35=0|34=9|49=CLIENT|52=20241009-14:42:46.144|56=MARKET_MAKER|10=045|
20241009-14:42:46.155542000 : 8=FIX.4.4|9=61|35=0|34=9|49=MARKET_MAKER|52=20241009-14:42:46.150|56=CLIENT|10=042|
20241009-14:44:16.353565000 : 8=FIX.4.4|9=62|35=0|34=10|49=CLIENT|52=20241009-14:44:16.318|56=MARKET_MAKER|10=088|
20241009-14:44:16.357202000 : 8=FIX.4.4|9=62|35=0|34=10|49=MARKET_MAKER|52=20241009-14:44:16.354|56=CLIENT|10=088|
20241009-14:45:46.290062000 : 8=FIX.4.4|9=62|35=0|34=11|49=MARKET_MAKER|52=20241009-14:45:46.208|56=CLIENT|10=091|
20241009-14:45:46.297050000 : 8=FIX.4.4|9=62|35=0|34=11|49=CLIENT|52=20241009-14:45:46.295|56=MARKET_MAKER|10=097|
20241009-14:46:42.796215000 : 8=FIX.4.4|9=62|35=5|34=12|49=MARKET_MAKER|52=20241009-14:46:42.772|56=CLIENT|10=100|
20241009-14:46:42.932098000 : 8=FIX.4.4|9=62|35=5|34=12|49=CLIENT|52=20241009-14:46:42.921|56=MARKET_MAKER|10=096|
20241009-14:54:05.340064000 : 8=FIX.4.4|9=79|35=A|34=1|49=CLIENT|52=20241009-14:54:05.298|56=MARKET_MAKER|98=0|108=90|141=Y|10=147|
20241009-14:54:05.399661000 : 8=FIX.4.4|9=79|35=A|34=1|49=MARKET_MAKER|52=20241009-14:54:05.396|56=CLIENT|98=0|108=90|141=Y|10=146|
20241009-14:55:36.342519000 : 8=FIX.4.4|9=61|35=0|34=2|49=MARKET_MAKER|52=20241009-14:55:35.522|56=CLIENT|10=040|
20241009-14:55:36.353189000 : 8=FIX.4.4|9=61|35=0|34=2|49=CLIENT|52=20241009-14:55:35.383|56=MARKET_MAKER|10=045|
20241009-14:57:05.832946000 : 8=FIX.4.4|9=61|35=0|34=3|49=CLIENT|52=20241009-14:57:05.828|56=MARKET_MAKER|10=049|
20241009-14:57:05.836637000 : 8=FIX.4.4|9=61|35=0|34=3|49=MARKET_MAKER|52=20241009-14:57:05.834|56=CLIENT|10=046|
20241009-14:58:35.778248000 : 8=FIX.4.4|9=61|35=0|34=4|49=CLIENT|52=20241009-14:58:35.775|56=MARKET_MAKER|10=055|
20241009-14:58:35.781725000 : 8=FIX.4.4|9=61|35=0|34=4|49=MARKET_MAKER|52=20241009-14:58:35.779|56=CLIENT|10=059|
20241009-15:00:05.253833000 : 8=FIX.4.4|9=61|35=0|34=5|49=CLIENT|52=20241009-15:00:05.248|56=MARKET_MAKER|10=036|
20241009-15:00:05.257849000 : 8=FIX.4.4|9=61|35=0|34=5|49=MARKET_MAKER|52=20241009-15:00:05.254|56=CLIENT|10=033|
20241009-15:01:35.187345000 : 8=FIX.4.4|9=61|35=0|34=6|49=CLIENT|52=20241009-15:01:35.176|56=MARKET_MAKER|10=041|
20241009-15:01:35.201851000 : 8=FIX.4.4|9=61|35=0|34=6|49=MARKET_MAKER|52=20241009-15:01:35.199|56=CLIENT|10=046|
20241009-15:03:05.464893000 : 8=FIX.4.4|9=61|35=0|34=7|49=CLIENT|52=20241009-15:03:05.460|56=MARKET_MAKER|10=037|
20241009-15:03:05.467487000 : 8=FIX.4.4|9=61|35=0|34=7|49=MARKET_MAKER|52=20241009-15:03:05.465|56=CLIENT|10=042|
20241009-15:04:35.264317000 : 8=FIX.4.4|9=61|35=0|34=8|49=CLIENT|52=20241009-15:04:35.199|56=MARKET_MAKER|10=051|
20241009-15:04:35.285698000 : 8=FIX.4.4|9=61|35=0|34=8|49=MARKET_MAKER|52=20241009-15:04:35.281|56=CLIENT|10=043|
20241009-15:06:05.232859000 : 8=FIX.4.4|9=61|35=0|34=9|49=MARKET_MAKER|52=20241009-15:06:05.228|56=CLIENT|10=044|
20241009-15:06:05.239273000 : 8=FIX.4.4|9=61|35=0|34=9|49=CLIENT|52=20241009-15:06:05.235|56=MARKET_MAKER|10=042|
20241009-15:07:35.494093000 : 8=FIX.4.4|9=62|35=0|34=10|49=CLIENT|52=20241009-15:07:35.491|56=MARKET_MAKER|10=091|
20241009-15:07:35.498882000 : 8=FIX.4.4|9=62|35=0|34=10|49=MARKET_MAKER|52=20241009-15:07:35.494|56=CLIENT|10=094|
20241009-15:09:05.100224000 : 8=FIX.4.4|9=62|35=0|34=11|49=CLIENT|52=20241009-15:09:05.094|56=MARKET_MAKER|10=090|
20241009-15:09:05.104887000 : 8=FIX.4.4|9=62|35=0|34=11|49=MARKET_MAKER|52=20241009-15:09:05.101|56=CLIENT|10=079|
20241009-15:10:35.851403000 : 8=FIX.4.4|9=62|35=0|34=12|49=CLIENT|52=20241009-15:10:35.847|56=MARKET_MAKER|10=092|
20241009-15:10:35.857783000 : 8=FIX.4.4|9=62|35=0|34=12|49=MARKET_MAKER|52=20241009-15:10:35.852|56=CLIENT|10=088|
20241009-15:12:05.060604000 : 8=FIX.4.4|9=62|35=0|34=13|49=CLIENT|52=20241009-15:12:05.044|56=MARKET_MAKER|10=081|
20241009-15:12:05.080581000 : 8=FIX.4.4|9=62|35=0|34=13|49=MARKET_MAKER|52=20241009-15:12:05.065|56=CLIENT|10=084|
20241009-15:13:35.195036000 : 8=FIX.4.4|9=62|35=0|34=14|49=MARKET_MAKER|52=20241009-15:13:35.191|56=CLIENT|10=089|
20241009-15:13:35.198976000 : 8=FIX.4.4|9=62|35=0|34=14|49=CLIENT|52=20241009-15:13:35.196|56=MARKET_MAKER|10=094|
20241009-15:13:40.634000000 : 8=FIX.4.4|9=62|35=5|34=15|49=MARKET_MAKER|52=20241009-15:13:40.631|56=CLIENT|10=090|
20241009-15:13:40.637850000 : 8=FIX.4.4|9=62|35=5|34=15|49=CLIENT|52=20241009-15:13:40.634|56=MARKET_MAKER|10=093|
20241009-15:13:58.295566000 : 8=FIX.4.4|9=79|35=A|34=1|49=CLIENT|52=20241009-15:13:58.243|56=MARKET_MAKER|98=0|108=90|141=Y|10=141|
20241009-15:13:58.444615000 : 8=FIX.4.4|9=79|35=A|34=1|49=MARKET_MAKER|52=20241009-15:13:58.443|56=CLIENT|98=0|108=90|141=Y|10=143|
20241009-15:15:28.056588000 : 8=FIX.4.4|9=61|35=0|34=2|49=MARKET_MAKER|52=20241009-15:15:28.051|56=CLIENT|10=036|
20241009-15:15:28.065039000 : 8=FIX.4.4|9=61|35=0|34=2|49=CLIENT|52=20241009-15:15:28.062|56=MARKET_MAKER|10=038|
20241009-15:16:58.054028000 : 8=FIX.4.4|9=61|35=0|34=3|49=MARKET_MAKER|52=20241009-15:16:58.050|56=CLIENT|10=040|
20241009-15:16:58.059007000 : 8=FIX.4.4|9=61|35=0|34=3|49=CLIENT|52=20241009-15:16:58.055|56=MARKET_MAKER|10=045|
20241009-15:18:28.791932000 : 8=FIX.4.4|9=61|35=0|34=4|49=MARKET_MAKER|52=20241009-15:18:28.544|56=CLIENT|10=048|
20241009-15:18:28.792471000 : 8=FIX.4.4|9=61|35=0|34=4|49=CLIENT|52=20241009-15:18:28.440|56=MARKET_MAKER|10=043|
20241009-15:19:25.549713000 : 8=FIX.4.4|9=61|35=5|34=5|49=CLIENT|52=20241009-15:19:25.547|56=MARKET_MAKER|10=055|
20241009-15:19:25.552231000 : 8=FIX.4.4|9=61|35=5|34=5|49=MARKET_MAKER|52=20241009-15:19:25.550|56=CLIENT|10=049|
