20241017-07:24:22.078523000 : 8=FIX.4.4|9=73|35=A|34=1|49=CLIENT|52=20241017-07:24:22.055|56=SERVER|98=0|108=30|141=Y|10=191|
20241017-07:24:52.657808000 : 8=FIX.4.4|9=73|35=A|34=1|49=CLIENT|52=20241017-07:24:52.628|56=SERVER|98=0|108=30|141=Y|10=200|
20241017-07:35:11.371291000 : 8=FIX.4.4|9=67|35=A|34=5|49=CLIENT|52=20241017-07:35:11.368|56=SERVER|98=0|108=15|10=163|
20241017-08:23:22.102998000 : 8=FIX.4.4|9=68|35=A|34=13|49=CLIENT|52=20241017-08:23:22.096|56=SERVER|98=0|108=15|10=209|
20241017-08:23:52.492423000 : 8=FIX.4.4|9=68|35=A|34=14|49=CLIENT|52=20241017-08:23:52.486|56=SERVER|98=0|108=15|10=216|
20241017-08:24:22.995923000 : 8=FIX.4.4|9=68|35=A|34=15|49=CLIENT|52=20241017-08:24:22.989|56=SERVER|98=0|108=15|10=223|
20241017-08:24:52.545513000 : 8=FIX.4.4|9=68|35=A|34=16|49=CLIENT|52=20241017-08:24:52.539|56=SERVER|98=0|108=15|10=218|
20241017-08:30:24.062570000 : 8=FIX.4.4|9=68|35=A|34=28|49=CLIENT|52=20241017-08:30:24.055|56=SERVER|98=0|108=15|10=210|
20241017-08:30:54.671257000 : 8=FIX.4.4|9=68|35=A|34=29|49=CLIENT|52=20241017-08:30:54.669|56=SERVER|98=0|108=15|10=225|
20241017-08:31:24.078808000 : 8=FIX.4.4|9=68|35=A|34=30|49=CLIENT|52=20241017-08:31:24.075|56=SERVER|98=0|108=15|10=206|
20241017-08:57:36.727995000 : 8=FIX.4.4|9=68|35=A|34=34|49=CLIENT|52=20241017-08:57:36.725|56=SERVER|98=0|108=15|10=223|
20241017-08:58:06.094272000 : 8=FIX.4.4|9=68|35=A|34=35|49=CLIENT|52=20241017-08:58:06.088|56=SERVER|98=0|108=15|10=224|
20241017-10:04:51.733385000 : 8=FIX.4.4|9=68|35=A|34=39|49=CLIENT|52=20241017-10:04:51.731|56=SERVER|98=0|108=25|10=208|
20241017-10:05:21.554622000 : 8=FIX.4.4|9=68|35=A|34=40|49=CLIENT|52=20241017-10:05:21.552|56=SERVER|98=0|108=25|10=199|
