20241017-07:24:21.749620000 : Accepted connection from 127.0.0.1 on port 5001
20241017-07:24:22.043371000 : Accepted connection from 127.0.0.1 on port 5001
20241017-07:24:22.078213000 : Session not found for incoming message: 8=FIX.4.4|9=73|35=A|34=1|49=CLIENT|52=20241017-07:24:22.055|56=SERVER|98=0|108=30|141=Y|10=191|
20241017-07:24:52.573751000 : Accepted connection from 127.0.0.1 on port 5001
20241017-07:24:52.657209000 : Session not found for incoming message: 8=FIX.4.4|9=73|35=A|34=1|49=CLIENT|52=20241017-07:24:52.628|56=SERVER|98=0|108=30|141=Y|10=200|
20241017-07:34:41.396267000 : Accepted connection from 127.0.0.1 on port 5001
20241017-07:34:41.692813000 : Accepted connection from 127.0.0.1 on port 5001
20241017-07:35:11.369043000 : Accepted connection from 127.0.0.1 on port 5001
20241017-07:35:11.371110000 : Session not found for incoming message: 8=FIX.4.4|9=67|35=A|34=5|49=CLIENT|52=20241017-07:35:11.368|56=SERVER|98=0|108=15|10=163|
20241017-07:35:41.498742000 : Accepted connection from 127.0.0.1 on port 5001
20241017-08:22:22.532833000 : Accepted connection from 127.0.0.1 on port 5001
20241017-08:22:22.855096000 : Accepted connection from 127.0.0.1 on port 5001
20241017-08:22:52.031919000 : Accepted connection from 127.0.0.1 on port 5001
20241017-08:22:52.395028000 : Accepted connection from 127.0.0.1 on port 5001
20241017-08:23:22.021255000 : Accepted connection from 127.0.0.1 on port 5001
20241017-08:23:22.096701000 : Accepted connection from 127.0.0.1 on port 5001
20241017-08:23:22.102577000 : Session not found for incoming message: 8=FIX.4.4|9=68|35=A|34=13|49=CLIENT|52=20241017-08:23:22.096|56=SERVER|98=0|108=15|10=209|
20241017-08:23:52.486939000 : Accepted connection from 127.0.0.1 on port 5001
20241017-08:23:52.491279000 : Session not found for incoming message: 8=FIX.4.4|9=68|35=A|34=14|49=CLIENT|52=20241017-08:23:52.486|56=SERVER|98=0|108=15|10=216|
20241017-08:24:22.988843000 : Accepted connection from 127.0.0.1 on port 5001
20241017-08:24:22.995363000 : Session not found for incoming message: 8=FIX.4.4|9=68|35=A|34=15|49=CLIENT|52=20241017-08:24:22.989|56=SERVER|98=0|108=15|10=223|
20241017-08:24:52.539335000 : Accepted connection from 127.0.0.1 on port 5001
20241017-08:24:52.544871000 : Session not found for incoming message: 8=FIX.4.4|9=68|35=A|34=16|49=CLIENT|52=20241017-08:24:52.539|56=SERVER|98=0|108=15|10=218|
20241017-08:30:23.781221000 : Accepted connection from 127.0.0.1 on port 5001
20241017-08:30:24.055639000 : Accepted connection from 127.0.0.1 on port 5001
20241017-08:30:24.062019000 : Session not found for incoming message: 8=FIX.4.4|9=68|35=A|34=28|49=CLIENT|52=20241017-08:30:24.055|56=SERVER|98=0|108=15|10=210|
20241017-08:30:54.669474000 : Accepted connection from 127.0.0.1 on port 5001
20241017-08:30:54.671135000 : Session not found for incoming message: 8=FIX.4.4|9=68|35=A|34=29|49=CLIENT|52=20241017-08:30:54.669|56=SERVER|98=0|108=15|10=225|
20241017-08:31:24.075375000 : Accepted connection from 127.0.0.1 on port 5001
20241017-08:31:24.078555000 : Session not found for incoming message: 8=FIX.4.4|9=68|35=A|34=30|49=CLIENT|52=20241017-08:31:24.075|56=SERVER|98=0|108=15|10=206|
20241017-08:57:36.504559000 : Accepted connection from 127.0.0.1 on port 5001
20241017-08:57:36.725260000 : Accepted connection from 127.0.0.1 on port 5001
20241017-08:57:36.727700000 : Session not found for incoming message: 8=FIX.4.4|9=68|35=A|34=34|49=CLIENT|52=20241017-08:57:36.725|56=SERVER|98=0|108=15|10=223|
20241017-08:58:06.088533000 : Accepted connection from 127.0.0.1 on port 5001
20241017-08:58:06.093510000 : Session not found for incoming message: 8=FIX.4.4|9=68|35=A|34=35|49=CLIENT|52=20241017-08:58:06.088|56=SERVER|98=0|108=15|10=224|
20241017-10:04:51.398944000 : Accepted connection from 127.0.0.1 on port 5001
20241017-10:04:51.731883000 : Accepted connection from 127.0.0.1 on port 5001
20241017-10:04:51.733255000 : Session not found for incoming message: 8=FIX.4.4|9=68|35=A|34=39|49=CLIENT|52=20241017-10:04:51.731|56=SERVER|98=0|108=25|10=208|
20241017-10:05:21.552287000 : Accepted connection from 127.0.0.1 on port 5001
20241017-10:05:21.554376000 : Session not found for incoming message: 8=FIX.4.4|9=68|35=A|34=40|49=CLIENT|52=20241017-10:05:21.552|56=SERVER|98=0|108=25|10=199|
20241017-10:05:51.628984000 : Accepted connection from 127.0.0.1 on port 5001
