8=FIX.4.4|9=72|35=A|34=1|49=CLIENT|52=20241017-14:00:59.198|56=MARKETMAKER|98=0|108=30|10=248|8=FIX.4.4|9=105|35=V|34=2|49=CLIENT|52=20241017-14:01:03.771|56=MARKETMAKER|146=1|55=EUR/USD|262=SUBSCRIBE_EUR/USD|263=1|10=184|8=FIX.4.4|9=105|35=V|34=3|49=CLIENT|52=20241017-14:01:12.815|56=MARKETMAKER|146=1|55=USD/JPY|262=SUBSCRIBE_USD/JPY|263=1|10=198|8=FIX.4.4|9=107|35=V|34=4|49=CLIENT|52=20241017-14:01:18.382|56=MARKETMAKER|146=1|55=USD/JPY|262=UNSUBSCRIBE_USD/JPY|263=2|10=114|8=FIX.4.4|9=107|35=V|34=5|49=CLIENT|52=20241017-14:01:29.527|56=MARKETMAKER|146=1|55=EUR/USD|262=UNSUBSCRIBE_EUR/USD|263=2|10=104|8=FIX.4.4|9=69|35=0|34=6|49=CLIENT|52=20241017-14:01:35.399|56=MARKETMAKER|112=TEST|10=233|8=FIX.4.4|9=72|35=A|34=7|49=CLIENT|52=20241017-14:09:05.623|56=MARKETMAKER|98=0|108=30|10=247|8=FIX.4.4|9=105|35=V|34=8|49=CLIENT|52=20241017-14:09:10.665|56=MARKETMAKER|146=1|55=EUR/USD|262=SUBSCRIBE_EUR/USD|263=1|10=198|8=FIX.4.4|9=107|35=V|34=9|49=CLIENT|52=20241017-14:09:40.042|56=MARKETMAKER|146=1|55=EUR/USD|262=UNSUBSCRIBE_EUR/USD|263=2|10=101|8=FIX.4.4|9=70|35=0|34=10|49=CLIENT|52=20241017-14:09:41.077|56=MARKETMAKER|112=TEST|10=010|8=FIX.4.4|9=61|35=0|34=11|49=CLIENT|52=20241017-14:10:11.182|56=MARKETMAKER|10=235|8=FIX.4.4|9=61|35=0|34=12|49=CLIENT|52=20241017-14:10:41.146|56=MARKETMAKER|10=239|8=FIX.4.4|9=61|35=0|34=13|49=CLIENT|52=20241017-14:11:11.216|56=MARKETMAKER|10=236|8=FIX.4.4|9=61|35=0|34=14|49=CLIENT|52=20241017-14:11:41.076|56=MARKETMAKER|10=244|8=FIX.4.4|9=73|35=A|34=15|49=CLIENT|52=20241017-14:12:05.051|56=MARKETMAKER|98=0|108=30|10=028|8=FIX.4.4|9=73|35=A|34=16|49=CLIENT|52=20241017-14:12:29.511|56=MARKETMAKER|98=0|108=30|10=036|8=FIX.4.4|9=106|35=V|34=17|49=CLIENT|52=20241017-14:12:31.790|56=MARKETMAKER|146=1|55=EUR/USD|262=SUBSCRIBE_EUR/USD|263=1|10=243|8=FIX.4.4|9=106|35=V|34=18|49=CLIENT|52=20241017-14:12:55.975|56=MARKETMAKER|146=1|55=USD/JPY|262=SUBSCRIBE_USD/JPY|263=1|10=013|8=FIX.4.4|9=70|35=0|34=19|49=CLIENT|52=20241017-14:13:05.955|56=MARKETMAKER|112=TEST|10=019|8=FIX.4.4|9=73|35=A|34=20|49=CLIENT|52=20241017-14:14:30.889|56=MARKETMAKER|98=0|108=30|10=043|8=FIX.4.4|9=106|35=V|34=21|49=CLIENT|52=20241017-14:14:33.045|56=MARKETMAKER|146=1|55=EUR/USD|262=SUBSCRIBE_EUR/USD|263=1|10=235|8=FIX.4.4|9=108|35=V|34=22|49=CLIENT|52=20241017-14:14:46.527|56=MARKETMAKER|146=1|55=EUR/USD|262=UNSUBSCRIBE_EUR/USD|263=2|10=155|8=FIX.4.4|9=73|35=A|34=23|49=CLIENT|52=20241017-14:24:05.860|56=MARKETMAKER|98=0|108=30|10=038|8=FIX.4.4|9=106|35=V|34=24|49=CLIENT|52=20241017-14:24:19.948|56=MARKETMAKER|146=1|55=EUR/USD|262=SUBSCRIBE_EUR/USD|263=1|10=255|8=FIX.4.4|9=106|35=V|34=25|49=CLIENT|52=20241017-14:24:41.074|56=MARKETMAKER|146=1|55=USD/JPY|262=SUBSCRIBE_USD/JPY|263=1|10=255|8=FIX.4.4|9=70|35=0|34=26|49=CLIENT|52=20241017-14:24:41.155|56=MARKETMAKER|112=TEST|10=011|8=FIX.4.4|9=108|35=V|34=27|49=CLIENT|52=20241017-14:24:55.182|56=MARKETMAKER|146=1|55=USD/JPY|262=UNSUBSCRIBE_USD/JPY|263=2|10=172|8=FIX.4.4|9=108|35=V|34=28|49=CLIENT|52=20241017-14:25:14.805|56=MARKETMAKER|146=1|55=EUR/USD|262=UNSUBSCRIBE_EUR/USD|263=2|10=157|8=FIX.4.4|9=70|35=0|34=29|49=CLIENT|52=20241017-14:25:17.753|56=MARKETMAKER|112=TEST|10=022|8=FIX.4.4|9=61|35=0|34=30|49=CLIENT|52=20241017-14:25:47.650|56=MARKETMAKER|10=251|8=FIX.4.4|9=61|35=0|34=31|49=CLIENT|52=20241017-14:26:17.553|56=MARKETMAKER|10=252|8=FIX.4.4|9=61|35=0|34=32|49=CLIENT|52=20241017-14:26:47.295|56=MARKETMAKER|10=003|8=FIX.4.4|9=61|35=0|34=33|49=CLIENT|52=20241017-14:27:17.333|56=MARKETMAKER|10=251|8=FIX.4.4|9=61|35=0|34=34|49=CLIENT|52=20241017-14:27:47.360|56=MARKETMAKER|10=255|8=FIX.4.4|9=61|35=0|34=35|49=CLIENT|52=20241017-14:28:17.000|56=MARKETMAKER|10=245|8=FIX.4.4|9=61|35=0|34=36|49=CLIENT|52=20241017-14:28:47.057|56=MARKETMAKER|10=005|8=FIX.4.4|9=61|35=0|34=37|49=CLIENT|52=20241017-14:29:17.170|56=MARKETMAKER|10=000|8=FIX.4.4|9=61|35=0|34=38|49=CLIENT|52=20241017-14:29:47.045|56=MARKETMAKER|10=005|8=FIX.4.4|9=61|35=0|34=39|49=CLIENT|52=20241017-14:30:17.019|56=MARKETMAKER|10=252|8=FIX.4.4|9=61|35=0|34=40|49=CLIENT|52=20241017-14:30:47.381|56=MARKETMAKER|10=249|8=FIX.4.4|9=61|35=0|34=41|49=CLIENT|52=20241017-14:31:17.197|56=MARKETMAKER|10=253|8=FIX.4.4|9=61|35=0|34=42|49=CLIENT|52=20241017-14:31:47.423|56=MARKETMAKER|10=249|8=FIX.4.4|9=61|35=0|34=43|49=CLIENT|52=20241017-14:32:17.495|56=MARKETMAKER|10=001|8=FIX.4.4|9=61|35=0|34=44|49=CLIENT|52=20241017-14:32:47.455|56=MARKETMAKER|10=001|8=FIX.4.4|9=61|35=0|34=45|49=CLIENT|52=20241017-14:33:17.117|56=MARKETMAKER|10=251|8=FIX.4.4|9=61|35=0|34=46|49=CLIENT|52=20241017-14:33:47.101|56=MARKETMAKER|10=248|8=FIX.4.4|9=61|35=0|34=47|49=CLIENT|52=20241017-14:34:17.194|56=MARKETMAKER|10=003|8=FIX.4.4|9=61|35=0|34=48|49=CLIENT|52=20241017-14:34:47.009|56=MARKETMAKER|10=002|8=FIX.4.4|9=61|35=0|34=49|49=CLIENT|52=20241017-14:35:17.045|56=MARKETMAKER|10=001|8=FIX.4.4|9=61|35=0|34=50|49=CLIENT|52=20241017-14:35:47.017|56=MARKETMAKER|10=251|8=FIX.4.4|9=61|35=0|34=51|49=CLIENT|52=20241017-14:36:17.000|56=MARKETMAKER|10=242|8=FIX.4.4|9=61|35=0|34=52|49=CLIENT|52=20241017-14:36:47.592|56=MARKETMAKER|10=006|8=FIX.4.4|9=61|35=0|34=53|49=CLIENT|52=20241017-14:37:17.233|56=MARKETMAKER|10=253|8=FIX.4.4|9=61|35=0|34=54|49=CLIENT|52=20241017-14:37:47.172|56=MARKETMAKER|10=003|8=FIX.4.4|9=73|35=A|34=55|49=CLIENT|52=20241017-14:55:59.445|56=MARKETMAKER|98=0|108=30|10=055|8=FIX.4.4|9=106|35=V|34=56|49=CLIENT|52=20241017-14:56:11.691|56=MARKETMAKER|146=1|55=EUR/USD|262=SUBSCRIBE_EUR/USD|263=1|10=252|8=FIX.4.4|9=70|35=0|34=57|49=CLIENT|52=20241017-14:56:35.627|56=MARKETMAKER|112=TEST|10=027|8=FIX.4.4|9=61|35=0|34=58|49=CLIENT|52=20241017-14:57:05.060|56=MARKETMAKER|10=255|8=FIX.4.4|9=106|35=V|34=59|49=CLIENT|52=20241017-14:57:27.647|56=MARKETMAKER|146=1|55=USD/JPY|262=SUBSCRIBE_USD/JPY|263=1|10=022|8=FIX.4.4|9=70|35=0|34=60|49=CLIENT|52=20241017-14:57:41.511|56=MARKETMAKER|112=TEST|10=011|8=FIX.4.4|9=61|35=0|34=61|49=CLIENT|52=20241017-14:58:11.387|56=MARKETMAKER|10=003|