8=FIX.4.4|9=73|35=A|34=1|49=CLIENT|52=20241017-07:24:52.628|56=SERVER|98=0|108=30|141=Y|10=200|8=FIX.4.4|9=67|35=A|34=2|49=CLIENT|52=20241017-07:34:41.396|56=SERVER|98=0|108=15|10=163|8=FIX.4.4|9=55|35=5|34=3|49=CLIENT|52=20241017-07:34:41.409|56=SERVER|10=116|8=FIX.4.4|9=67|35=A|34=4|49=CLIENT|52=20241017-07:34:41.411|56=SERVER|98=0|108=15|10=153|8=FIX.4.4|9=67|35=A|34=5|49=CLIENT|52=20241017-07:34:41.692|56=SERVER|98=0|108=15|10=165|8=FIX.4.4|9=64|35=2|34=6|49=CLIENT|52=20241017-07:34:41.696|56=SERVER|7=2|16=0|10=248|8=FIX.4.4|9=55|35=0|34=7|49=CLIENT|52=20241017-07:34:56.343|56=SERVER|10=118|8=FIX.4.4|9=96|35=V|34=8|49=CLIENT|52=20241017-07:34:59.707|56=SERVER|262=1|263=1|264=1|267=1|55=EUR/USD|269=0|10=147|8=FIX.4.4|9=67|35=A|34=5|49=CLIENT|52=20241017-07:35:11.368|56=SERVER|98=0|108=15|10=163|8=FIX.4.4|9=64|35=0|34=9|49=CLIENT|52=20241017-07:35:14.351|56=SERVER|112=TEST|10=132|8=FIX.4.4|9=97|35=V|34=10|49=CLIENT|52=20241017-07:35:21.210|56=SERVER|262=1|263=2|264=1|267=1|55=EUR/USD|269=0|10=169|8=FIX.4.4|9=97|35=V|34=11|49=CLIENT|52=20241017-07:35:22.439|56=SERVER|262=1|263=2|264=1|267=1|55=EUR/USD|269=0|10=184|8=FIX.4.4|9=65|35=0|34=12|49=CLIENT|52=20241017-07:35:32.267|56=SERVER|112=TEST|10=181|8=FIX.4.4|9=56|35=5|34=13|49=CLIENT|52=20241017-07:35:33.061|56=SERVER|10=162|8=FIX.4.4|9=67|35=A|34=6|49=CLIENT|52=20241017-07:35:41.498|56=SERVER|98=0|108=15|10=171|8=FIX.4.4|9=67|35=A|34=7|49=CLIENT|52=20241017-08:22:22.532|56=SERVER|98=0|108=15|10=157|8=FIX.4.4|9=55|35=5|34=8|49=CLIENT|52=20241017-08:22:22.538|56=SERVER|10=121|8=FIX.4.4|9=67|35=A|34=9|49=CLIENT|52=20241017-08:22:22.540|56=SERVER|98=0|108=15|10=158|8=FIX.4.4|9=68|35=A|34=10|49=CLIENT|52=20241017-08:22:22.854|56=SERVER|98=0|108=15|10=207|8=FIX.4.4|9=56|35=5|34=11|49=CLIENT|52=20241017-08:22:22.863|56=SERVER|10=165|8=FIX.4.4|9=68|35=A|34=12|49=CLIENT|52=20241017-08:22:22.864|56=SERVER|98=0|108=15|10=210|8=FIX.4.4|9=68|35=A|34=13|49=CLIENT|52=20241017-08:22:52.031|56=SERVER|98=0|108=15|10=200|8=FIX.4.4|9=56|35=5|34=14|49=CLIENT|52=20241017-08:22:52.037|56=SERVER|10=164|8=FIX.4.4|9=68|35=A|34=15|49=CLIENT|52=20241017-08:22:52.040|56=SERVER|98=0|108=15|10=202|8=FIX.4.4|9=68|35=A|34=10|49=CLIENT|52=20241017-08:22:52.394|56=SERVER|98=0|108=15|10=209|8=FIX.4.4|9=56|35=5|34=11|49=CLIENT|52=20241017-08:22:52.404|56=SERVER|10=159|8=FIX.4.4|9=68|35=A|34=12|49=CLIENT|52=20241017-08:22:52.434|56=SERVER|98=0|108=15|10=206|8=FIX.4.4|9=68|35=A|34=16|49=CLIENT|52=20241017-08:23:22.021|56=SERVER|98=0|108=15|10=200|8=FIX.4.4|9=65|35=2|34=17|49=CLIENT|52=20241017-08:23:22.033|56=SERVER|7=5|16=0|10=029|8=FIX.4.4|9=68|35=A|34=13|49=CLIENT|52=20241017-08:23:22.096|56=SERVER|98=0|108=15|10=209|8=FIX.4.4|9=56|35=0|34=18|49=CLIENT|52=20241017-08:23:37.276|56=SERVER|10=172|8=FIX.4.4|9=97|35=V|34=19|49=CLIENT|52=20241017-08:23:45.227|56=SERVER|262=1|263=1|264=1|267=1|55=EUR/USD|269=0|10=189|8=FIX.4.4|9=68|35=A|34=14|49=CLIENT|52=20241017-08:23:52.486|56=SERVER|98=0|108=15|10=216|8=FIX.4.4|9=65|35=0|34=20|49=CLIENT|52=20241017-08:23:55.378|56=SERVER|112=TEST|10=186|8=FIX.4.4|9=56|35=0|34=21|49=CLIENT|52=20241017-08:24:10.089|56=SERVER|10=160|8=FIX.4.4|9=68|35=A|34=15|49=CLIENT|52=20241017-08:24:22.989|56=SERVER|98=0|108=15|10=223|8=FIX.4.4|9=56|35=0|34=22|49=CLIENT|52=20241017-08:24:25.430|56=SERVER|10=157|8=FIX.4.4|9=56|35=0|34=23|49=CLIENT|52=20241017-08:24:40.029|56=SERVER|10=159|8=FIX.4.4|9=97|35=V|34=24|49=CLIENT|52=20241017-08:24:40.971|56=SERVER|262=1|263=2|264=1|267=1|55=EUR/USD|269=0|10=188|8=FIX.4.4|9=97|35=V|34=25|49=CLIENT|52=20241017-08:24:42.476|56=SERVER|262=1|263=2|264=1|267=1|55=EUR/USD|269=0|10=191|8=FIX.4.4|9=68|35=A|34=16|49=CLIENT|52=20241017-08:24:52.539|56=SERVER|98=0|108=15|10=218|8=FIX.4.4|9=56|35=5|34=26|49=CLIENT|52=20241017-08:24:54.638|56=SERVER|10=178|8=FIX.4.4|9=68|35=A|34=27|49=CLIENT|52=20241017-08:30:23.781|56=SERVER|98=0|108=15|10=214|8=FIX.4.4|9=68|35=A|34=28|49=CLIENT|52=20241017-08:30:24.055|56=SERVER|98=0|108=15|10=210|8=FIX.4.4|9=56|35=0|34=28|49=CLIENT|52=20241017-08:30:38.767|56=SERVER|10=177|8=FIX.4.4|9=56|35=0|34=29|49=CLIENT|52=20241017-08:30:53.503|56=SERVER|10=163|8=FIX.4.4|9=68|35=A|34=29|49=CLIENT|52=20241017-08:30:54.669|56=SERVER|98=0|108=15|10=225|8=FIX.4.4|9=56|35=0|34=30|49=CLIENT|52=20241017-08:31:08.304|56=SERVER|10=155|8=FIX.4.4|9=56|35=0|34=31|49=CLIENT|52=20241017-08:31:23.073|56=SERVER|10=156|8=FIX.4.4|9=68|35=A|34=30|49=CLIENT|52=20241017-08:31:24.075|56=SERVER|98=0|108=15|10=206|8=FIX.4.4|9=56|35=5|34=32|49=CLIENT|52=20241017-08:31:31.926|56=SERVER|10=168|8=FIX.4.4|9=68|35=A|34=33|49=CLIENT|52=20241017-08:57:36.504|56=SERVER|98=0|108=15|10=217|8=FIX.4.4|9=68|35=A|34=34|49=CLIENT|52=20241017-08:57:36.725|56=SERVER|98=0|108=15|10=223|8=FIX.4.4|9=56|35=0|34=34|49=CLIENT|52=20241017-08:57:51.502|56=SERVER|10=165|8=FIX.4.4|9=68|35=A|34=35|49=CLIENT|52=20241017-08:58:06.088|56=SERVER|98=0|108=15|10=224|8=FIX.4.4|9=56|35=0|34=35|49=CLIENT|52=20241017-08:58:06.481|56=SERVER|10=173|8=FIX.4.4|9=56|35=0|34=36|49=CLIENT|52=20241017-08:58:21.442|56=SERVER|10=168|8=FIX.4.4|9=56|35=5|34=37|49=CLIENT|52=20241017-08:58:29.485|56=SERVER|10=189|8=FIX.4.4|9=68|35=A|34=38|49=CLIENT|52=20241017-10:04:51.398|56=SERVER|98=0|108=25|10=216|8=FIX.4.4|9=68|35=A|34=39|49=CLIENT|52=20241017-10:04:51.731|56=SERVER|98=0|108=25|10=208|8=FIX.4.4|9=56|35=0|34=39|49=CLIENT|52=20241017-10:05:16.372|56=SERVER|10=162|8=FIX.4.4|9=68|35=A|34=40|49=CLIENT|52=20241017-10:05:21.552|56=SERVER|98=0|108=25|10=199|8=FIX.4.4|9=56|35=0|34=40|49=CLIENT|52=20241017-10:05:41.268|56=SERVER|10=156|8=FIX.4.4|9=56|35=5|34=41|49=CLIENT|52=20241017-10:05:49.219|56=SERVER|10=166|8=FIX.4.4|9=68|35=A|34=41|49=CLIENT|52=20241017-10:05:51.628|56=SERVER|98=0|108=25|10=207|8=FIX.4.4|9=56|35=5|34=42|49=CLIENT|52=20241017-10:05:51.631|56=SERVER|10=158|8=FIX.4.4|9=68|35=A|34=43|49=CLIENT|52=20241017-10:05:51.632|56=SERVER|98=0|108=25|10=204|