20241008-08:08:32.979057000 : 8=FIX.4.4|9=79|35=A|34=1|49=CLIENT|52=20241008-08:08:32.953|56=MARKET_MAKER|98=0|108=90|141=Y|10=146|
20241008-08:08:33.010236000 : 8=FIX.4.4|9=79|35=A|34=1|49=MARKET_MAKER|52=20241008-08:08:33.007|56=CLIENT|98=0|108=90|141=Y|10=137|
20241008-08:09:41.384135000 : 8=FIX.4.4|9=79|35=A|34=1|49=CLIENT|52=20241008-08:09:41.361|56=MARKET_MAKER|98=0|108=90|141=Y|10=140|
20241008-08:09:41.476892000 : 8=FIX.4.4|9=79|35=A|34=1|49=MARKET_MAKER|52=20241008-08:09:41.473|56=CLIENT|98=0|108=90|141=Y|10=144|
20241008-08:14:06.906381000 : 8=FIX.4.4|9=79|35=A|34=1|49=CLIENT|52=20241008-08:14:06.875|56=MARKET_MAKER|98=0|108=90|141=Y|10=147|
20241008-08:14:06.951588000 : 8=FIX.4.4|9=79|35=A|34=1|49=MARKET_MAKER|52=20241008-08:14:06.949|56=CLIENT|98=0|108=90|141=Y|10=149|
20241008-08:15:44.828439000 : 8=FIX.4.4|9=79|35=A|34=1|49=CLIENT|52=20241008-08:15:44.809|56=MARKET_MAKER|98=0|108=90|141=Y|10=147|
20241008-08:15:44.854103000 : 8=FIX.4.4|9=79|35=A|34=1|49=MARKET_MAKER|52=20241008-08:15:44.852|56=CLIENT|98=0|108=90|141=Y|10=145|
20241008-08:31:29.472501000 : 8=FIX.4.4|9=79|35=A|34=1|49=CLIENT|52=20241008-08:31:29.438|56=MARKET_MAKER|98=0|108=90|141=Y|10=146|
20241008-08:45:53.670780000 : 8=FIX.4.4|9=79|35=A|34=1|49=CLIENT|52=20241008-08:45:53.645|56=MARKET_MAKER|98=0|108=90|141=Y|10=148|
20241008-08:45:53.704877000 : 8=FIX.4.4|9=79|35=A|34=1|49=MARKET_MAKER|52=20241008-08:45:53.701|56=CLIENT|98=0|108=90|141=Y|10=141|
20241008-08:46:03.682359000 : 8=FIX.4.4|9=61|35=5|34=2|49=CLIENT|52=20241008-08:46:03.679|56=MARKET_MAKER|10=055|
20241008-08:46:03.685694000 : 8=FIX.4.4|9=61|35=5|34=2|49=MARKET_MAKER|52=20241008-08:46:03.683|56=CLIENT|10=050|
20241008-08:56:58.895717000 : 8=FIX.4.4|9=79|35=A|34=1|49=CLIENT|52=20241008-08:56:58.869|56=MARKET_MAKER|98=0|108=90|141=Y|10=163|
20241008-08:56:58.925030000 : 8=FIX.4.4|9=79|35=A|34=1|49=MARKET_MAKER|52=20241008-08:56:58.923|56=CLIENT|98=0|108=90|141=Y|10=154|
20241008-08:57:15.309596000 : 8=FIX.4.4|9=79|35=A|34=1|49=CLIENT|52=20241008-08:57:15.259|56=MARKET_MAKER|98=0|108=90|141=Y|10=150|
20241008-08:57:15.357283000 : 8=FIX.4.4|9=79|35=A|34=1|49=MARKET_MAKER|52=20241008-08:57:15.354|56=CLIENT|98=0|108=90|141=Y|10=146|
20241008-08:58:35.318828000 : 8=FIX.4.4|9=79|35=A|34=1|49=CLIENT|52=20241008-08:58:35.286|56=MARKET_MAKER|98=0|108=90|141=Y|10=153|
20241008-08:58:35.341405000 : 8=FIX.4.4|9=79|35=A|34=1|49=MARKET_MAKER|52=20241008-08:58:35.338|56=CLIENT|98=0|108=90|141=Y|10=151|
20241008-08:59:05.428035000 : 8=FIX.4.4|9=79|35=A|34=1|49=CLIENT|52=20241008-08:59:05.398|56=MARKET_MAKER|98=0|108=90|141=Y|10=155|
20241008-08:59:05.447961000 : 8=FIX.4.4|9=79|35=A|34=1|49=MARKET_MAKER|52=20241008-08:59:05.446|56=CLIENT|98=0|108=90|141=Y|10=149|
20241008-09:00:30.236211000 : 8=FIX.4.4|9=79|35=A|34=1|49=CLIENT|52=20241008-09:00:30.221|56=MARKET_MAKER|98=0|108=90|141=Y|10=125|
20241008-09:00:30.271348000 : 8=FIX.4.4|9=79|35=A|34=1|49=MARKET_MAKER|52=20241008-09:00:30.268|56=CLIENT|98=0|108=90|141=Y|10=136|
20241008-09:00:44.309853000 : 8=FIX.4.4|9=79|35=A|34=1|49=CLIENT|52=20241008-09:00:44.265|56=MARKET_MAKER|98=0|108=90|141=Y|10=138|
20241008-09:00:44.361789000 : 8=FIX.4.4|9=79|35=A|34=1|49=MARKET_MAKER|52=20241008-09:00:44.358|56=CLIENT|98=0|108=90|141=Y|10=141|
20241008-09:08:13.170897000 : 8=FIX.4.4|9=79|35=A|34=1|49=CLIENT|52=20241008-09:08:13.099|56=MARKET_MAKER|98=0|108=90|141=Y|10=147|
20241008-09:08:13.201134000 : 8=FIX.4.4|9=79|35=A|34=1|49=MARKET_MAKER|52=20241008-09:08:13.198|56=CLIENT|98=0|108=90|141=Y|10=147|
20241008-09:14:33.801009000 : 8=FIX.4.4|9=79|35=A|34=1|49=CLIENT|52=20241008-09:14:33.722|56=MARKET_MAKER|98=0|108=90|141=Y|10=139|
20241008-09:14:33.824189000 : 8=FIX.4.4|9=79|35=A|34=1|49=MARKET_MAKER|52=20241008-09:14:33.822|56=CLIENT|98=0|108=90|141=Y|10=140|
20241008-09:15:11.000956000 : 8=FIX.4.4|9=79|35=A|34=1|49=CLIENT|52=20241008-09:15:10.974|56=MARKET_MAKER|98=0|108=90|141=Y|10=144|
20241008-09:15:11.032040000 : 8=FIX.4.4|9=79|35=A|34=1|49=MARKET_MAKER|52=20241008-09:15:11.029|56=CLIENT|98=0|108=90|141=Y|10=136|
20241008-09:15:59.735468000 : 8=FIX.4.4|9=79|35=A|34=1|49=CLIENT|52=20241008-09:15:59.706|56=MARKET_MAKER|98=0|108=90|141=Y|10=150|
20241008-09:15:59.760952000 : 8=FIX.4.4|9=79|35=A|34=1|49=MARKET_MAKER|52=20241008-09:15:59.759|56=CLIENT|98=0|108=90|141=Y|10=158|
20241008-09:16:35.724192000 : 8=FIX.4.4|9=79|35=A|34=1|49=CLIENT|52=20241008-09:16:35.677|56=MARKET_MAKER|98=0|108=90|141=Y|10=152|
20241008-09:16:35.782837000 : 8=FIX.4.4|9=79|35=A|34=1|49=MARKET_MAKER|52=20241008-09:16:35.778|56=CLIENT|98=0|108=90|141=Y|10=154|
20241008-09:17:08.382138000 : 8=FIX.4.4|9=79|35=A|34=1|49=CLIENT|52=20241008-09:17:08.357|56=MARKET_MAKER|98=0|108=90|141=Y|10=148|
20241008-09:17:08.404720000 : 8=FIX.4.4|9=79|35=A|34=1|49=MARKET_MAKER|52=20241008-09:17:08.403|56=CLIENT|98=0|108=90|141=Y|10=140|
20241008-09:21:39.087406000 : 8=FIX.4.4|9=79|35=A|34=1|49=CLIENT|52=20241008-09:21:39.061|56=MARKET_MAKER|98=0|108=90|141=Y|10=139|
20241008-09:22:31.120975000 : 8=FIX.4.4|9=79|35=A|34=1|49=CLIENT|52=20241008-09:22:31.100|56=MARKET_MAKER|98=0|108=90|141=Y|10=126|
20241008-09:23:37.265578000 : 8=FIX.4.4|9=79|35=A|34=1|49=CLIENT|52=20241008-09:23:37.216|56=MARKET_MAKER|98=0|108=90|141=Y|10=141|
20241008-09:25:37.731110000 : 8=FIX.4.4|9=79|35=A|34=1|49=CLIENT|52=20241008-09:25:37.694|56=MARKET_MAKER|98=0|108=90|141=Y|10=153|
20241008-09:26:33.500342000 : 8=FIX.4.4|9=79|35=A|34=1|49=CLIENT|52=20241008-09:26:33.458|56=MARKET_MAKER|98=0|108=90|141=Y|10=148|
20241008-09:28:12.329218000 : 8=FIX.4.4|9=79|35=A|34=1|49=CLIENT|52=20241008-09:28:12.303|56=MARKET_MAKER|98=0|108=90|141=Y|10=136|
20241008-09:29:12.720404000 : 8=FIX.4.4|9=79|35=A|34=1|49=CLIENT|52=20241008-09:29:12.688|56=MARKET_MAKER|98=0|108=90|141=Y|10=153|
20241008-09:29:12.751447000 : 8=FIX.4.4|9=79|35=A|34=1|49=MARKET_MAKER|52=20241008-09:29:12.749|56=CLIENT|98=0|108=90|141=Y|10=151|
20241008-09:29:13.756404000 : 8=FIX.4.4|9=61|35=5|34=2|49=CLIENT|52=20241008-09:29:13.752|56=MARKET_MAKER|10=050|
20241008-09:29:13.763887000 : 8=FIX.4.4|9=61|35=5|34=2|49=MARKET_MAKER|52=20241008-09:29:13.758|56=CLIENT|10=056|
20241008-09:31:08.978668000 : 8=FIX.4.4|9=79|35=A|34=1|49=CLIENT|52=20241008-09:31:08.934|56=MARKET_MAKER|98=0|108=90|141=Y|10=145|
20241008-09:31:09.024841000 : 8=FIX.4.4|9=79|35=A|34=1|49=MARKET_MAKER|52=20241008-09:31:09.021|56=CLIENT|98=0|108=90|141=Y|10=133|
20241008-09:31:12.021763000 : 8=FIX.4.4|9=61|35=5|34=2|49=CLIENT|52=20241008-09:31:12.017|56=MARKET_MAKER|10=036|
20241008-09:31:12.030695000 : 8=FIX.4.4|9=61|35=5|34=2|49=MARKET_MAKER|52=20241008-09:31:12.023|56=CLIENT|10=033|
20241008-13:37:57.772899000 : 8=FIX.4.4|9=79|35=A|34=1|49=CLIENT|52=20241008-13:37:57.725|56=MARKET_MAKER|98=0|108=90|141=Y|10=148|
20241008-13:37:57.832658000 : 8=FIX.4.4|9=79|35=A|34=1|49=MARKET_MAKER|52=20241008-13:37:57.829|56=CLIENT|98=0|108=90|141=Y|10=153|
20241008-13:38:00.826456000 : 8=FIX.4.4|9=61|35=5|34=2|49=CLIENT|52=20241008-13:38:00.823|56=MARKET_MAKER|10=040|
20241008-13:38:00.830102000 : 8=FIX.4.4|9=61|35=5|34=2|49=MARKET_MAKER|52=20241008-13:38:00.827|56=CLIENT|10=044|
20241008-13:39:39.477950000 : 8=FIX.4.4|9=79|35=A|34=1|49=CLIENT|52=20241008-13:39:39.432|56=MARKET_MAKER|98=0|108=90|141=Y|10=145|
20241008-13:39:39.506863000 : 8=FIX.4.4|9=79|35=A|34=1|49=MARKET_MAKER|52=20241008-13:39:39.504|56=CLIENT|98=0|108=90|141=Y|10=145|
20241008-13:39:42.504412000 : 8=FIX.4.4|9=61|35=5|34=2|49=CLIENT|52=20241008-13:39:42.501|56=MARKET_MAKER|10=040|
20241008-13:39:42.537949000 : 8=FIX.4.4|9=61|35=5|34=2|49=MARKET_MAKER|52=20241008-13:39:42.529|56=CLIENT|10=050|
20241008-13:42:02.986517000 : 8=FIX.4.4|9=79|35=A|34=1|49=CLIENT|52=20241008-13:42:02.937|56=MARKET_MAKER|98=0|108=90|141=Y|10=139|
20241008-13:42:03.027299000 : 8=FIX.4.4|9=79|35=A|34=1|49=MARKET_MAKER|52=20241008-13:42:03.025|56=CLIENT|98=0|108=90|141=Y|10=128|
20241008-13:42:05.925810000 : 8=FIX.4.4|9=126|35=D|34=2|49=CLIENT|52=20241008-13:42:05.919|56=MARKET_MAKER|11=12345|38=100|40=||44=150|54=||55=USD/BRL|60=20241008-13:42:05|10=119|
20241008-13:43:33.204338000 : 8=FIX.4.4|9=61|35=0|34=2|49=MARKET_MAKER|52=20241008-13:43:33.199|56=CLIENT|10=043|
20241008-13:43:35.130959000 : 8=FIX.4.4|9=61|35=0|34=3|49=CLIENT|52=20241008-13:43:35.126|56=MARKET_MAKER|10=036|
20241008-13:43:35.141725000 : 8=FIX.4.4|9=70|35=2|34=3|49=MARKET_MAKER|52=20241008-13:43:35.133|56=CLIENT|7=2|16=0|10=160|
20241008-13:43:51.527519000 : 8=FIX.4.4|9=70|35=1|34=4|49=MARKET_MAKER|52=20241008-13:43:51.526|56=CLIENT|112=TEST|10=058|
20241008-13:43:51.528967000 : 8=FIX.4.4|9=70|35=2|34=4|49=CLIENT|52=20241008-13:43:51.527|56=MARKET_MAKER|7=3|16=0|10=167|
20241008-13:43:51.530768000 : 8=FIX.4.4|9=103|35=4|34=3|43=Y|49=MARKET_MAKER|52=20241008-13:43:51.529|56=CLIENT|122=20241008-13:43:51.529|36=5|123=Y|10=101|
20241008-13:45:21.412614000 : 8=FIX.4.4|9=61|35=0|34=5|49=CLIENT|52=20241008-13:45:21.410|56=MARKET_MAKER|10=031|
20241008-13:45:21.417830000 : 8=FIX.4.4|9=61|35=0|34=5|49=MARKET_MAKER|52=20241008-13:45:21.414|56=CLIENT|10=035|
20241008-13:45:39.520372000 : 8=FIX.4.4|9=70|35=1|34=6|49=MARKET_MAKER|52=20241008-13:45:39.518|56=CLIENT|112=TEST|10=069|
20241008-13:45:39.521693000 : 8=FIX.4.4|9=70|35=0|34=6|49=CLIENT|52=20241008-13:45:39.520|56=MARKET_MAKER|112=TEST|10=061|
20241008-13:47:09.336342000 : 8=FIX.4.4|9=61|35=0|34=7|49=CLIENT|52=20241008-13:47:09.313|56=MARKET_MAKER|10=043|
20241008-13:48:02.762026000 : 8=FIX.4.4|9=79|35=A|34=1|49=CLIENT|52=20241008-13:48:02.749|56=MARKET_MAKER|98=0|108=90|141=Y|10=146|
20241008-13:48:02.774188000 : 8=FIX.4.4|9=79|35=A|34=1|49=MARKET_MAKER|52=20241008-13:48:02.772|56=CLIENT|98=0|108=90|141=Y|10=142|
20241008-13:49:32.187140000 : 8=FIX.4.4|9=61|35=0|34=2|49=CLIENT|52=20241008-13:49:32.156|56=MARKET_MAKER|10=041|
20241008-13:49:32.189906000 : 8=FIX.4.4|9=61|35=0|34=2|49=MARKET_MAKER|52=20241008-13:49:32.188|56=CLIENT|10=046|
20241008-13:51:02.257703000 : 8=FIX.4.4|9=61|35=0|34=3|49=MARKET_MAKER|52=20241008-13:51:02.254|56=CLIENT|10=031|
20241008-13:51:02.262618000 : 8=FIX.4.4|9=61|35=0|34=3|49=CLIENT|52=20241008-13:51:02.258|56=MARKET_MAKER|10=035|
20241008-13:51:14.277273000 : 8=FIX.4.4|9=61|35=5|34=4|49=MARKET_MAKER|52=20241008-13:51:14.270|56=CLIENT|10=038|
20241008-13:51:14.284492000 : 8=FIX.4.4|9=61|35=5|34=4|49=CLIENT|52=20241008-13:51:14.278|56=MARKET_MAKER|10=046|
20241008-13:51:52.149975000 : 8=FIX.4.4|9=79|35=A|34=1|49=CLIENT|52=20241008-13:51:52.119|56=MARKET_MAKER|98=0|108=90|141=Y|10=136|
20241008-13:51:52.183857000 : 8=FIX.4.4|9=79|35=A|34=1|49=MARKET_MAKER|52=20241008-13:51:52.181|56=CLIENT|98=0|108=90|141=Y|10=135|
20241008-13:51:55.098451000 : 8=FIX.4.4|9=126|35=D|34=2|49=CLIENT|52=20241008-13:51:55.095|56=MARKET_MAKER|11=12345|38=100|40=2|44=150|54=||55=USD/BRL|60=20241008-13:51:55|10=173|
20241008-13:53:22.582812000 : 8=FIX.4.4|9=61|35=0|34=2|49=MARKET_MAKER|52=20241008-13:53:22.575|56=CLIENT|10=040|
20241008-13:53:25.548426000 : 8=FIX.4.4|9=61|35=0|34=3|49=CLIENT|52=20241008-13:53:25.542|56=MARKET_MAKER|10=038|
20241008-13:53:25.559980000 : 8=FIX.4.4|9=70|35=2|34=3|49=MARKET_MAKER|52=20241008-13:53:25.550|56=CLIENT|7=2|16=0|10=163|
20241008-13:53:40.367646000 : 8=FIX.4.4|9=70|35=1|34=4|49=MARKET_MAKER|52=20241008-13:53:40.365|56=CLIENT|112=TEST|10=058|
20241008-13:53:40.369216000 : 8=FIX.4.4|9=70|35=2|34=4|49=CLIENT|52=20241008-13:53:40.368|56=MARKET_MAKER|7=3|16=0|10=169|
20241008-13:53:40.370522000 : 8=FIX.4.4|9=103|35=4|34=3|43=Y|49=MARKET_MAKER|52=20241008-13:53:40.370|56=CLIENT|122=20241008-13:53:40.370|36=5|123=Y|10=087|
20241008-13:54:39.376974000 : 8=FIX.4.4|9=61|35=5|34=5|49=MARKET_MAKER|52=20241008-13:54:39.374|56=CLIENT|10=054|
20241008-13:54:39.378381000 : 8=FIX.4.4|9=61|35=5|34=5|49=CLIENT|52=20241008-13:54:39.377|56=MARKET_MAKER|10=057|
20241008-13:55:09.676538000 : 8=FIX.4.4|9=79|35=A|34=1|49=CLIENT|52=20241008-13:55:09.662|56=MARKET_MAKER|98=0|108=90|141=Y|10=145|
20241008-13:55:09.694165000 : 8=FIX.4.4|9=79|35=A|34=1|49=MARKET_MAKER|52=20241008-13:55:09.692|56=CLIENT|98=0|108=90|141=Y|10=148|
20241008-13:55:12.642781000 : 8=FIX.4.4|9=126|35=D|34=2|49=CLIENT|52=20241008-13:55:12.629|56=MARKET_MAKER|11=12345|38=100|40=2|44=150|54=||55=USD/BRL|60=20241008-13:55:12|10=170|
20241008-13:56:39.231234000 : 8=FIX.4.4|9=61|35=0|34=2|49=MARKET_MAKER|52=20241008-13:56:39.229|56=CLIENT|10=047|
20241008-13:56:42.138394000 : 8=FIX.4.4|9=61|35=0|34=3|49=CLIENT|52=20241008-13:56:42.136|56=MARKET_MAKER|10=039|
20241008-13:56:42.139923000 : 8=FIX.4.4|9=70|35=2|34=3|49=MARKET_MAKER|52=20241008-13:56:42.138|56=CLIENT|7=2|16=0|10=167|
20241008-13:56:57.004300000 : 8=FIX.4.4|9=70|35=1|34=4|49=MARKET_MAKER|52=20241008-13:56:57.001|56=CLIENT|112=TEST|10=056|
20241008-13:56:57.008737000 : 8=FIX.4.4|9=70|35=2|34=4|49=CLIENT|52=20241008-13:56:57.006|56=MARKET_MAKER|7=3|16=0|10=169|
20241008-13:56:57.010674000 : 8=FIX.4.4|9=103|35=4|34=3|43=Y|49=MARKET_MAKER|52=20241008-13:56:57.010|56=CLIENT|122=20241008-13:56:57.010|36=5|123=Y|10=091|
20241008-13:57:10.864714000 : 8=FIX.4.4|9=61|35=5|34=5|49=MARKET_MAKER|52=20241008-13:57:10.859|56=CLIENT|10=054|
20241008-13:57:10.882802000 : 8=FIX.4.4|9=61|35=5|34=5|49=CLIENT|52=20241008-13:57:10.872|56=MARKET_MAKER|10=049|
20241008-13:57:26.905196000 : 8=FIX.4.4|9=79|35=A|34=1|49=CLIENT|52=20241008-13:57:26.854|56=MARKET_MAKER|98=0|108=90|141=Y|10=149|
20241008-13:57:26.977532000 : 8=FIX.4.4|9=79|35=A|34=1|49=MARKET_MAKER|52=20241008-13:57:26.952|56=CLIENT|98=0|108=90|141=Y|10=148|
20241008-13:57:29.820243000 : 8=FIX.4.4|9=126|35=D|34=2|49=CLIENT|52=20241008-13:57:29.816|56=MARKET_MAKER|11=12345|38=100|40=||44=150|54=||55=USD/BRL|60=20241008-13:57:29|10=139|
20241008-13:58:56.373015000 : 8=FIX.4.4|9=61|35=0|34=2|49=MARKET_MAKER|52=20241008-13:58:56.371|56=CLIENT|10=046|
20241008-13:58:59.342395000 : 8=FIX.4.4|9=61|35=0|34=3|49=CLIENT|52=20241008-13:58:59.337|56=MARKET_MAKER|10=052|
20241008-13:58:59.348553000 : 8=FIX.4.4|9=70|35=2|34=3|49=MARKET_MAKER|52=20241008-13:58:59.343|56=CLIENT|7=2|16=0|10=175|
20241008-13:59:14.811441000 : 8=FIX.4.4|9=70|35=1|34=4|49=MARKET_MAKER|52=20241008-13:59:14.803|56=CLIENT|112=TEST|10=062|
20241008-13:59:14.826387000 : 8=FIX.4.4|9=70|35=2|34=4|49=CLIENT|52=20241008-13:59:14.812|56=MARKET_MAKER|7=3|16=0|10=170|
20241008-13:59:14.829107000 : 8=FIX.4.4|9=103|35=4|34=3|43=Y|49=MARKET_MAKER|52=20241008-13:59:14.828|56=CLIENT|122=20241008-13:59:14.828|36=5|123=Y|10=117|
20241008-13:59:32.173694000 : 8=FIX.4.4|9=61|35=5|34=5|49=MARKET_MAKER|52=20241008-13:59:32.171|56=CLIENT|10=047|
20241008-13:59:32.181415000 : 8=FIX.4.4|9=61|35=5|34=5|49=CLIENT|52=20241008-13:59:32.174|56=MARKET_MAKER|10=050|
20241008-14:14:21.597535000 : 8=FIX.4.4|9=79|35=A|34=1|49=CLIENT|52=20241008-14:14:21.556|56=MARKET_MAKER|98=0|108=90|141=Y|10=137|
20241008-14:14:21.643121000 : 8=FIX.4.4|9=79|35=A|34=1|49=MARKET_MAKER|52=20241008-14:14:21.638|56=CLIENT|98=0|108=90|141=Y|10=138|
20241008-14:14:24.514903000 : 8=FIX.4.4|9=126|35=D|34=2|49=CLIENT|52=20241008-14:14:24.512|56=MARKET_MAKER|11=12345|38=100|40=||44=150|54=||55=USD/BRL|60=20241008-14:14:24|10=110|
20241008-14:15:51.846646000 : 8=FIX.4.4|9=61|35=0|34=2|49=MARKET_MAKER|52=20241008-14:15:51.839|56=CLIENT|10=044|
20241008-14:15:54.807256000 : 8=FIX.4.4|9=61|35=0|34=3|49=CLIENT|52=20241008-14:15:54.803|56=MARKET_MAKER|10=039|
20241008-14:15:54.822707000 : 8=FIX.4.4|9=70|35=2|34=3|49=MARKET_MAKER|52=20241008-14:15:54.811|56=CLIENT|7=2|16=0|10=164|
20241008-14:16:09.618569000 : 8=FIX.4.4|9=70|35=1|34=4|49=MARKET_MAKER|52=20241008-14:16:09.616|56=CLIENT|112=TEST|10=062|
20241008-14:16:09.620094000 : 8=FIX.4.4|9=70|35=2|34=4|49=CLIENT|52=20241008-14:16:09.618|56=MARKET_MAKER|7=3|16=0|10=172|
20241008-14:16:09.622608000 : 8=FIX.4.4|9=103|35=4|34=3|43=Y|49=MARKET_MAKER|52=20241008-14:16:09.620|56=CLIENT|122=20241008-14:16:09.620|36=5|123=Y|10=093|
20241008-14:17:39.710429000 : 8=FIX.4.4|9=61|35=0|34=5|49=CLIENT|52=20241008-14:17:39.706|56=MARKET_MAKER|10=048|
20241008-14:17:39.717777000 : 8=FIX.4.4|9=61|35=0|34=5|49=MARKET_MAKER|52=20241008-14:17:39.713|56=CLIENT|10=046|
20241008-14:17:57.394194000 : 8=FIX.4.4|9=70|35=1|34=6|49=MARKET_MAKER|52=20241008-14:17:57.308|56=CLIENT|112=TEST|10=066|
20241008-14:17:57.405234000 : 8=FIX.4.4|9=70|35=0|34=6|49=CLIENT|52=20241008-14:17:57.394|56=MARKET_MAKER|112=TEST|10=070|
20241008-14:18:46.086677000 : 8=FIX.4.4|9=61|35=5|34=7|49=MARKET_MAKER|52=20241008-14:18:46.080|56=CLIENT|10=049|
20241008-14:18:46.090855000 : 8=FIX.4.4|9=61|35=5|34=7|49=CLIENT|52=20241008-14:18:46.087|56=MARKET_MAKER|10=056|
20241008-14:19:00.805496000 : 8=FIX.4.4|9=79|35=A|34=1|49=CLIENT|52=20241008-14:19:00.766|56=MARKET_MAKER|98=0|108=90|141=Y|10=142|
20241008-14:19:00.831454000 : 8=FIX.4.4|9=79|35=A|34=1|49=MARKET_MAKER|52=20241008-14:19:00.829|56=CLIENT|98=0|108=90|141=Y|10=142|
20241008-14:19:03.739951000 : 8=FIX.4.4|9=126|35=D|34=2|49=CLIENT|52=20241008-14:19:03.734|56=MARKET_MAKER|11=12345|38=100|40=||44=150|54=||55=USD/BRL|60=20241008-14:19:03|10=120|
20241008-14:20:30.339351000 : 8=FIX.4.4|9=61|35=0|34=2|49=MARKET_MAKER|52=20241008-14:20:30.335|56=CLIENT|10=028|
20241008-14:20:33.323936000 : 8=FIX.4.4|9=61|35=0|34=3|49=CLIENT|52=20241008-14:20:33.292|56=MARKET_MAKER|10=034|
20241008-14:20:33.326804000 : 8=FIX.4.4|9=70|35=2|34=3|49=MARKET_MAKER|52=20241008-14:20:33.324|56=CLIENT|7=2|16=0|10=156|
20241008-14:20:48.164964000 : 8=FIX.4.4|9=70|35=1|34=4|49=MARKET_MAKER|52=20241008-14:20:48.159|56=CLIENT|112=TEST|10=062|
20241008-14:20:48.169126000 : 8=FIX.4.4|9=70|35=2|34=4|49=CLIENT|52=20241008-14:20:48.166|56=MARKET_MAKER|7=3|16=0|10=168|
20241008-14:20:48.170911000 : 8=FIX.4.4|9=103|35=4|34=3|43=Y|49=MARKET_MAKER|52=20241008-14:20:48.170|56=CLIENT|122=20241008-14:20:48.170|36=5|123=Y|10=089|
20241008-14:21:57.127525000 : 8=FIX.4.4|9=61|35=5|34=5|49=MARKET_MAKER|52=20241008-14:21:57.124|56=CLIENT|10=042|
20241008-14:21:57.130066000 : 8=FIX.4.4|9=61|35=5|34=5|49=CLIENT|52=20241008-14:21:57.128|56=MARKET_MAKER|10=046|
20241008-14:22:15.133527000 : 8=FIX.4.4|9=79|35=A|34=1|49=CLIENT|52=20241008-14:22:15.097|56=MARKET_MAKER|98=0|108=90|141=Y|10=139|
20241008-14:22:15.190798000 : 8=FIX.4.4|9=79|35=A|34=1|49=MARKET_MAKER|52=20241008-14:22:15.186|56=CLIENT|98=0|108=90|141=Y|10=138|
20241008-14:22:18.087374000 : 8=FIX.4.4|9=126|35=D|34=2|49=CLIENT|52=20241008-14:22:18.076|56=MARKET_MAKER|11=12345|38=100|40=||44=150|54=||55=USD/BRL|60=20241008-14:22:18|10=119|
20241008-14:23:45.594984000 : 8=FIX.4.4|9=61|35=0|34=2|49=MARKET_MAKER|52=20241008-14:23:45.590|56=CLIENT|10=040|
20241008-14:23:48.531108000 : 8=FIX.4.4|9=61|35=0|34=3|49=CLIENT|52=20241008-14:23:48.528|56=MARKET_MAKER|10=045|
20241008-14:23:48.560095000 : 8=FIX.4.4|9=70|35=2|34=3|49=MARKET_MAKER|52=20241008-14:23:48.554|56=CLIENT|7=2|16=0|10=170|
20241008-14:24:03.398129000 : 8=FIX.4.4|9=70|35=1|34=4|49=MARKET_MAKER|52=20241008-14:24:03.395|56=CLIENT|112=TEST|10=059|
20241008-14:24:03.419894000 : 8=FIX.4.4|9=70|35=2|34=4|49=CLIENT|52=20241008-14:24:03.399|56=MARKET_MAKER|7=3|16=0|10=171|
20241008-14:24:03.440368000 : 8=FIX.4.4|9=103|35=4|34=3|43=Y|49=MARKET_MAKER|52=20241008-14:24:03.437|56=CLIENT|122=20241008-14:24:03.437|36=5|123=Y|10=091|
20241008-14:25:33.636869000 : 8=FIX.4.4|9=61|35=0|34=5|49=CLIENT|52=20241008-14:25:33.630|56=MARKET_MAKER|10=037|
20241008-14:25:33.647137000 : 8=FIX.4.4|9=61|35=0|34=5|49=MARKET_MAKER|52=20241008-14:25:33.639|56=CLIENT|10=046|
20241008-14:25:51.274842000 : 8=FIX.4.4|9=70|35=1|34=6|49=MARKET_MAKER|52=20241008-14:25:51.271|56=CLIENT|112=TEST|10=058|
20241008-14:25:51.278818000 : 8=FIX.4.4|9=70|35=0|34=6|49=CLIENT|52=20241008-14:25:51.275|56=MARKET_MAKER|112=TEST|10=061|
20241008-14:27:02.515296000 : 8=FIX.4.4|9=61|35=5|34=7|49=MARKET_MAKER|52=20241008-14:27:02.508|56=CLIENT|10=046|
20241008-14:27:02.534204000 : 8=FIX.4.4|9=61|35=5|34=7|49=CLIENT|52=20241008-14:27:02.517|56=MARKET_MAKER|10=046|
20241008-14:32:07.982272000 : 8=FIX.4.4|9=79|35=A|34=1|49=CLIENT|52=20241008-14:32:07.926|56=MARKET_MAKER|98=0|108=90|141=Y|10=142|
20241008-14:32:08.009791000 : 8=FIX.4.4|9=79|35=A|34=1|49=MARKET_MAKER|52=20241008-14:32:08.007|56=CLIENT|98=0|108=90|141=Y|10=133|
20241008-14:33:24.811135000 : 8=FIX.4.4|9=79|35=A|34=1|49=CLIENT|52=20241008-14:33:24.766|56=MARKET_MAKER|98=0|108=90|141=Y|10=144|
20241008-14:33:24.842489000 : 8=FIX.4.4|9=79|35=A|34=1|49=MARKET_MAKER|52=20241008-14:33:24.840|56=CLIENT|98=0|108=90|141=Y|10=137|
20241008-14:34:28.525447000 : 8=FIX.4.4|9=79|35=A|34=1|49=CLIENT|52=20241008-14:34:28.489|56=MARKET_MAKER|98=0|108=90|141=Y|10=151|
20241008-14:34:28.560895000 : 8=FIX.4.4|9=79|35=A|34=1|49=MARKET_MAKER|52=20241008-14:34:28.559|56=CLIENT|98=0|108=90|141=Y|10=149|
20241008-14:35:30.572174000 : 8=FIX.4.4|9=79|35=A|34=1|49=CLIENT|52=20241008-14:35:30.500|56=MARKET_MAKER|98=0|108=90|141=Y|10=129|
20241008-14:35:30.614368000 : 8=FIX.4.4|9=79|35=A|34=1|49=MARKET_MAKER|52=20241008-14:35:30.611|56=CLIENT|98=0|108=90|141=Y|10=132|
20241008-14:37:31.779691000 : 8=FIX.4.4|9=79|35=A|34=1|49=CLIENT|52=20241008-14:37:31.646|56=MARKET_MAKER|98=0|108=90|141=Y|10=143|
20241008-14:37:31.848951000 : 8=FIX.4.4|9=79|35=A|34=1|49=MARKET_MAKER|52=20241008-14:37:31.846|56=CLIENT|98=0|108=90|141=Y|10=145|
20241008-14:37:31.857387000 : 8=FIX.4.4|9=129|35=D|34=2|49=CLIENT|52=20241008-14:37:31.854|56=MARKET_MAKER|11=12345|38=100|40=2|44=150.25|54=1|55=USD/BRL|60=20241008-14:37:31|10=118|
20241008-14:37:51.794413000 : 8=FIX.4.4|9=61|35=5|34=2|49=MARKET_MAKER|52=20241008-14:37:51.787|56=CLIENT|10=055|
20241008-14:37:51.802168000 : 8=FIX.4.4|9=61|35=5|34=3|49=CLIENT|52=20241008-14:37:51.796|56=MARKET_MAKER|10=056|
20241008-14:45:49.284033000 : 8=FIX.4.4|9=79|35=A|34=1|49=CLIENT|52=20241008-14:45:49.253|56=MARKET_MAKER|98=0|108=90|141=Y|10=145|
20241008-14:45:49.316366000 : 8=FIX.4.4|9=79|35=A|34=1|49=MARKET_MAKER|52=20241008-14:45:49.313|56=CLIENT|98=0|108=90|141=Y|10=142|
20241008-14:45:49.321462000 : 8=FIX.4.4|9=129|35=D|34=2|49=CLIENT|52=20241008-14:45:49.318|56=MARKET_MAKER|11=12345|38=100|40=2|44=150.25|54=1|55=USD/BRL|60=20241008-14:45:49|10=129|
20241008-14:45:49.325333000 : 8=FIX.4.4|9=139|35=8|34=2|49=MARKET_MAKER|52=20241008-14:45:49.322|56=CLIENT|6=150.25|14=100|17=54321|31=150.25|32=100|37=12345|39=2|54=1|55=USD/BRL|150=2|10=228|
20241008-14:45:49.331944000 : 8=FIX.4.4|9=110|35=3|34=3|49=CLIENT|52=20241008-14:45:49.329|56=MARKET_MAKER|45=2|58=Required tag missing|371=151|372=8|373=1|10=040|
20241008-14:47:19.081498000 : 8=FIX.4.4|9=61|35=0|34=4|49=CLIENT|52=20241008-14:47:19.080|56=MARKET_MAKER|10=043|
20241008-14:47:19.086574000 : 8=FIX.4.4|9=61|35=0|34=3|49=MARKET_MAKER|52=20241008-14:47:19.082|56=CLIENT|10=044|
20241008-14:48:49.415458000 : 8=FIX.4.4|9=61|35=0|34=5|49=CLIENT|52=20241008-14:48:49.413|56=MARKET_MAKER|10=048|
20241008-14:48:49.418563000 : 8=FIX.4.4|9=61|35=0|34=4|49=MARKET_MAKER|52=20241008-14:48:49.416|56=CLIENT|10=050|
20241008-14:50:19.728973000 : 8=FIX.4.4|9=61|35=0|34=6|49=CLIENT|52=20241008-14:50:19.347|56=MARKET_MAKER|10=045|
20241008-14:50:19.729664000 : 8=FIX.4.4|9=61|35=0|34=5|49=MARKET_MAKER|52=20241008-14:50:19.545|56=CLIENT|10=044|
20241008-14:51:49.266366000 : 8=FIX.4.4|9=61|35=0|34=7|49=CLIENT|52=20241008-14:51:49.264|56=MARKET_MAKER|10=048|
20241008-14:51:49.269419000 : 8=FIX.4.4|9=61|35=0|34=6|49=MARKET_MAKER|52=20241008-14:51:49.267|56=CLIENT|10=050|
20241008-14:53:19.355719000 : 8=FIX.4.4|9=61|35=0|34=8|49=CLIENT|52=20241008-14:53:19.353|56=MARKET_MAKER|10=047|
20241008-14:53:19.359793000 : 8=FIX.4.4|9=61|35=0|34=7|49=MARKET_MAKER|52=20241008-14:53:19.356|56=CLIENT|10=049|
20241008-14:54:49.022226000 : 8=FIX.4.4|9=61|35=0|34=9|49=CLIENT|52=20241008-14:54:49.019|56=MARKET_MAKER|10=051|
20241008-14:54:49.031778000 : 8=FIX.4.4|9=61|35=0|34=8|49=MARKET_MAKER|52=20241008-14:54:49.024|56=CLIENT|10=046|
20241008-14:56:19.226201000 : 8=FIX.4.4|9=62|35=0|34=10|49=CLIENT|52=20241008-14:56:19.221|56=MARKET_MAKER|10=086|
20241008-14:56:19.232554000 : 8=FIX.4.4|9=61|35=0|34=9|49=MARKET_MAKER|52=20241008-14:56:19.228|56=CLIENT|10=052|
20241008-14:57:50.219247000 : 8=FIX.4.4|9=62|35=0|34=11|49=CLIENT|52=20241008-14:57:49.931|56=MARKET_MAKER|10=099|
20241008-14:57:50.219604000 : 8=FIX.4.4|9=62|35=0|34=10|49=MARKET_MAKER|52=20241008-14:57:49.900|56=CLIENT|10=094|
20241008-14:59:19.473932000 : 8=FIX.4.4|9=62|35=0|34=11|49=MARKET_MAKER|52=20241008-14:59:19.465|56=CLIENT|10=100|
20241008-14:59:19.477410000 : 8=FIX.4.4|9=62|35=0|34=12|49=CLIENT|52=20241008-14:59:19.474|56=MARKET_MAKER|10=101|
20241008-15:00:49.523861000 : 8=FIX.4.4|9=62|35=0|34=13|49=CLIENT|52=20241008-15:00:49.285|56=MARKET_MAKER|10=092|
20241008-15:00:49.690710000 : 8=FIX.4.4|9=62|35=0|34=12|49=MARKET_MAKER|52=20241008-15:00:49.554|56=CLIENT|10=090|
20241008-15:02:19.030808000 : 8=FIX.4.4|9=62|35=0|34=14|49=CLIENT|52=20241008-15:02:19.028|56=MARKET_MAKER|10=087|
20241008-15:02:19.037354000 : 8=FIX.4.4|9=62|35=0|34=13|49=MARKET_MAKER|52=20241008-15:02:19.032|56=CLIENT|10=081|
20241008-15:03:49.401965000 : 8=FIX.4.4|9=62|35=0|34=15|49=CLIENT|52=20241008-15:03:49.161|56=MARKET_MAKER|10=090|
20241008-15:03:49.418306000 : 8=FIX.4.4|9=62|35=0|34=14|49=MARKET_MAKER|52=20241008-15:03:49.405|56=CLIENT|10=090|
20241008-15:05:19.582773000 : 8=FIX.4.4|9=62|35=0|34=15|49=MARKET_MAKER|52=20241008-15:05:19.578|56=CLIENT|10=101|
20241008-15:05:19.588515000 : 8=FIX.4.4|9=62|35=0|34=16|49=CLIENT|52=20241008-15:05:19.583|56=MARKET_MAKER|10=098|
20241008-15:06:49.370873000 : 8=FIX.4.4|9=62|35=0|34=17|49=CLIENT|52=20241008-15:06:49.312|56=MARKET_MAKER|10=093|
20241008-15:06:49.371046000 : 8=FIX.4.4|9=62|35=0|34=16|49=MARKET_MAKER|52=20241008-15:06:49.253|56=CLIENT|10=096|
20241008-15:08:19.419262000 : 8=FIX.4.4|9=62|35=0|34=17|49=MARKET_MAKER|52=20241008-15:08:19.415|56=CLIENT|10=096|
20241008-15:08:19.422036000 : 8=FIX.4.4|9=62|35=0|34=18|49=CLIENT|52=20241008-15:08:19.419|56=MARKET_MAKER|10=101|
20241008-15:09:49.114561000 : 8=FIX.4.4|9=62|35=0|34=19|49=CLIENT|52=20241008-15:09:49.112|56=MARKET_MAKER|10=096|
20241008-15:09:49.119933000 : 8=FIX.4.4|9=62|35=0|34=18|49=MARKET_MAKER|52=20241008-15:09:49.115|56=CLIENT|10=098|
20241008-15:11:19.414928000 : 8=FIX.4.4|9=62|35=0|34=20|49=CLIENT|52=20241008-15:11:19.196|56=MARKET_MAKER|10=090|
20241008-15:11:19.415442000 : 8=FIX.4.4|9=62|35=0|34=19|49=MARKET_MAKER|52=20241008-15:11:19.109|56=CLIENT|10=092|
20241008-15:12:49.748677000 : 8=FIX.4.4|9=62|35=0|34=20|49=MARKET_MAKER|52=20241008-15:12:49.744|56=CLIENT|10=093|
20241008-15:12:49.754769000 : 8=FIX.4.4|9=62|35=0|34=21|49=CLIENT|52=20241008-15:12:49.751|56=MARKET_MAKER|10=092|
20241008-15:14:19.477009000 : 8=FIX.4.4|9=62|35=0|34=21|49=MARKET_MAKER|52=20241008-15:14:19.472|56=CLIENT|10=091|
20241008-15:14:19.482617000 : 8=FIX.4.4|9=62|35=0|34=22|49=CLIENT|52=20241008-15:14:19.478|56=MARKET_MAKER|10=098|
20241008-15:15:49.407828000 : 8=FIX.4.4|9=62|35=0|34=22|49=MARKET_MAKER|52=20241008-15:15:49.404|56=CLIENT|10=091|
20241008-15:15:49.411655000 : 8=FIX.4.4|9=62|35=0|34=23|49=CLIENT|52=20241008-15:15:49.408|56=MARKET_MAKER|10=096|
20241008-15:17:19.032241000 : 8=FIX.4.4|9=62|35=0|34=24|49=CLIENT|52=20241008-15:17:19.029|56=MARKET_MAKER|10=095|
20241008-15:17:19.044905000 : 8=FIX.4.4|9=62|35=0|34=23|49=MARKET_MAKER|52=20241008-15:17:19.035|56=CLIENT|10=091|
20241008-15:18:49.129257000 : 8=FIX.4.4|9=62|35=0|34=25|49=CLIENT|52=20241008-15:18:49.124|56=MARKET_MAKER|10=096|
20241008-15:18:49.134759000 : 8=FIX.4.4|9=62|35=0|34=24|49=MARKET_MAKER|52=20241008-15:18:49.130|56=CLIENT|10=092|
20241008-15:20:19.306480000 : 8=FIX.4.4|9=62|35=0|34=26|49=CLIENT|52=20241008-15:20:19.296|56=MARKET_MAKER|10=097|
20241008-15:20:19.318896000 : 8=FIX.4.4|9=62|35=0|34=25|49=MARKET_MAKER|52=20241008-15:20:19.310|56=CLIENT|10=083|
20241008-15:21:49.324732000 : 8=FIX.4.4|9=62|35=0|34=26|49=MARKET_MAKER|52=20241008-15:21:49.320|56=CLIENT|10=089|
20241008-15:21:49.329810000 : 8=FIX.4.4|9=62|35=0|34=27|49=CLIENT|52=20241008-15:21:49.326|56=MARKET_MAKER|10=096|
20241008-15:23:19.184580000 : 8=FIX.4.4|9=62|35=0|34=28|49=CLIENT|52=20241008-15:23:19.180|56=MARKET_MAKER|10=094|
20241008-15:23:19.187995000 : 8=FIX.4.4|9=62|35=0|34=27|49=MARKET_MAKER|52=20241008-15:23:19.185|56=CLIENT|10=098|
20241008-15:24:49.088789000 : 8=FIX.4.4|9=62|35=0|34=29|49=CLIENT|52=20241008-15:24:49.085|56=MARKET_MAKER|10=103|
20241008-15:24:49.124233000 : 8=FIX.4.4|9=62|35=0|34=28|49=MARKET_MAKER|52=20241008-15:24:49.090|56=CLIENT|10=098|
20241008-15:26:19.258198000 : 8=FIX.4.4|9=62|35=0|34=30|49=CLIENT|52=20241008-15:26:19.212|56=MARKET_MAKER|10=086|
20241008-15:26:19.868575000 : 8=FIX.4.4|9=62|35=0|34=29|49=MARKET_MAKER|52=20241008-15:26:19.387|56=CLIENT|10=107|
20241008-15:27:49.402811000 : 8=FIX.4.4|9=62|35=0|34=31|49=CLIENT|52=20241008-15:27:49.384|56=MARKET_MAKER|10=101|
20241008-15:27:49.409539000 : 8=FIX.4.4|9=62|35=0|34=30|49=MARKET_MAKER|52=20241008-15:27:49.405|56=CLIENT|10=094|
20241008-18:18:30.630873000 : 8=FIX.4.4|9=79|35=A|34=1|49=CLIENT|52=20241008-18:18:29.502|56=MARKET_MAKER|98=0|108=90|141=Y|10=144|
20241008-18:18:31.010775000 : 8=FIX.4.4|9=79|35=A|34=1|49=MARKET_MAKER|52=20241008-18:18:30.981|56=CLIENT|98=0|108=90|141=Y|10=147|
20241008-18:18:31.144309000 : 8=FIX.4.4|9=129|35=D|34=2|49=CLIENT|52=20241008-18:18:31.080|56=MARKET_MAKER|11=12345|38=100|40=2|44=150.25|54=1|55=USD/BRL|60=20241008-18:18:31|10=115|
20241008-18:18:31.287031000 : 8=FIX.4.4|9=139|35=8|34=2|49=MARKET_MAKER|52=20241008-18:18:31.191|56=CLIENT|6=150.25|14=100|17=54321|31=150.25|32=100|37=12345|39=2|54=1|55=USD/BRL|150=2|10=227|
20241008-18:18:31.348034000 : 8=FIX.4.4|9=110|35=3|34=3|49=CLIENT|52=20241008-18:18:31.303|56=MARKET_MAKER|45=2|58=Required tag missing|371=151|372=8|373=1|10=027|
20241008-18:20:01.101586000 : 8=FIX.4.4|9=61|35=0|34=4|49=CLIENT|52=20241008-18:20:01.076|56=MARKET_MAKER|10=034|
20241008-18:20:01.105897000 : 8=FIX.4.4|9=61|35=0|34=3|49=MARKET_MAKER|52=20241008-18:20:01.103|56=CLIENT|10=024|
20241008-18:21:31.048338000 : 8=FIX.4.4|9=61|35=0|34=4|49=MARKET_MAKER|52=20241008-18:21:31.044|56=CLIENT|10=033|
20241008-18:21:31.051282000 : 8=FIX.4.4|9=61|35=0|34=5|49=CLIENT|52=20241008-18:21:31.049|56=MARKET_MAKER|10=039|
20241008-18:23:01.189644000 : 8=FIX.4.4|9=61|35=0|34=6|49=CLIENT|52=20241008-18:23:01.184|56=MARKET_MAKER|10=039|
20241008-18:23:01.196838000 : 8=FIX.4.4|9=61|35=0|34=5|49=MARKET_MAKER|52=20241008-18:23:01.191|56=CLIENT|10=036|
20241008-18:24:31.078982000 : 8=FIX.4.4|9=61|35=0|34=7|49=CLIENT|52=20241008-18:24:31.047|56=MARKET_MAKER|10=042|
20241008-18:24:31.088950000 : 8=FIX.4.4|9=61|35=0|34=6|49=MARKET_MAKER|52=20241008-18:24:31.081|56=CLIENT|10=039|
20241008-18:26:01.292849000 : 8=FIX.4.4|9=61|35=0|34=8|49=CLIENT|52=20241008-18:26:01.282|56=MARKET_MAKER|10=043|
20241008-18:26:01.313304000 : 8=FIX.4.4|9=61|35=0|34=7|49=MARKET_MAKER|52=20241008-18:26:01.293|56=CLIENT|10=044|
20241008-18:33:41.331625000 : 8=FIX.4.4|9=79|35=A|34=1|49=CLIENT|52=20241008-18:33:41.302|56=MARKET_MAKER|98=0|108=90|141=Y|10=133|
20241008-18:33:41.361266000 : 8=FIX.4.4|9=79|35=A|34=1|49=MARKET_MAKER|52=20241008-18:33:41.358|56=CLIENT|98=0|108=90|141=Y|10=144|
20241008-18:33:41.366833000 : 8=FIX.4.4|9=129|35=D|34=2|49=CLIENT|52=20241008-18:33:41.364|56=MARKET_MAKER|11=12345|38=100|40=2|44=150.25|54=1|55=USD/BRL|60=20241008-18:33:41|10=116|
20241008-18:33:41.388893000 : 8=FIX.4.4|9=139|35=8|34=2|49=MARKET_MAKER|52=20241008-18:33:41.371|56=CLIENT|6=150.25|14=100|17=54321|31=150.25|32=100|37=12345|39=2|54=1|55=USD/BRL|150=2|10=225|
20241008-18:33:41.395236000 : 8=FIX.4.4|9=110|35=3|34=3|49=CLIENT|52=20241008-18:33:41.389|56=MARKET_MAKER|45=2|58=Required tag missing|371=151|372=8|373=1|10=039|
20241008-18:35:11.141854000 : 8=FIX.4.4|9=61|35=0|34=4|49=CLIENT|52=20241008-18:35:11.134|56=MARKET_MAKER|10=036|
20241008-18:35:11.148950000 : 8=FIX.4.4|9=61|35=0|34=3|49=MARKET_MAKER|52=20241008-18:35:11.144|56=CLIENT|10=036|
20241008-18:36:41.089608000 : 8=FIX.4.4|9=61|35=0|34=5|49=CLIENT|52=20241008-18:36:41.087|56=MARKET_MAKER|10=048|
20241008-18:36:41.093541000 : 8=FIX.4.4|9=61|35=0|34=4|49=MARKET_MAKER|52=20241008-18:36:41.091|56=CLIENT|10=042|
20241008-18:36:43.876728000 : 8=FIX.4.4|9=61|35=5|34=5|49=MARKET_MAKER|52=20241008-18:36:43.873|56=CLIENT|10=058|
20241008-18:36:43.880841000 : 8=FIX.4.4|9=61|35=5|34=6|49=CLIENT|52=20241008-18:36:43.877|56=MARKET_MAKER|10=063|
20241008-18:36:57.555523000 : 8=FIX.4.4|9=79|35=A|34=1|49=CLIENT|52=20241008-18:36:57.516|56=MARKET_MAKER|98=0|108=90|141=Y|10=150|
20241008-18:36:57.582524000 : 8=FIX.4.4|9=79|35=A|34=1|49=MARKET_MAKER|52=20241008-18:36:57.580|56=CLIENT|98=0|108=90|141=Y|10=151|
20241008-18:43:07.215733000 : 8=FIX.4.4|9=79|35=A|34=1|49=CLIENT|52=20241008-18:43:07.158|56=MARKET_MAKER|98=0|108=90|141=Y|10=145|
20241008-18:43:07.242912000 : 8=FIX.4.4|9=79|35=A|34=1|49=MARKET_MAKER|52=20241008-18:43:07.241|56=CLIENT|98=0|108=90|141=Y|10=138|
20241008-18:50:54.063891000 : 8=FIX.4.4|9=79|35=A|34=1|49=CLIENT|52=20241008-18:50:54.040|56=MARKET_MAKER|98=0|108=90|141=Y|10=135|
20241008-18:50:54.090005000 : 8=FIX.4.4|9=79|35=A|34=1|49=MARKET_MAKER|52=20241008-18:50:54.088|56=CLIENT|98=0|108=90|141=Y|10=147|
20241008-19:10:35.844809000 : 8=FIX.4.4|9=79|35=A|34=1|49=CLIENT|52=20241008-19:10:35.833|56=MARKET_MAKER|98=0|108=90|141=Y|10=141|
20241008-19:10:35.870302000 : 8=FIX.4.4|9=79|35=A|34=1|49=MARKET_MAKER|52=20241008-19:10:35.867|56=CLIENT|98=0|108=90|141=Y|10=148|
20241008-19:11:54.565407000 : 8=FIX.4.4|9=79|35=A|34=1|49=CLIENT|52=20241008-19:11:54.506|56=MARKET_MAKER|98=0|108=90|141=Y|10=140|
20241008-19:11:54.619670000 : 8=FIX.4.4|9=79|35=A|34=1|49=MARKET_MAKER|52=20241008-19:11:54.612|56=CLIENT|98=0|108=90|141=Y|10=138|
20241008-19:12:52.419538000 : 8=FIX.4.4|9=79|35=A|34=1|49=CLIENT|52=20241008-19:12:52.398|56=MARKET_MAKER|98=0|108=90|141=Y|10=148|
20241008-19:12:52.452176000 : 8=FIX.4.4|9=79|35=A|34=1|49=MARKET_MAKER|52=20241008-19:12:52.450|56=CLIENT|98=0|108=90|141=Y|10=137|
20241008-19:13:52.567682000 : 8=FIX.4.4|9=79|35=A|34=1|49=CLIENT|52=20241008-19:13:52.509|56=MARKET_MAKER|98=0|108=90|141=Y|10=143|
20241008-19:13:52.634481000 : 8=FIX.4.4|9=79|35=A|34=1|49=MARKET_MAKER|52=20241008-19:13:52.630|56=CLIENT|98=0|108=90|141=Y|10=138|
20241008-19:15:05.536937000 : 8=FIX.4.4|9=79|35=A|34=1|49=CLIENT|52=20241008-19:15:05.516|56=MARKET_MAKER|98=0|108=90|141=Y|10=141|
20241008-19:15:05.559886000 : 8=FIX.4.4|9=79|35=A|34=1|49=MARKET_MAKER|52=20241008-19:15:05.557|56=CLIENT|98=0|108=90|141=Y|10=146|
20241008-19:16:16.695022000 : 8=FIX.4.4|9=79|35=A|34=1|49=CLIENT|52=20241008-19:16:16.673|56=MARKET_MAKER|98=0|108=90|141=Y|10=148|
20241008-19:16:16.711128000 : 8=FIX.4.4|9=79|35=A|34=1|49=MARKET_MAKER|52=20241008-19:16:16.706|56=CLIENT|98=0|108=90|141=Y|10=145|
20241008-19:17:38.534451000 : 8=FIX.4.4|9=79|35=A|34=1|49=CLIENT|52=20241008-19:17:38.506|56=MARKET_MAKER|98=0|108=90|141=Y|10=148|
20241008-19:17:38.563582000 : 8=FIX.4.4|9=79|35=A|34=1|49=MARKET_MAKER|52=20241008-19:17:38.561|56=CLIENT|98=0|108=90|141=Y|10=149|
20241009-11:10:44.442291000 : 8=FIX.4.4|9=79|35=A|34=1|49=CLIENT|52=20241009-11:10:44.405|56=MARKET_MAKER|98=0|108=90|141=Y|10=129|
20241009-11:10:44.474867000 : 8=FIX.4.4|9=79|35=A|34=1|49=MARKET_MAKER|52=20241009-11:10:44.472|56=CLIENT|98=0|108=90|141=Y|10=133|
20241009-11:12:42.717900000 : 8=FIX.4.4|9=79|35=A|34=1|49=CLIENT|52=20241009-11:12:42.685|56=MARKET_MAKER|98=0|108=90|141=Y|10=139|
20241009-11:12:42.754669000 : 8=FIX.4.4|9=79|35=A|34=1|49=MARKET_MAKER|52=20241009-11:12:42.753|56=CLIENT|98=0|108=90|141=Y|10=135|
20241009-11:14:11.835032000 : 8=FIX.4.4|9=79|35=A|34=1|49=CLIENT|52=20241009-11:14:11.796|56=MARKET_MAKER|98=0|108=90|141=Y|10=140|
20241009-11:14:11.873983000 : 8=FIX.4.4|9=79|35=A|34=1|49=MARKET_MAKER|52=20241009-11:14:11.871|56=CLIENT|98=0|108=90|141=Y|10=134|
20241009-11:15:41.698173000 : 8=FIX.4.4|9=79|35=A|34=1|49=CLIENT|52=20241009-11:15:41.675|56=MARKET_MAKER|98=0|108=90|141=Y|10=140|
20241009-11:15:41.719954000 : 8=FIX.4.4|9=79|35=A|34=1|49=MARKET_MAKER|52=20241009-11:15:41.717|56=CLIENT|98=0|108=90|141=Y|10=137|
20241009-11:30:36.181048000 : 8=FIX.4.4|9=79|35=A|34=1|49=CLIENT|52=20241009-11:30:36.161|56=MARKET_MAKER|98=0|108=90|141=Y|10=131|
20241009-11:30:36.206446000 : 8=FIX.4.4|9=79|35=A|34=1|49=MARKET_MAKER|52=20241009-11:30:36.204|56=CLIENT|98=0|108=90|141=Y|10=129|
20241009-11:31:48.211620000 : 8=FIX.4.4|9=79|35=A|34=1|49=CLIENT|52=20241009-11:31:48.177|56=MARKET_MAKER|98=0|108=90|141=Y|10=142|
20241009-11:31:48.253503000 : 8=FIX.4.4|9=79|35=A|34=1|49=MARKET_MAKER|52=20241009-11:31:48.248|56=CLIENT|98=0|108=90|141=Y|10=141|
20241009-11:32:59.888726000 : 8=FIX.4.4|9=79|35=A|34=1|49=CLIENT|52=20241009-11:32:59.872|56=MARKET_MAKER|98=0|108=90|141=Y|10=147|
20241009-11:32:59.922975000 : 8=FIX.4.4|9=79|35=A|34=1|49=MARKET_MAKER|52=20241009-11:32:59.920|56=CLIENT|98=0|108=90|141=Y|10=141|
20241009-11:34:24.488302000 : 8=FIX.4.4|9=79|35=A|34=1|49=CLIENT|52=20241009-11:34:24.466|56=MARKET_MAKER|98=0|108=90|141=Y|10=140|
20241009-11:34:24.510319000 : 8=FIX.4.4|9=79|35=A|34=1|49=MARKET_MAKER|52=20241009-11:34:24.506|56=CLIENT|98=0|108=90|141=Y|10=135|
20241009-11:37:45.677047000 : 8=FIX.4.4|9=79|35=A|34=1|49=CLIENT|52=20241009-11:37:45.644|56=MARKET_MAKER|98=0|108=90|141=Y|10=144|
20241009-11:37:45.699493000 : 8=FIX.4.4|9=79|35=A|34=1|49=MARKET_MAKER|52=20241009-11:37:45.697|56=CLIENT|98=0|108=90|141=Y|10=152|
20241009-11:45:37.610060000 : 8=FIX.4.4|9=79|35=A|34=1|49=CLIENT|52=20241009-11:45:37.573|56=MARKET_MAKER|98=0|108=90|141=Y|10=145|
20241009-11:45:37.646978000 : 8=FIX.4.4|9=79|35=A|34=1|49=MARKET_MAKER|52=20241009-11:45:37.641|56=CLIENT|98=0|108=90|141=Y|10=141|
20241009-11:50:34.241359000 : 8=FIX.4.4|9=79|35=A|34=1|49=CLIENT|52=20241009-11:50:34.209|56=MARKET_MAKER|98=0|108=90|141=Y|10=134|
20241009-11:50:34.267099000 : 8=FIX.4.4|9=79|35=A|34=1|49=MARKET_MAKER|52=20241009-11:50:34.265|56=CLIENT|98=0|108=90|141=Y|10=136|
20241009-11:52:20.962133000 : 8=FIX.4.4|9=79|35=A|34=1|49=CLIENT|52=20241009-11:52:20.938|56=MARKET_MAKER|98=0|108=90|141=Y|10=140|
20241009-11:52:21.001150000 : 8=FIX.4.4|9=79|35=A|34=1|49=MARKET_MAKER|52=20241009-11:52:20.997|56=CLIENT|98=0|108=90|141=Y|10=145|
20241009-11:55:08.744489000 : 8=FIX.4.4|9=79|35=A|34=1|49=CLIENT|52=20241009-11:55:08.715|56=MARKET_MAKER|98=0|108=90|141=Y|10=142|
20241009-11:55:08.762808000 : 8=FIX.4.4|9=79|35=A|34=1|49=MARKET_MAKER|52=20241009-11:55:08.760|56=CLIENT|98=0|108=90|141=Y|10=142|
20241009-11:56:44.280570000 : 8=FIX.4.4|9=79|35=A|34=1|49=CLIENT|52=20241009-11:56:44.247|56=MARKET_MAKER|98=0|108=90|141=Y|10=143|
20241009-11:56:44.306696000 : 8=FIX.4.4|9=79|35=A|34=1|49=MARKET_MAKER|52=20241009-11:56:44.305|56=CLIENT|98=0|108=90|141=Y|10=138|
20241009-12:02:32.942241000 : 8=FIX.4.4|9=79|35=A|34=1|49=CLIENT|52=20241009-12:02:32.899|56=MARKET_MAKER|98=0|108=90|141=Y|10=145|
20241009-12:02:32.971125000 : 8=FIX.4.4|9=79|35=A|34=1|49=MARKET_MAKER|52=20241009-12:02:32.969|56=CLIENT|98=0|108=90|141=Y|10=143|
20241009-12:06:05.934221000 : 8=FIX.4.4|9=79|35=A|34=1|49=CLIENT|52=20241009-12:06:05.800|56=MARKET_MAKER|98=0|108=90|141=Y|10=131|
20241009-12:06:05.946008000 : 8=FIX.4.4|9=79|35=A|34=1|49=MARKET_MAKER|52=20241009-12:06:05.945|56=CLIENT|98=0|108=90|141=Y|10=141|
20241009-12:09:08.450078000 : 8=FIX.4.4|9=79|35=A|34=1|49=CLIENT|52=20241009-12:09:08.422|56=MARKET_MAKER|98=0|108=90|141=Y|10=137|
20241009-12:09:08.470544000 : 8=FIX.4.4|9=79|35=A|34=1|49=MARKET_MAKER|52=20241009-12:09:08.468|56=CLIENT|98=0|108=90|141=Y|10=147|
20241009-12:10:46.257587000 : 8=FIX.4.4|9=79|35=A|34=1|49=CLIENT|52=20241009-12:10:46.223|56=MARKET_MAKER|98=0|108=90|141=Y|10=130|
20241009-12:10:46.293139000 : 8=FIX.4.4|9=79|35=A|34=1|49=MARKET_MAKER|52=20241009-12:10:46.291|56=CLIENT|98=0|108=90|141=Y|10=135|
20241009-12:12:21.139491000 : 8=FIX.4.4|9=79|35=A|34=1|49=CLIENT|52=20241009-12:12:21.114|56=MARKET_MAKER|98=0|108=90|141=Y|10=124|
20241009-12:12:21.163809000 : 8=FIX.4.4|9=79|35=A|34=1|49=MARKET_MAKER|52=20241009-12:12:21.162|56=CLIENT|98=0|108=90|141=Y|10=127|
20241009-12:14:14.152276000 : 8=FIX.4.4|9=79|35=A|34=1|49=CLIENT|52=20241009-12:14:14.117|56=MARKET_MAKER|98=0|108=90|141=Y|10=131|
20241009-12:14:14.185867000 : 8=FIX.4.4|9=79|35=A|34=1|49=MARKET_MAKER|52=20241009-12:14:14.183|56=CLIENT|98=0|108=90|141=Y|10=134|
20241009-12:18:36.091977000 : 8=FIX.4.4|9=79|35=A|34=1|49=CLIENT|52=20241009-12:18:36.038|56=MARKET_MAKER|98=0|108=90|141=Y|10=141|
20241009-12:18:36.114751000 : 8=FIX.4.4|9=79|35=A|34=1|49=MARKET_MAKER|52=20241009-12:18:36.112|56=CLIENT|98=0|108=90|141=Y|10=134|
20241009-12:21:09.068089000 : 8=FIX.4.4|9=79|35=A|34=1|49=CLIENT|52=20241009-12:21:09.044|56=MARKET_MAKER|98=0|108=90|141=Y|10=132|
20241009-12:21:09.172960000 : 8=FIX.4.4|9=79|35=A|34=1|49=MARKET_MAKER|52=20241009-12:21:09.170|56=CLIENT|98=0|108=90|141=Y|10=132|
20241009-12:23:26.406355000 : 8=FIX.4.4|9=79|35=A|34=1|49=CLIENT|52=20241009-12:23:26.373|56=MARKET_MAKER|98=0|108=90|141=Y|10=138|
20241009-12:23:26.443998000 : 8=FIX.4.4|9=79|35=A|34=1|49=MARKET_MAKER|52=20241009-12:23:26.438|56=CLIENT|98=0|108=90|141=Y|10=140|
20241009-12:25:33.111787000 : 8=FIX.4.4|9=79|35=A|34=1|49=CLIENT|52=20241009-12:25:33.070|56=MARKET_MAKER|98=0|108=90|141=Y|10=132|
20241009-12:25:33.147029000 : 8=FIX.4.4|9=79|35=A|34=1|49=MARKET_MAKER|52=20241009-12:25:33.144|56=CLIENT|98=0|108=90|141=Y|10=134|
20241009-12:27:23.242417000 : 8=FIX.4.4|9=79|35=A|34=1|49=CLIENT|52=20241009-12:27:23.200|56=MARKET_MAKER|98=0|108=90|141=Y|10=128|
20241009-12:27:23.280672000 : 8=FIX.4.4|9=79|35=A|34=1|49=MARKET_MAKER|52=20241009-12:27:23.278|56=CLIENT|98=0|108=90|141=Y|10=143|
20241009-12:31:09.361029000 : 8=FIX.4.4|9=79|35=A|34=1|49=CLIENT|52=20241009-12:31:09.318|56=MARKET_MAKER|98=0|108=90|141=Y|10=137|
20241009-12:31:09.418843000 : 8=FIX.4.4|9=79|35=A|34=1|49=MARKET_MAKER|52=20241009-12:31:09.414|56=CLIENT|98=0|108=90|141=Y|10=134|
20241009-12:32:56.165888000 : 8=FIX.4.4|9=79|35=A|34=1|49=CLIENT|52=20241009-12:32:56.081|56=MARKET_MAKER|98=0|108=90|141=Y|10=137|
20241009-12:32:56.192087000 : 8=FIX.4.4|9=79|35=A|34=1|49=MARKET_MAKER|52=20241009-12:32:56.190|56=CLIENT|98=0|108=90|141=Y|10=138|
20241009-12:35:30.451465000 : 8=FIX.4.4|9=79|35=A|34=1|49=CLIENT|52=20241009-12:35:30.429|56=MARKET_MAKER|98=0|108=90|141=Y|10=138|
20241009-12:35:30.473408000 : 8=FIX.4.4|9=79|35=A|34=1|49=MARKET_MAKER|52=20241009-12:35:30.472|56=CLIENT|98=0|108=90|141=Y|10=136|
20241009-12:41:48.428869000 : 8=FIX.4.4|9=79|35=A|34=1|49=CLIENT|52=20241009-12:41:48.408|56=MARKET_MAKER|98=0|108=90|141=Y|10=141|
20241009-12:41:48.491571000 : 8=FIX.4.4|9=79|35=A|34=1|49=MARKET_MAKER|52=20241009-12:41:48.487|56=CLIENT|98=0|108=90|141=Y|10=148|
20241009-12:43:29.898141000 : 8=FIX.4.4|9=79|35=A|34=1|49=CLIENT|52=20241009-12:43:29.849|56=MARKET_MAKER|98=0|108=90|141=Y|10=151|
20241009-12:43:29.945323000 : 8=FIX.4.4|9=79|35=A|34=1|49=MARKET_MAKER|52=20241009-12:43:29.941|56=CLIENT|98=0|108=90|141=Y|10=144|
20241009-13:09:42.267291000 : 8=FIX.4.4|9=79|35=A|34=1|49=CLIENT|52=20241009-13:09:42.235|56=MARKET_MAKER|98=0|108=90|141=Y|10=138|
20241009-13:09:42.357818000 : 8=FIX.4.4|9=79|35=A|34=1|49=MARKET_MAKER|52=20241009-13:09:42.356|56=CLIENT|98=0|108=90|141=Y|10=142|
20241009-13:17:39.940221000 : 8=FIX.4.4|9=79|35=A|34=1|49=CLIENT|52=20241009-13:17:39.857|56=MARKET_MAKER|98=0|108=90|141=Y|10=153|
20241009-13:17:39.998492000 : 8=FIX.4.4|9=79|35=A|34=1|49=MARKET_MAKER|52=20241009-13:17:39.996|56=CLIENT|98=0|108=90|141=Y|10=157|
20241009-13:19:26.979077000 : 8=FIX.4.4|9=79|35=A|34=1|49=CLIENT|52=20241009-13:19:26.943|56=MARKET_MAKER|98=0|108=90|141=Y|10=147|
20241009-13:19:27.006361000 : 8=FIX.4.4|9=79|35=A|34=1|49=MARKET_MAKER|52=20241009-13:19:27.005|56=CLIENT|98=0|108=90|141=Y|10=137|
20241009-13:21:18.976600000 : 8=FIX.4.4|9=79|35=A|34=1|49=CLIENT|52=20241009-13:21:18.861|56=MARKET_MAKER|98=0|108=90|141=Y|10=140|
20241009-13:21:18.992229000 : 8=FIX.4.4|9=79|35=A|34=1|49=MARKET_MAKER|52=20241009-13:21:18.991|56=CLIENT|98=0|108=90|141=Y|10=144|
20241009-13:23:34.662923000 : 8=FIX.4.4|9=79|35=A|34=1|49=CLIENT|52=20241009-13:23:34.620|56=MARKET_MAKER|98=0|108=90|141=Y|10=133|
20241009-13:23:34.725162000 : 8=FIX.4.4|9=79|35=A|34=1|49=MARKET_MAKER|52=20241009-13:23:34.718|56=CLIENT|98=0|108=90|141=Y|10=141|
20241009-13:27:14.377433000 : 8=FIX.4.4|9=79|35=A|34=1|49=CLIENT|52=20241009-13:27:14.344|56=MARKET_MAKER|98=0|108=90|141=Y|10=138|
20241009-13:27:14.428963000 : 8=FIX.4.4|9=79|35=A|34=1|49=MARKET_MAKER|52=20241009-13:27:14.425|56=CLIENT|98=0|108=90|141=Y|10=138|
20241009-13:31:20.789525000 : 8=FIX.4.4|9=79|35=A|34=1|49=CLIENT|52=20241009-13:31:20.756|56=MARKET_MAKER|98=0|108=90|141=Y|10=137|
20241009-13:31:20.830169000 : 8=FIX.4.4|9=79|35=A|34=1|49=MARKET_MAKER|52=20241009-13:31:20.825|56=CLIENT|98=0|108=90|141=Y|10=134|
20241009-13:34:22.702437000 : 8=FIX.4.4|9=79|35=A|34=1|49=CLIENT|52=20241009-13:34:22.678|56=MARKET_MAKER|98=0|108=90|141=Y|10=145|
20241009-13:34:22.738794000 : 8=FIX.4.4|9=79|35=A|34=1|49=MARKET_MAKER|52=20241009-13:34:22.735|56=CLIENT|98=0|108=90|141=Y|10=139|
20241009-13:36:15.425968000 : 8=FIX.4.4|9=79|35=A|34=1|49=CLIENT|52=20241009-13:36:15.380|56=MARKET_MAKER|98=0|108=90|141=Y|10=139|
20241009-13:36:15.479720000 : 8=FIX.4.4|9=79|35=A|34=1|49=MARKET_MAKER|52=20241009-13:36:15.475|56=CLIENT|98=0|108=90|141=Y|10=144|
20241009-13:41:00.868224000 : 8=FIX.4.4|9=79|35=A|34=1|49=CLIENT|52=20241009-13:41:00.821|56=MARKET_MAKER|98=0|108=90|141=Y|10=129|
20241009-13:41:00.908922000 : 8=FIX.4.4|9=79|35=A|34=1|49=MARKET_MAKER|52=20241009-13:41:00.905|56=CLIENT|98=0|108=90|141=Y|10=132|
20241009-13:43:02.332953000 : 8=FIX.4.4|9=79|35=A|34=1|49=CLIENT|52=20241009-13:43:02.286|56=MARKET_MAKER|98=0|108=90|141=Y|10=138|
20241009-13:43:02.372706000 : 8=FIX.4.4|9=79|35=A|34=1|49=MARKET_MAKER|52=20241009-13:43:02.368|56=CLIENT|98=0|108=90|141=Y|10=139|
20241009-13:44:51.234445000 : 8=FIX.4.4|9=79|35=A|34=1|49=CLIENT|52=20241009-13:44:51.199|56=MARKET_MAKER|98=0|108=90|141=Y|10=146|
20241009-13:44:51.284112000 : 8=FIX.4.4|9=79|35=A|34=1|49=MARKET_MAKER|52=20241009-13:44:51.280|56=CLIENT|98=0|108=90|141=Y|10=137|
20241009-14:30:46.258659000 : 8=FIX.4.4|9=79|35=A|34=1|49=CLIENT|52=20241009-14:30:46.215|56=MARKET_MAKER|98=0|108=90|141=Y|10=135|
20241009-14:30:46.300255000 : 8=FIX.4.4|9=79|35=A|34=1|49=MARKET_MAKER|52=20241009-14:30:46.297|56=CLIENT|98=0|108=90|141=Y|10=145|
20241009-14:32:16.437846000 : 8=FIX.4.4|9=61|35=0|34=2|49=CLIENT|52=20241009-14:32:16.434|56=MARKET_MAKER|10=036|
20241009-14:32:16.442975000 : 8=FIX.4.4|9=61|35=0|34=2|49=MARKET_MAKER|52=20241009-14:32:16.439|56=CLIENT|10=041|
20241009-14:33:46.558492000 : 8=FIX.4.4|9=61|35=0|34=3|49=MARKET_MAKER|52=20241009-14:33:46.554|56=CLIENT|10=044|
20241009-14:33:46.560644000 : 8=FIX.4.4|9=61|35=0|34=3|49=CLIENT|52=20241009-14:33:46.559|56=MARKET_MAKER|10=049|
20241009-14:35:16.180583000 : 8=FIX.4.4|9=61|35=0|34=4|49=MARKET_MAKER|52=20241009-14:35:16.177|56=CLIENT|10=045|
20241009-14:35:16.181991000 : 8=FIX.4.4|9=61|35=0|34=4|49=CLIENT|52=20241009-14:35:16.180|56=MARKET_MAKER|10=039|
20241009-14:36:46.181604000 : 8=FIX.4.4|9=61|35=0|34=5|49=MARKET_MAKER|52=20241009-14:36:46.179|56=CLIENT|10=052|
20241009-14:36:46.183444000 : 8=FIX.4.4|9=61|35=0|34=5|49=CLIENT|52=20241009-14:36:46.182|56=MARKET_MAKER|10=046|
20241009-14:38:16.851651000 : 8=FIX.4.4|9=61|35=0|34=6|49=CLIENT|52=20241009-14:38:16.277|56=MARKET_MAKER|10=051|
20241009-14:38:16.853282000 : 8=FIX.4.4|9=61|35=0|34=6|49=MARKET_MAKER|52=20241009-14:38:16.681|56=CLIENT|10=050|
20241009-14:39:46.455122000 : 8=FIX.4.4|9=61|35=0|34=7|49=CLIENT|52=20241009-14:39:46.451|56=MARKET_MAKER|10=050|
20241009-14:39:46.460632000 : 8=FIX.4.4|9=61|35=0|34=7|49=MARKET_MAKER|52=20241009-14:39:46.456|56=CLIENT|10=055|
20241009-14:41:16.582161000 : 8=FIX.4.4|9=61|35=0|34=8|49=CLIENT|52=20241009-14:41:16.574|56=MARKET_MAKER|10=047|
20241009-14:41:16.587500000 : 8=FIX.4.4|9=61|35=0|34=8|49=MARKET_MAKER|52=20241009-14:41:16.583|56=CLIENT|10=047|
20241009-14:42:46.148753000 : 8=FIX.4.4|9=61|35=0|34=9|49=CLIENT|52=20241009-14:42:46.144|56=MARKET_MAKER|10=045|
20241009-14:42:46.291860000 : 8=FIX.4.4|9=61|35=0|34=9|49=MARKET_MAKER|52=20241009-14:42:46.150|56=CLIENT|10=042|
20241009-14:44:16.353225000 : 8=FIX.4.4|9=62|35=0|34=10|49=CLIENT|52=20241009-14:44:16.318|56=MARKET_MAKER|10=088|
20241009-14:44:16.357689000 : 8=FIX.4.4|9=62|35=0|34=10|49=MARKET_MAKER|52=20241009-14:44:16.354|56=CLIENT|10=088|
20241009-14:45:46.290892000 : 8=FIX.4.4|9=62|35=0|34=11|49=MARKET_MAKER|52=20241009-14:45:46.208|56=CLIENT|10=091|
20241009-14:45:46.296925000 : 8=FIX.4.4|9=62|35=0|34=11|49=CLIENT|52=20241009-14:45:46.295|56=MARKET_MAKER|10=097|
20241009-14:46:42.800432000 : 8=FIX.4.4|9=62|35=5|34=12|49=MARKET_MAKER|52=20241009-14:46:42.772|56=CLIENT|10=100|
20241009-14:46:42.930845000 : 8=FIX.4.4|9=62|35=5|34=12|49=CLIENT|52=20241009-14:46:42.921|56=MARKET_MAKER|10=096|
20241009-14:54:05.339200000 : 8=FIX.4.4|9=79|35=A|34=1|49=CLIENT|52=20241009-14:54:05.298|56=MARKET_MAKER|98=0|108=90|141=Y|10=147|
20241009-14:54:05.400442000 : 8=FIX.4.4|9=79|35=A|34=1|49=MARKET_MAKER|52=20241009-14:54:05.396|56=CLIENT|98=0|108=90|141=Y|10=146|
20241009-14:55:36.333589000 : 8=FIX.4.4|9=61|35=0|34=2|49=CLIENT|52=20241009-14:55:35.383|56=MARKET_MAKER|10=045|
20241009-14:55:36.353189000 : 8=FIX.4.4|9=61|35=0|34=2|49=MARKET_MAKER|52=20241009-14:55:35.522|56=CLIENT|10=040|
20241009-14:57:05.832345000 : 8=FIX.4.4|9=61|35=0|34=3|49=CLIENT|52=20241009-14:57:05.828|56=MARKET_MAKER|10=049|
20241009-14:57:05.837215000 : 8=FIX.4.4|9=61|35=0|34=3|49=MARKET_MAKER|52=20241009-14:57:05.834|56=CLIENT|10=046|
20241009-14:58:35.778023000 : 8=FIX.4.4|9=61|35=0|34=4|49=CLIENT|52=20241009-14:58:35.775|56=MARKET_MAKER|10=055|
20241009-14:58:35.781961000 : 8=FIX.4.4|9=61|35=0|34=4|49=MARKET_MAKER|52=20241009-14:58:35.779|56=CLIENT|10=059|
20241009-15:00:05.253180000 : 8=FIX.4.4|9=61|35=0|34=5|49=CLIENT|52=20241009-15:00:05.248|56=MARKET_MAKER|10=036|
20241009-15:00:05.258163000 : 8=FIX.4.4|9=61|35=0|34=5|49=MARKET_MAKER|52=20241009-15:00:05.254|56=CLIENT|10=033|
20241009-15:01:35.186264000 : 8=FIX.4.4|9=61|35=0|34=6|49=CLIENT|52=20241009-15:01:35.176|56=MARKET_MAKER|10=041|
20241009-15:01:35.202203000 : 8=FIX.4.4|9=61|35=0|34=6|49=MARKET_MAKER|52=20241009-15:01:35.199|56=CLIENT|10=046|
20241009-15:03:05.464199000 : 8=FIX.4.4|9=61|35=0|34=7|49=CLIENT|52=20241009-15:03:05.460|56=MARKET_MAKER|10=037|
20241009-15:03:05.467982000 : 8=FIX.4.4|9=61|35=0|34=7|49=MARKET_MAKER|52=20241009-15:03:05.465|56=CLIENT|10=042|
20241009-15:04:35.262355000 : 8=FIX.4.4|9=61|35=0|34=8|49=CLIENT|52=20241009-15:04:35.199|56=MARKET_MAKER|10=051|
20241009-15:04:35.288950000 : 8=FIX.4.4|9=61|35=0|34=8|49=MARKET_MAKER|52=20241009-15:04:35.281|56=CLIENT|10=043|
20241009-15:06:05.233269000 : 8=FIX.4.4|9=61|35=0|34=9|49=MARKET_MAKER|52=20241009-15:06:05.228|56=CLIENT|10=044|
20241009-15:06:05.238739000 : 8=FIX.4.4|9=61|35=0|34=9|49=CLIENT|52=20241009-15:06:05.235|56=MARKET_MAKER|10=042|
20241009-15:07:35.493677000 : 8=FIX.4.4|9=62|35=0|34=10|49=CLIENT|52=20241009-15:07:35.491|56=MARKET_MAKER|10=091|
20241009-15:07:35.499593000 : 8=FIX.4.4|9=62|35=0|34=10|49=MARKET_MAKER|52=20241009-15:07:35.494|56=CLIENT|10=094|
20241009-15:09:05.099306000 : 8=FIX.4.4|9=62|35=0|34=11|49=CLIENT|52=20241009-15:09:05.094|56=MARKET_MAKER|10=090|
20241009-15:09:05.105439000 : 8=FIX.4.4|9=62|35=0|34=11|49=MARKET_MAKER|52=20241009-15:09:05.101|56=CLIENT|10=079|
20241009-15:10:35.851119000 : 8=FIX.4.4|9=62|35=0|34=12|49=CLIENT|52=20241009-15:10:35.847|56=MARKET_MAKER|10=092|
20241009-15:10:35.863039000 : 8=FIX.4.4|9=62|35=0|34=12|49=MARKET_MAKER|52=20241009-15:10:35.852|56=CLIENT|10=088|
20241009-15:12:05.059638000 : 8=FIX.4.4|9=62|35=0|34=13|49=CLIENT|52=20241009-15:12:05.044|56=MARKET_MAKER|10=081|
20241009-15:12:05.081357000 : 8=FIX.4.4|9=62|35=0|34=13|49=MARKET_MAKER|52=20241009-15:12:05.065|56=CLIENT|10=084|
20241009-15:13:35.195554000 : 8=FIX.4.4|9=62|35=0|34=14|49=MARKET_MAKER|52=20241009-15:13:35.191|56=CLIENT|10=089|
20241009-15:13:35.198309000 : 8=FIX.4.4|9=62|35=0|34=14|49=CLIENT|52=20241009-15:13:35.196|56=MARKET_MAKER|10=094|
20241009-15:13:40.634150000 : 8=FIX.4.4|9=62|35=5|34=15|49=MARKET_MAKER|52=20241009-15:13:40.631|56=CLIENT|10=090|
20241009-15:13:40.637668000 : 8=FIX.4.4|9=62|35=5|34=15|49=CLIENT|52=20241009-15:13:40.634|56=MARKET_MAKER|10=093|
20241009-15:13:58.295188000 : 8=FIX.4.4|9=79|35=A|34=1|49=CLIENT|52=20241009-15:13:58.243|56=MARKET_MAKER|98=0|108=90|141=Y|10=141|
20241009-15:13:58.444952000 : 8=FIX.4.4|9=79|35=A|34=1|49=MARKET_MAKER|52=20241009-15:13:58.443|56=CLIENT|98=0|108=90|141=Y|10=143|
20241009-15:15:28.061132000 : 8=FIX.4.4|9=61|35=0|34=2|49=MARKET_MAKER|52=20241009-15:15:28.051|56=CLIENT|10=036|
20241009-15:15:28.064614000 : 8=FIX.4.4|9=61|35=0|34=2|49=CLIENT|52=20241009-15:15:28.062|56=MARKET_MAKER|10=038|
20241009-15:16:58.054477000 : 8=FIX.4.4|9=61|35=0|34=3|49=MARKET_MAKER|52=20241009-15:16:58.050|56=CLIENT|10=040|
20241009-15:16:58.058487000 : 8=FIX.4.4|9=61|35=0|34=3|49=CLIENT|52=20241009-15:16:58.055|56=MARKET_MAKER|10=045|
20241009-15:18:28.790148000 : 8=FIX.4.4|9=61|35=0|34=4|49=CLIENT|52=20241009-15:18:28.440|56=MARKET_MAKER|10=043|
20241009-15:18:28.792461000 : 8=FIX.4.4|9=61|35=0|34=4|49=MARKET_MAKER|52=20241009-15:18:28.544|56=CLIENT|10=048|
20241009-15:19:25.548669000 : 8=FIX.4.4|9=61|35=5|34=5|49=CLIENT|52=20241009-15:19:25.547|56=MARKET_MAKER|10=055|
20241009-15:19:25.552571000 : 8=FIX.4.4|9=61|35=5|34=5|49=MARKET_MAKER|52=20241009-15:19:25.550|56=CLIENT|10=049|
