20241017-14:00:59.200477000 : 8=FIX.4.4|9=72|35=A|34=1|49=CLIENT|52=20241017-14:00:59.198|56=MARKETMAKER|98=0|108=30|10=248|
20241017-14:00:59.204240000 : 8=FIX.4.4|9=72|35=A|34=1|49=MARKETMAKER|52=20241017-14:00:59.201|56=CLIENT|98=0|108=30|10=233|
20241017-14:01:03.773942000 : 8=FIX.4.4|9=105|35=V|34=2|49=CLIENT|52=20241017-14:01:03.771|56=MARKETMAKER|146=1|55=EUR/USD|262=SUBSCRIBE_EUR/USD|263=1|10=184|
20241017-14:01:03.782768000 : 8=FIX.4.4|9=109|35=3|34=2|49=MARKETMAKER|52=20241017-14:01:03.775|56=CLIENT|45=2|58=Required tag missing|371=264|372=V|373=1|10=230|
20241017-14:01:12.817582000 : 8=FIX.4.4|9=105|35=V|34=3|49=CLIENT|52=20241017-14:01:12.815|56=MARKETMAKER|146=1|55=USD/JPY|262=SUBSCRIBE_USD/JPY|263=1|10=198|
20241017-14:01:12.856644000 : 8=FIX.4.4|9=109|35=3|34=3|49=MARKETMAKER|52=20241017-14:01:12.854|56=CLIENT|45=3|58=Required tag missing|371=264|372=V|373=1|10=230|
20241017-14:01:18.385177000 : 8=FIX.4.4|9=107|35=V|34=4|49=CLIENT|52=20241017-14:01:18.382|56=MARKETMAKER|146=1|55=USD/JPY|262=UNSUBSCRIBE_USD/JPY|263=2|10=114|
20241017-14:01:18.423117000 : 8=FIX.4.4|9=109|35=3|34=4|49=MARKETMAKER|52=20241017-14:01:18.421|56=CLIENT|45=4|58=Required tag missing|371=264|372=V|373=1|10=228|
20241017-14:01:29.529483000 : 8=FIX.4.4|9=107|35=V|34=5|49=CLIENT|52=20241017-14:01:29.527|56=MARKETMAKER|146=1|55=EUR/USD|262=UNSUBSCRIBE_EUR/USD|263=2|10=104|
20241017-14:01:29.551453000 : 8=FIX.4.4|9=109|35=3|34=5|49=MARKETMAKER|52=20241017-14:01:29.531|56=CLIENT|45=5|58=Required tag missing|371=264|372=V|373=1|10=234|
20241017-14:01:35.398322000 : 8=FIX.4.4|9=69|35=1|34=6|49=MARKETMAKER|52=20241017-14:01:35.373|56=CLIENT|112=TEST|10=226|
20241017-14:01:35.401935000 : 8=FIX.4.4|9=69|35=0|34=6|49=CLIENT|52=20241017-14:01:35.399|56=MARKETMAKER|112=TEST|10=233|
20241017-14:09:05.625745000 : 8=FIX.4.4|9=72|35=A|34=7|49=CLIENT|52=20241017-14:09:05.623|56=MARKETMAKER|98=0|108=30|10=247|
20241017-14:09:05.627801000 : 8=FIX.4.4|9=72|35=A|34=7|49=MARKETMAKER|52=20241017-14:09:05.626|56=CLIENT|98=0|108=30|10=250|
20241017-14:09:10.669030000 : 8=FIX.4.4|9=105|35=V|34=8|49=CLIENT|52=20241017-14:09:10.665|56=MARKETMAKER|146=1|55=EUR/USD|262=SUBSCRIBE_EUR/USD|263=1|10=198|
20241017-14:09:10.702794000 : 8=FIX.4.4|9=109|35=3|34=8|49=MARKETMAKER|52=20241017-14:09:10.700|56=CLIENT|45=8|58=Required tag missing|371=264|372=V|373=1|10=236|
20241017-14:09:40.046607000 : 8=FIX.4.4|9=107|35=V|34=9|49=CLIENT|52=20241017-14:09:40.042|56=MARKETMAKER|146=1|55=EUR/USD|262=UNSUBSCRIBE_EUR/USD|263=2|10=101|
20241017-14:09:40.081153000 : 8=FIX.4.4|9=109|35=3|34=9|49=MARKETMAKER|52=20241017-14:09:40.078|56=CLIENT|45=9|58=Required tag missing|371=264|372=V|373=1|10=249|
20241017-14:09:41.076664000 : 8=FIX.4.4|9=70|35=1|34=10|49=MARKETMAKER|52=20241017-14:09:41.073|56=CLIENT|112=TEST|10=007|
20241017-14:09:41.080113000 : 8=FIX.4.4|9=70|35=0|34=10|49=CLIENT|52=20241017-14:09:41.077|56=MARKETMAKER|112=TEST|10=010|
20241017-14:10:11.185241000 : 8=FIX.4.4|9=61|35=0|34=11|49=CLIENT|52=20241017-14:10:11.182|56=MARKETMAKER|10=235|
20241017-14:10:11.188306000 : 8=FIX.4.4|9=61|35=0|34=11|49=MARKETMAKER|52=20241017-14:10:11.186|56=CLIENT|10=239|
20241017-14:10:41.152596000 : 8=FIX.4.4|9=61|35=0|34=12|49=CLIENT|52=20241017-14:10:41.146|56=MARKETMAKER|10=239|
20241017-14:10:41.158231000 : 8=FIX.4.4|9=61|35=0|34=12|49=MARKETMAKER|52=20241017-14:10:41.154|56=CLIENT|10=238|
20241017-14:11:11.217657000 : 8=FIX.4.4|9=61|35=0|34=13|49=CLIENT|52=20241017-14:11:11.216|56=MARKETMAKER|10=236|
20241017-14:11:11.220313000 : 8=FIX.4.4|9=61|35=0|34=13|49=MARKETMAKER|52=20241017-14:11:11.218|56=CLIENT|10=238|
20241017-14:11:41.077448000 : 8=FIX.4.4|9=61|35=0|34=14|49=CLIENT|52=20241017-14:11:41.076|56=MARKETMAKER|10=244|
20241017-14:11:41.078826000 : 8=FIX.4.4|9=61|35=0|34=14|49=MARKETMAKER|52=20241017-14:11:41.077|56=CLIENT|10=245|
20241017-14:12:05.053205000 : 8=FIX.4.4|9=73|35=A|34=15|49=CLIENT|52=20241017-14:12:05.051|56=MARKETMAKER|98=0|108=30|10=028|
20241017-14:12:05.055070000 : 8=FIX.4.4|9=73|35=A|34=15|49=MARKETMAKER|52=20241017-14:12:05.053|56=CLIENT|98=0|108=30|10=030|
20241017-14:12:29.513865000 : 8=FIX.4.4|9=73|35=A|34=16|49=CLIENT|52=20241017-14:12:29.511|56=MARKETMAKER|98=0|108=30|10=036|
20241017-14:12:29.516762000 : 8=FIX.4.4|9=73|35=A|34=16|49=MARKETMAKER|52=20241017-14:12:29.514|56=CLIENT|98=0|108=30|10=039|
20241017-14:12:31.795767000 : 8=FIX.4.4|9=106|35=V|34=17|49=CLIENT|52=20241017-14:12:31.790|56=MARKETMAKER|146=1|55=EUR/USD|262=SUBSCRIBE_EUR/USD|263=1|10=243|
20241017-14:12:31.820162000 : 8=FIX.4.4|9=111|35=3|34=17|49=MARKETMAKER|52=20241017-14:12:31.818|56=CLIENT|45=17|58=Required tag missing|371=264|372=V|373=1|10=076|
20241017-14:12:55.999216000 : 8=FIX.4.4|9=106|35=V|34=18|49=CLIENT|52=20241017-14:12:55.975|56=MARKETMAKER|146=1|55=USD/JPY|262=SUBSCRIBE_USD/JPY|263=1|10=013|
20241017-14:12:56.012452000 : 8=FIX.4.4|9=111|35=3|34=18|49=MARKETMAKER|52=20241017-14:12:56.003|56=CLIENT|45=18|58=Required tag missing|371=264|372=V|373=1|10=071|
20241017-14:13:05.954540000 : 8=FIX.4.4|9=70|35=1|34=19|49=MARKETMAKER|52=20241017-14:13:05.949|56=CLIENT|112=TEST|10=023|
20241017-14:13:05.959883000 : 8=FIX.4.4|9=70|35=0|34=19|49=CLIENT|52=20241017-14:13:05.955|56=MARKETMAKER|112=TEST|10=019|
20241017-14:14:30.892828000 : 8=FIX.4.4|9=73|35=A|34=20|49=CLIENT|52=20241017-14:14:30.889|56=MARKETMAKER|98=0|108=30|10=043|
20241017-14:14:30.901280000 : 8=FIX.4.4|9=73|35=A|34=20|49=MARKETMAKER|52=20241017-14:14:30.894|56=CLIENT|98=0|108=30|10=039|
20241017-14:14:33.047298000 : 8=FIX.4.4|9=106|35=V|34=21|49=CLIENT|52=20241017-14:14:33.045|56=MARKETMAKER|146=1|55=EUR/USD|262=SUBSCRIBE_EUR/USD|263=1|10=235|
20241017-14:14:33.052194000 : 8=FIX.4.4|9=111|35=3|34=21|49=MARKETMAKER|52=20241017-14:14:33.048|56=CLIENT|45=21|58=Required tag missing|371=264|372=V|373=1|10=065|
20241017-14:14:46.532501000 : 8=FIX.4.4|9=108|35=V|34=22|49=CLIENT|52=20241017-14:14:46.527|56=MARKETMAKER|146=1|55=EUR/USD|262=UNSUBSCRIBE_EUR/USD|263=2|10=155|
20241017-14:14:46.575847000 : 8=FIX.4.4|9=111|35=3|34=22|49=MARKETMAKER|52=20241017-14:14:46.551|56=CLIENT|45=22|58=Required tag missing|371=264|372=V|373=1|10=070|
20241017-14:24:05.864280000 : 8=FIX.4.4|9=73|35=A|34=23|49=CLIENT|52=20241017-14:24:05.860|56=MARKETMAKER|98=0|108=30|10=038|
20241017-14:24:05.872386000 : 8=FIX.4.4|9=73|35=A|34=23|49=MARKETMAKER|52=20241017-14:24:05.866|56=CLIENT|98=0|108=30|10=044|
20241017-14:24:20.002875000 : 8=FIX.4.4|9=106|35=V|34=24|49=CLIENT|52=20241017-14:24:19.948|56=MARKETMAKER|146=1|55=EUR/USD|262=SUBSCRIBE_EUR/USD|263=1|10=255|
20241017-14:24:20.009156000 : 8=FIX.4.4|9=111|35=3|34=24|49=MARKETMAKER|52=20241017-14:24:20.004|56=CLIENT|45=24|58=Required tag missing|371=264|372=V|373=1|10=060|
20241017-14:24:41.113616000 : 8=FIX.4.4|9=106|35=V|34=25|49=CLIENT|52=20241017-14:24:41.074|56=MARKETMAKER|146=1|55=USD/JPY|262=SUBSCRIBE_USD/JPY|263=1|10=255|
20241017-14:24:41.146645000 : 8=FIX.4.4|9=111|35=3|34=25|49=MARKETMAKER|52=20241017-14:24:41.132|56=CLIENT|45=25|58=Required tag missing|371=264|372=V|373=1|10=067|
20241017-14:24:41.154552000 : 8=FIX.4.4|9=70|35=1|34=26|49=MARKETMAKER|52=20241017-14:24:41.146|56=CLIENT|112=TEST|10=012|
20241017-14:24:41.157789000 : 8=FIX.4.4|9=70|35=0|34=26|49=CLIENT|52=20241017-14:24:41.155|56=MARKETMAKER|112=TEST|10=011|
20241017-14:24:55.186642000 : 8=FIX.4.4|9=108|35=V|34=27|49=CLIENT|52=20241017-14:24:55.182|56=MARKETMAKER|146=1|55=USD/JPY|262=UNSUBSCRIBE_USD/JPY|263=2|10=172|
20241017-14:24:55.202297000 : 8=FIX.4.4|9=111|35=3|34=27|49=MARKETMAKER|52=20241017-14:24:55.189|56=CLIENT|45=27|58=Required tag missing|371=264|372=V|373=1|10=088|
20241017-14:25:14.809903000 : 8=FIX.4.4|9=108|35=V|34=28|49=CLIENT|52=20241017-14:25:14.805|56=MARKETMAKER|146=1|55=EUR/USD|262=UNSUBSCRIBE_EUR/USD|263=2|10=157|
20241017-14:25:14.827719000 : 8=FIX.4.4|9=111|35=3|34=28|49=MARKETMAKER|52=20241017-14:25:14.814|56=CLIENT|45=28|58=Required tag missing|371=264|372=V|373=1|10=081|
20241017-14:25:17.752845000 : 8=FIX.4.4|9=70|35=1|34=29|49=MARKETMAKER|52=20241017-14:25:17.750|56=CLIENT|112=TEST|10=020|
20241017-14:25:17.754322000 : 8=FIX.4.4|9=70|35=0|34=29|49=CLIENT|52=20241017-14:25:17.753|56=MARKETMAKER|112=TEST|10=022|
20241017-14:25:47.652327000 : 8=FIX.4.4|9=61|35=0|34=30|49=CLIENT|52=20241017-14:25:47.650|56=MARKETMAKER|10=251|
20241017-14:25:47.654912000 : 8=FIX.4.4|9=61|35=0|34=30|49=MARKETMAKER|52=20241017-14:25:47.653|56=CLIENT|10=254|
20241017-14:26:17.557363000 : 8=FIX.4.4|9=61|35=0|34=31|49=CLIENT|52=20241017-14:26:17.553|56=MARKETMAKER|10=252|
20241017-14:26:17.562855000 : 8=FIX.4.4|9=61|35=0|34=31|49=MARKETMAKER|52=20241017-14:26:17.558|56=CLIENT|10=001|
20241017-14:26:47.294032000 : 8=FIX.4.4|9=61|35=0|34=32|49=MARKETMAKER|52=20241017-14:26:47.288|56=CLIENT|10=005|
20241017-14:26:47.298050000 : 8=FIX.4.4|9=61|35=0|34=32|49=CLIENT|52=20241017-14:26:47.295|56=MARKETMAKER|10=003|
20241017-14:27:17.335657000 : 8=FIX.4.4|9=61|35=0|34=33|49=CLIENT|52=20241017-14:27:17.333|56=MARKETMAKER|10=251|
20241017-14:27:17.339704000 : 8=FIX.4.4|9=61|35=0|34=33|49=MARKETMAKER|52=20241017-14:27:17.336|56=CLIENT|10=254|
20241017-14:27:47.365730000 : 8=FIX.4.4|9=61|35=0|34=34|49=CLIENT|52=20241017-14:27:47.360|56=MARKETMAKER|10=255|
20241017-14:27:47.378490000 : 8=FIX.4.4|9=61|35=0|34=34|49=MARKETMAKER|52=20241017-14:27:47.366|56=CLIENT|10=005|
20241017-14:28:17.002794000 : 8=FIX.4.4|9=61|35=0|34=35|49=CLIENT|52=20241017-14:28:17.000|56=MARKETMAKER|10=245|
20241017-14:28:17.005049000 : 8=FIX.4.4|9=61|35=0|34=35|49=MARKETMAKER|52=20241017-14:28:17.003|56=CLIENT|10=248|
20241017-14:28:47.061243000 : 8=FIX.4.4|9=61|35=0|34=36|49=CLIENT|52=20241017-14:28:47.057|56=MARKETMAKER|10=005|
20241017-14:28:47.065678000 : 8=FIX.4.4|9=61|35=0|34=36|49=MARKETMAKER|52=20241017-14:28:47.062|56=CLIENT|10=001|
20241017-14:29:17.173935000 : 8=FIX.4.4|9=61|35=0|34=37|49=CLIENT|52=20241017-14:29:17.170|56=MARKETMAKER|10=000|
20241017-14:29:17.179033000 : 8=FIX.4.4|9=61|35=0|34=37|49=MARKETMAKER|52=20241017-14:29:17.175|56=CLIENT|10=005|
20241017-14:29:47.047713000 : 8=FIX.4.4|9=61|35=0|34=38|49=CLIENT|52=20241017-14:29:47.045|56=MARKETMAKER|10=005|
20241017-14:29:47.049661000 : 8=FIX.4.4|9=61|35=0|34=38|49=MARKETMAKER|52=20241017-14:29:47.048|56=CLIENT|10=008|
20241017-14:30:17.022909000 : 8=FIX.4.4|9=61|35=0|34=39|49=CLIENT|52=20241017-14:30:17.019|56=MARKETMAKER|10=252|
20241017-14:30:17.028100000 : 8=FIX.4.4|9=61|35=0|34=39|49=MARKETMAKER|52=20241017-14:30:17.025|56=CLIENT|10=249|
20241017-14:30:47.385366000 : 8=FIX.4.4|9=61|35=0|34=40|49=CLIENT|52=20241017-14:30:47.381|56=MARKETMAKER|10=249|
20241017-14:30:47.396314000 : 8=FIX.4.4|9=61|35=0|34=40|49=MARKETMAKER|52=20241017-14:30:47.388|56=CLIENT|10=000|
20241017-14:31:17.201363000 : 8=FIX.4.4|9=61|35=0|34=41|49=CLIENT|52=20241017-14:31:17.197|56=MARKETMAKER|10=253|
20241017-14:31:17.207016000 : 8=FIX.4.4|9=61|35=0|34=41|49=MARKETMAKER|52=20241017-14:31:17.203|56=CLIENT|10=241|
20241017-14:31:47.423063000 : 8=FIX.4.4|9=61|35=0|34=42|49=MARKETMAKER|52=20241017-14:31:47.329|56=CLIENT|10=254|
20241017-14:31:47.426264000 : 8=FIX.4.4|9=61|35=0|34=42|49=CLIENT|52=20241017-14:31:47.423|56=MARKETMAKER|10=249|
20241017-14:32:17.483211000 : 8=FIX.4.4|9=61|35=0|34=43|49=MARKETMAKER|52=20241017-14:32:17.422|56=CLIENT|10=247|
20241017-14:32:17.502737000 : 8=FIX.4.4|9=61|35=0|34=43|49=CLIENT|52=20241017-14:32:17.495|56=MARKETMAKER|10=001|
20241017-14:32:47.454821000 : 8=FIX.4.4|9=61|35=0|34=44|49=MARKETMAKER|52=20241017-14:32:47.368|56=CLIENT|10=004|
20241017-14:32:47.458388000 : 8=FIX.4.4|9=61|35=0|34=44|49=CLIENT|52=20241017-14:32:47.455|56=MARKETMAKER|10=001|
20241017-14:33:17.116175000 : 8=FIX.4.4|9=61|35=0|34=45|49=MARKETMAKER|52=20241017-14:33:17.111|56=CLIENT|10=245|
20241017-14:33:17.118848000 : 8=FIX.4.4|9=61|35=0|34=45|49=CLIENT|52=20241017-14:33:17.117|56=MARKETMAKER|10=251|
20241017-14:33:47.104300000 : 8=FIX.4.4|9=61|35=0|34=46|49=CLIENT|52=20241017-14:33:47.101|56=MARKETMAKER|10=248|
20241017-14:33:47.107978000 : 8=FIX.4.4|9=61|35=0|34=46|49=MARKETMAKER|52=20241017-14:33:47.105|56=CLIENT|10=252|
20241017-14:34:17.192445000 : 8=FIX.4.4|9=61|35=0|34=47|49=MARKETMAKER|52=20241017-14:34:17.161|56=CLIENT|10=253|
20241017-14:34:17.197714000 : 8=FIX.4.4|9=61|35=0|34=47|49=CLIENT|52=20241017-14:34:17.194|56=MARKETMAKER|10=003|
20241017-14:34:47.106599000 : 8=FIX.4.4|9=61|35=0|34=48|49=CLIENT|52=20241017-14:34:47.009|56=MARKETMAKER|10=002|
20241017-14:34:47.121102000 : 8=FIX.4.4|9=61|35=0|34=48|49=MARKETMAKER|52=20241017-14:34:47.108|56=CLIENT|10=002|
20241017-14:35:17.286422000 : 8=FIX.4.4|9=61|35=0|34=49|49=CLIENT|52=20241017-14:35:17.045|56=MARKETMAKER|10=001|
20241017-14:35:17.316808000 : 8=FIX.4.4|9=61|35=0|34=49|49=MARKETMAKER|52=20241017-14:35:17.305|56=CLIENT|10=000|
20241017-14:35:47.016927000 : 8=FIX.4.4|9=61|35=0|34=50|49=MARKETMAKER|52=20241017-14:35:47.012|56=CLIENT|10=246|
20241017-14:35:47.021141000 : 8=FIX.4.4|9=61|35=0|34=50|49=CLIENT|52=20241017-14:35:47.017|56=MARKETMAKER|10=251|
20241017-14:36:17.478629000 : 8=FIX.4.4|9=61|35=0|34=51|49=CLIENT|52=20241017-14:36:17.000|56=MARKETMAKER|10=242|
20241017-14:36:17.569988000 : 8=FIX.4.4|9=61|35=0|34=51|49=MARKETMAKER|52=20241017-14:36:17.456|56=CLIENT|10=001|
20241017-14:36:47.922965000 : 8=FIX.4.4|9=61|35=0|34=52|49=CLIENT|52=20241017-14:36:47.592|56=MARKETMAKER|10=006|
20241017-14:36:47.923642000 : 8=FIX.4.4|9=61|35=0|34=52|49=MARKETMAKER|52=20241017-14:36:47.859|56=CLIENT|10=012|
20241017-14:37:17.232263000 : 8=FIX.4.4|9=61|35=0|34=53|49=MARKETMAKER|52=20241017-14:37:17.227|56=CLIENT|10=000|
20241017-14:37:17.236708000 : 8=FIX.4.4|9=61|35=0|34=53|49=CLIENT|52=20241017-14:37:17.233|56=MARKETMAKER|10=253|
20241017-14:37:47.698953000 : 8=FIX.4.4|9=61|35=0|34=54|49=CLIENT|52=20241017-14:37:47.172|56=MARKETMAKER|10=003|
20241017-14:37:47.751222000 : 8=FIX.4.4|9=61|35=0|34=54|49=MARKETMAKER|52=20241017-14:37:47.263|56=CLIENT|10=004|
20241017-14:55:59.448057000 : 8=FIX.4.4|9=73|35=A|34=55|49=CLIENT|52=20241017-14:55:59.445|56=MARKETMAKER|98=0|108=30|10=055|
20241017-14:55:59.453010000 : 8=FIX.4.4|9=73|35=A|34=55|49=MARKETMAKER|52=20241017-14:55:59.448|56=CLIENT|98=0|108=30|10=058|
20241017-14:56:11.699698000 : 8=FIX.4.4|9=106|35=V|34=56|49=CLIENT|52=20241017-14:56:11.691|56=MARKETMAKER|146=1|55=EUR/USD|262=SUBSCRIBE_EUR/USD|263=1|10=252|
20241017-14:56:11.734900000 : 8=FIX.4.4|9=111|35=3|34=56|49=MARKETMAKER|52=20241017-14:56:11.702|56=CLIENT|45=56|58=Required tag missing|371=264|372=V|373=1|10=080|
20241017-14:56:35.618067000 : 8=FIX.4.4|9=70|35=1|34=57|49=MARKETMAKER|52=20241017-14:56:35.600|56=CLIENT|112=TEST|10=019|
20241017-14:56:35.631767000 : 8=FIX.4.4|9=70|35=0|34=57|49=CLIENT|52=20241017-14:56:35.627|56=MARKETMAKER|112=TEST|10=027|
20241017-14:57:05.522543000 : 8=FIX.4.4|9=61|35=0|34=58|49=CLIENT|52=20241017-14:57:05.060|56=MARKETMAKER|10=255|
20241017-14:57:05.524007000 : 8=FIX.4.4|9=61|35=0|34=58|49=MARKETMAKER|52=20241017-14:57:05.366|56=CLIENT|10=008|
20241017-14:57:27.704032000 : 8=FIX.4.4|9=106|35=V|34=59|49=CLIENT|52=20241017-14:57:27.647|56=MARKETMAKER|146=1|55=USD/JPY|262=SUBSCRIBE_USD/JPY|263=1|10=022|
20241017-14:57:27.708166000 : 8=FIX.4.4|9=111|35=3|34=59|49=MARKETMAKER|52=20241017-14:57:27.704|56=CLIENT|45=59|58=Required tag missing|371=264|372=V|373=1|10=096|
20241017-14:57:41.510907000 : 8=FIX.4.4|9=70|35=1|34=60|49=MARKETMAKER|52=20241017-14:57:41.507|56=CLIENT|112=TEST|10=017|
20241017-14:57:41.514343000 : 8=FIX.4.4|9=70|35=0|34=60|49=CLIENT|52=20241017-14:57:41.511|56=MARKETMAKER|112=TEST|10=011|
20241017-14:58:11.394015000 : 8=FIX.4.4|9=61|35=0|34=61|49=CLIENT|52=20241017-14:58:11.387|56=MARKETMAKER|10=003|
20241017-14:58:11.398214000 : 8=FIX.4.4|9=61|35=0|34=61|49=MARKETMAKER|52=20241017-14:58:11.395|56=CLIENT|10=002|
