8=FIX.4.4|9=79|35=A|34=1|49=MARKET_MAKER|52=20241009-15:13:58.443|56=CLIENT|98=0|108=90|141=Y|10=143|8=FIX.4.4|9=61|35=0|34=2|49=MARKET_MAKER|52=20241009-15:15:28.051|56=CLIENT|10=036|8=FIX.4.4|9=61|35=0|34=3|49=MARKET_MAKER|52=20241009-15:16:58.050|56=CLIENT|10=040|8=FIX.4.4|9=61|35=0|34=4|49=MARKET_MAKER|52=20241009-15:18:28.544|56=CLIENT|10=048|8=FIX.4.4|9=61|35=5|34=5|49=MARKET_MAKER|52=20241009-15:19:25.550|56=CLIENT|10=049|