8=FIX.4.4|9=73|35=A|34=1|49=SERVER|52=20241017-07:24:21.844|56=CLIENT|98=0|108=30|141=Y|10=196|8=FIX.4.4|9=55|35=0|34=2|49=SERVER|52=20241017-07:24:51.716|56=CLIENT|10=111|8=FIX.4.4|9=104|35=5|34=3|49=SERVER|52=20241017-07:34:41.403|56=CLIENT|58=MsgSeqNum too low, expecting 3 but received 2|10=050|8=FIX.4.4|9=67|35=A|34=4|49=SERVER|52=20241017-07:34:41.694|56=CLIENT|98=0|108=15|10=166|8=FIX.4.4|9=64|35=2|34=5|49=SERVER|52=20241017-07:34:41.696|56=CLIENT|7=3|16=0|10=248|8=FIX.4.4|9=55|35=0|34=6|49=SERVER|52=20241017-07:34:56.348|56=CLIENT|10=122|8=FIX.4.4|9=104|35=3|34=7|49=SERVER|52=20241017-07:34:59.717|56=CLIENT|45=8|58=Required tag missing|371=146|372=V|373=1|10=157|8=FIX.4.4|9=64|35=1|34=8|49=SERVER|52=20241017-07:35:14.328|56=CLIENT|112=TEST|10=136|8=FIX.4.4|9=105|35=3|34=9|49=SERVER|52=20241017-07:35:21.219|56=CLIENT|45=10|58=Required tag missing|371=146|372=V|373=1|10=188|8=FIX.4.4|9=106|35=3|34=10|49=SERVER|52=20241017-07:35:22.467|56=CLIENT|45=11|58=Required tag missing|371=146|372=V|373=1|10=236|8=FIX.4.4|9=65|35=1|34=11|49=SERVER|52=20241017-07:35:32.265|56=CLIENT|112=TEST|10=179|8=FIX.4.4|9=56|35=5|34=12|49=SERVER|52=20241017-07:35:33.066|56=CLIENT|10=166|8=FIX.4.4|9=106|35=5|34=13|49=SERVER|52=20241017-07:35:41.502|56=CLIENT|58=MsgSeqNum too low, expecting 14 but received 6|10=156|8=FIX.4.4|9=106|35=5|34=14|49=SERVER|52=20241017-08:22:22.535|56=CLIENT|58=MsgSeqNum too low, expecting 14 but received 7|10=160|8=FIX.4.4|9=107|35=5|34=15|49=SERVER|52=20241017-08:22:22.859|56=CLIENT|58=MsgSeqNum too low, expecting 14 but received 10|10=213|8=FIX.4.4|9=107|35=5|34=16|49=SERVER|52=20241017-08:22:52.033|56=CLIENT|58=MsgSeqNum too low, expecting 14 but received 13|10=204|8=FIX.4.4|9=107|35=5|34=17|49=SERVER|52=20241017-08:22:52.400|56=CLIENT|58=MsgSeqNum too low, expecting 14 but received 10|10=200|8=FIX.4.4|9=68|35=A|34=18|49=SERVER|52=20241017-08:23:22.027|56=CLIENT|98=0|108=15|10=208|8=FIX.4.4|9=66|35=2|34=19|49=SERVER|52=20241017-08:23:22.033|56=CLIENT|7=14|16=0|10=080|8=FIX.4.4|9=56|35=0|34=20|49=SERVER|52=20241017-08:23:37.325|56=CLIENT|10=160|8=FIX.4.4|9=106|35=3|34=21|49=SERVER|52=20241017-08:23:45.230|56=CLIENT|45=19|58=Required tag missing|371=146|372=V|373=1|10=237|8=FIX.4.4|9=65|35=1|34=22|49=SERVER|52=20241017-08:23:55.366|56=CLIENT|112=TEST|10=186|8=FIX.4.4|9=56|35=0|34=23|49=SERVER|52=20241017-08:24:10.092|56=CLIENT|10=156|8=FIX.4.4|9=56|35=0|34=24|49=SERVER|52=20241017-08:24:25.434|56=CLIENT|10=163|8=FIX.4.4|9=56|35=0|34=25|49=SERVER|52=20241017-08:24:40.033|56=CLIENT|10=156|8=FIX.4.4|9=106|35=3|34=26|49=SERVER|52=20241017-08:24:40.985|56=CLIENT|45=24|58=Required tag missing|371=146|372=V|373=1|10=251|8=FIX.4.4|9=106|35=3|34=27|49=SERVER|52=20241017-08:24:42.489|56=CLIENT|45=25|58=Required tag missing|371=146|372=V|373=1|10=254|8=FIX.4.4|9=56|35=5|34=28|49=SERVER|52=20241017-08:24:54.641|56=CLIENT|10=174|8=FIX.4.4|9=68|35=A|34=29|49=SERVER|52=20241017-08:30:23.783|56=CLIENT|98=0|108=15|10=218|8=FIX.4.4|9=56|35=0|34=30|49=SERVER|52=20241017-08:30:38.772|56=CLIENT|10=166|8=FIX.4.4|9=56|35=0|34=31|49=SERVER|52=20241017-08:30:53.485|56=CLIENT|10=165|8=FIX.4.4|9=56|35=0|34=32|49=SERVER|52=20241017-08:31:08.308|56=CLIENT|10=161|8=FIX.4.4|9=56|35=0|34=33|49=SERVER|52=20241017-08:31:23.075|56=CLIENT|10=160|8=FIX.4.4|9=56|35=5|34=34|49=SERVER|52=20241017-08:31:31.929|56=CLIENT|10=173|8=FIX.4.4|9=68|35=A|34=35|49=SERVER|52=20241017-08:57:36.508|56=CLIENT|98=0|108=15|10=223|8=FIX.4.4|9=56|35=0|34=36|49=SERVER|52=20241017-08:57:51.506|56=CLIENT|10=171|8=FIX.4.4|9=56|35=0|34=37|49=SERVER|52=20241017-08:58:06.483|56=CLIENT|10=177|8=FIX.4.4|9=56|35=0|34=38|49=SERVER|52=20241017-08:58:21.368|56=CLIENT|10=177|8=FIX.4.4|9=56|35=5|34=39|49=SERVER|52=20241017-08:58:29.487|56=CLIENT|10=193|8=FIX.4.4|9=68|35=A|34=40|49=SERVER|52=20241017-10:04:51.401|56=CLIENT|98=0|108=25|10=194|8=FIX.4.4|9=56|35=0|34=41|49=SERVER|52=20241017-10:05:16.460|56=CLIENT|10=153|8=FIX.4.4|9=56|35=0|34=42|49=SERVER|52=20241017-10:05:41.267|56=CLIENT|10=157|8=FIX.4.4|9=56|35=5|34=43|49=SERVER|52=20241017-10:05:49.223|56=CLIENT|10=163|8=FIX.4.4|9=107|35=5|34=44|49=SERVER|52=20241017-10:05:51.630|56=CLIENT|58=MsgSeqNum too low, expecting 42 but received 41|10=203|