8=FIX.4.4|9=72|35=A|34=1|49=MARKETMAKER|52=20241017-14:00:59.201|56=CLIENT|98=0|108=30|10=233|8=FIX.4.4|9=109|35=3|34=2|49=MARKETMAKER|52=20241017-14:01:03.775|56=CLIENT|45=2|58=Required tag missing|371=264|372=V|373=1|10=230|8=FIX.4.4|9=109|35=3|34=3|49=MARKETMAKER|52=20241017-14:01:12.854|56=CLIENT|45=3|58=Required tag missing|371=264|372=V|373=1|10=230|8=FIX.4.4|9=109|35=3|34=4|49=MARKETMAKER|52=20241017-14:01:18.421|56=CLIENT|45=4|58=Required tag missing|371=264|372=V|373=1|10=228|8=FIX.4.4|9=109|35=3|34=5|49=MARKETMAKER|52=20241017-14:01:29.531|56=CLIENT|45=5|58=Required tag missing|371=264|372=V|373=1|10=234|8=FIX.4.4|9=69|35=1|34=6|49=MARKETMAKER|52=20241017-14:01:35.373|56=CLIENT|112=TEST|10=226|8=FIX.4.4|9=72|35=A|34=7|49=MARKETMAKER|52=20241017-14:09:05.626|56=CLIENT|98=0|108=30|10=250|8=FIX.4.4|9=109|35=3|34=8|49=MARKETMAKER|52=20241017-14:09:10.700|56=CLIENT|45=8|58=Required tag missing|371=264|372=V|373=1|10=236|8=FIX.4.4|9=109|35=3|34=9|49=MARKETMAKER|52=20241017-14:09:40.078|56=CLIENT|45=9|58=Required tag missing|371=264|372=V|373=1|10=249|8=FIX.4.4|9=70|35=1|34=10|49=MARKETMAKER|52=20241017-14:09:41.073|56=CLIENT|112=TEST|10=007|8=FIX.4.4|9=61|35=0|34=11|49=MARKETMAKER|52=20241017-14:10:11.186|56=CLIENT|10=239|8=FIX.4.4|9=61|35=0|34=12|49=MARKETMAKER|52=20241017-14:10:41.154|56=CLIENT|10=238|8=FIX.4.4|9=61|35=0|34=13|49=MARKETMAKER|52=20241017-14:11:11.218|56=CLIENT|10=238|8=FIX.4.4|9=61|35=0|34=14|49=MARKETMAKER|52=20241017-14:11:41.077|56=CLIENT|10=245|8=FIX.4.4|9=73|35=A|34=15|49=MARKETMAKER|52=20241017-14:12:05.053|56=CLIENT|98=0|108=30|10=030|8=FIX.4.4|9=73|35=A|34=16|49=MARKETMAKER|52=20241017-14:12:29.514|56=CLIENT|98=0|108=30|10=039|8=FIX.4.4|9=111|35=3|34=17|49=MARKETMAKER|52=20241017-14:12:31.818|56=CLIENT|45=17|58=Required tag missing|371=264|372=V|373=1|10=076|8=FIX.4.4|9=111|35=3|34=18|49=MARKETMAKER|52=20241017-14:12:56.003|56=CLIENT|45=18|58=Required tag missing|371=264|372=V|373=1|10=071|8=FIX.4.4|9=70|35=1|34=19|49=MARKETMAKER|52=20241017-14:13:05.949|56=CLIENT|112=TEST|10=023|8=FIX.4.4|9=73|35=A|34=20|49=MARKETMAKER|52=20241017-14:14:30.894|56=CLIENT|98=0|108=30|10=039|8=FIX.4.4|9=111|35=3|34=21|49=MARKETMAKER|52=20241017-14:14:33.048|56=CLIENT|45=21|58=Required tag missing|371=264|372=V|373=1|10=065|8=FIX.4.4|9=111|35=3|34=22|49=MARKETMAKER|52=20241017-14:14:46.551|56=CLIENT|45=22|58=Required tag missing|371=264|372=V|373=1|10=070|8=FIX.4.4|9=73|35=A|34=23|49=MARKETMAKER|52=20241017-14:24:05.866|56=CLIENT|98=0|108=30|10=044|8=FIX.4.4|9=111|35=3|34=24|49=MARKETMAKER|52=20241017-14:24:20.004|56=CLIENT|45=24|58=Required tag missing|371=264|372=V|373=1|10=060|8=FIX.4.4|9=111|35=3|34=25|49=MARKETMAKER|52=20241017-14:24:41.132|56=CLIENT|45=25|58=Required tag missing|371=264|372=V|373=1|10=067|8=FIX.4.4|9=70|35=1|34=26|49=MARKETMAKER|52=20241017-14:24:41.146|56=CLIENT|112=TEST|10=012|8=FIX.4.4|9=111|35=3|34=27|49=MARKETMAKER|52=20241017-14:24:55.189|56=CLIENT|45=27|58=Required tag missing|371=264|372=V|373=1|10=088|8=FIX.4.4|9=111|35=3|34=28|49=MARKETMAKER|52=20241017-14:25:14.814|56=CLIENT|45=28|58=Required tag missing|371=264|372=V|373=1|10=081|8=FIX.4.4|9=70|35=1|34=29|49=MARKETMAKER|52=20241017-14:25:17.750|56=CLIENT|112=TEST|10=020|8=FIX.4.4|9=61|35=0|34=30|49=MARKETMAKER|52=20241017-14:25:47.653|56=CLIENT|10=254|8=FIX.4.4|9=61|35=0|34=31|49=MARKETMAKER|52=20241017-14:26:17.558|56=CLIENT|10=001|8=FIX.4.4|9=61|35=0|34=32|49=MARKETMAKER|52=20241017-14:26:47.288|56=CLIENT|10=005|8=FIX.4.4|9=61|35=0|34=33|49=MARKETMAKER|52=20241017-14:27:17.336|56=CLIENT|10=254|8=FIX.4.4|9=61|35=0|34=34|49=MARKETMAKER|52=20241017-14:27:47.366|56=CLIENT|10=005|8=FIX.4.4|9=61|35=0|34=35|49=MARKETMAKER|52=20241017-14:28:17.003|56=CLIENT|10=248|8=FIX.4.4|9=61|35=0|34=36|49=MARKETMAKER|52=20241017-14:28:47.062|56=CLIENT|10=001|8=FIX.4.4|9=61|35=0|34=37|49=MARKETMAKER|52=20241017-14:29:17.175|56=CLIENT|10=005|8=FIX.4.4|9=61|35=0|34=38|49=MARKETMAKER|52=20241017-14:29:47.048|56=CLIENT|10=008|8=FIX.4.4|9=61|35=0|34=39|49=MARKETMAKER|52=20241017-14:30:17.025|56=CLIENT|10=249|8=FIX.4.4|9=61|35=0|34=40|49=MARKETMAKER|52=20241017-14:30:47.388|56=CLIENT|10=000|8=FIX.4.4|9=61|35=0|34=41|49=MARKETMAKER|52=20241017-14:31:17.203|56=CLIENT|10=241|8=FIX.4.4|9=61|35=0|34=42|49=MARKETMAKER|52=20241017-14:31:47.329|56=CLIENT|10=254|8=FIX.4.4|9=61|35=0|34=43|49=MARKETMAKER|52=20241017-14:32:17.422|56=CLIENT|10=247|8=FIX.4.4|9=61|35=0|34=44|49=MARKETMAKER|52=20241017-14:32:47.368|56=CLIENT|10=004|8=FIX.4.4|9=61|35=0|34=45|49=MARKETMAKER|52=20241017-14:33:17.111|56=CLIENT|10=245|8=FIX.4.4|9=61|35=0|34=46|49=MARKETMAKER|52=20241017-14:33:47.105|56=CLIENT|10=252|8=FIX.4.4|9=61|35=0|34=47|49=MARKETMAKER|52=20241017-14:34:17.161|56=CLIENT|10=253|8=FIX.4.4|9=61|35=0|34=48|49=MARKETMAKER|52=20241017-14:34:47.108|56=CLIENT|10=002|8=FIX.4.4|9=61|35=0|34=49|49=MARKETMAKER|52=20241017-14:35:17.305|56=CLIENT|10=000|8=FIX.4.4|9=61|35=0|34=50|49=MARKETMAKER|52=20241017-14:35:47.012|56=CLIENT|10=246|8=FIX.4.4|9=61|35=0|34=51|49=MARKETMAKER|52=20241017-14:36:17.456|56=CLIENT|10=001|8=FIX.4.4|9=61|35=0|34=52|49=MARKETMAKER|52=20241017-14:36:47.859|56=CLIENT|10=012|8=FIX.4.4|9=61|35=0|34=53|49=MARKETMAKER|52=20241017-14:37:17.227|56=CLIENT|10=000|8=FIX.4.4|9=61|35=0|34=54|49=MARKETMAKER|52=20241017-14:37:47.263|56=CLIENT|10=004|8=FIX.4.4|9=73|35=A|34=55|49=MARKETMAKER|52=20241017-14:55:59.448|56=CLIENT|98=0|108=30|10=058|8=FIX.4.4|9=111|35=3|34=56|49=MARKETMAKER|52=20241017-14:56:11.702|56=CLIENT|45=56|58=Required tag missing|371=264|372=V|373=1|10=080|8=FIX.4.4|9=70|35=1|34=57|49=MARKETMAKER|52=20241017-14:56:35.600|56=CLIENT|112=TEST|10=019|8=FIX.4.4|9=61|35=0|34=58|49=MARKETMAKER|52=20241017-14:57:05.366|56=CLIENT|10=008|8=FIX.4.4|9=111|35=3|34=59|49=MARKETMAKER|52=20241017-14:57:27.704|56=CLIENT|45=59|58=Required tag missing|371=264|372=V|373=1|10=096|8=FIX.4.4|9=70|35=1|34=60|49=MARKETMAKER|52=20241017-14:57:41.507|56=CLIENT|112=TEST|10=017|8=FIX.4.4|9=61|35=0|34=61|49=MARKETMAKER|52=20241017-14:58:11.395|56=CLIENT|10=002|